{
	"contracts/myLearning/Bank.sol": {
		"Bank": {
			"abi": [
				{
					"inputs": [
						{
							"internalType": "uint256",
							"name": "initialSupply",
							"type": "uint256"
						}
					],
					"stateMutability": "nonpayable",
					"type": "constructor"
				},
				{
					"inputs": [
						{
							"internalType": "address",
							"name": "account",
							"type": "address"
						}
					],
					"name": "accountBal",
					"outputs": [
						{
							"internalType": "uint256",
							"name": "",
							"type": "uint256"
						}
					],
					"stateMutability": "view",
					"type": "function"
				},
				{
					"inputs": [
						{
							"internalType": "address",
							"name": "",
							"type": "address"
						}
					],
					"name": "accounts",
					"outputs": [
						{
							"internalType": "uint256",
							"name": "",
							"type": "uint256"
						}
					],
					"stateMutability": "view",
					"type": "function"
				},
				{
					"inputs": [
						{
							"internalType": "uint256",
							"name": "money",
							"type": "uint256"
						}
					],
					"name": "deposit",
					"outputs": [],
					"stateMutability": "nonpayable",
					"type": "function"
				},
				{
					"inputs": [],
					"name": "getInitialToken",
					"outputs": [
						{
							"internalType": "uint256",
							"name": "",
							"type": "uint256"
						}
					],
					"stateMutability": "view",
					"type": "function"
				},
				{
					"inputs": [
						{
							"internalType": "address",
							"name": "to",
							"type": "address"
						},
						{
							"internalType": "uint256",
							"name": "_value",
							"type": "uint256"
						}
					],
					"name": "transfer",
					"outputs": [],
					"stateMutability": "nonpayable",
					"type": "function"
				},
				{
					"inputs": [
						{
							"internalType": "uint256",
							"name": "money",
							"type": "uint256"
						}
					],
					"name": "withdraw",
					"outputs": [],
					"stateMutability": "nonpayable",
					"type": "function"
				}
			],
			"devdoc": {
				"kind": "dev",
				"methods": {},
				"version": 1
			},
			"evm": {
				"assembly": "    /* \"contracts/myLearning/Bank.sol\":73:1003  contract Bank {\r... */\n  mstore(0x40, 0x80)\n    /* \"contracts/myLearning/Bank.sol\":193:345  constructor(uint256 initialSupply) {\r... */\n  callvalue\n  dup1\n  iszero\n  tag_1\n  jumpi\n  0x00\n  dup1\n  revert\ntag_1:\n  pop\n  mload(0x40)\n  sub(codesize, bytecodeSize)\n  dup1\n  bytecodeSize\n  dup4\n  codecopy\n  dup2\n  dup2\n  add\n  0x40\n  mstore\n  dup2\n  add\n  swap1\n  tag_2\n  swap2\n  swap1\n  tag_3\n  jump\t// in\ntag_2:\n    /* \"contracts/myLearning/Bank.sol\":247:257  msg.sender */\n  caller\n    /* \"contracts/myLearning/Bank.sol\":239:244  owner */\n  0x00\n  dup1\n    /* \"contracts/myLearning/Bank.sol\":239:257  owner = msg.sender */\n  0x0100\n  exp\n  dup2\n  sload\n  dup2\n  0xffffffffffffffffffffffffffffffffffffffff\n  mul\n  not\n  and\n  swap1\n  dup4\n  0xffffffffffffffffffffffffffffffffffffffff\n  and\n  mul\n  or\n  swap1\n  sstore\n  pop\n    /* \"contracts/myLearning/Bank.sol\":286:299  initialSupply */\n  dup1\n    /* \"contracts/myLearning/Bank.sol\":268:276  accounts */\n  0x01\n    /* \"contracts/myLearning/Bank.sol\":268:283  accounts[owner] */\n  0x00\n    /* \"contracts/myLearning/Bank.sol\":277:282  owner */\n  dup1\n  0x00\n  swap1\n  sload\n  swap1\n  0x0100\n  exp\n  swap1\n  div\n  0xffffffffffffffffffffffffffffffffffffffff\n  and\n    /* \"contracts/myLearning/Bank.sol\":268:283  accounts[owner] */\n  0xffffffffffffffffffffffffffffffffffffffff\n  and\n  0xffffffffffffffffffffffffffffffffffffffff\n  and\n  dup2\n  mstore\n  0x20\n  add\n  swap1\n  dup2\n  mstore\n  0x20\n  add\n  0x00\n  keccak256\n    /* \"contracts/myLearning/Bank.sol\":268:299  accounts[owner] = initialSupply */\n  dup2\n  swap1\n  sstore\n  pop\n    /* \"contracts/myLearning/Bank.sol\":324:337  initialSupply */\n  dup1\n    /* \"contracts/myLearning/Bank.sol\":310:321  totalSupply */\n  0x02\n    /* \"contracts/myLearning/Bank.sol\":310:337  totalSupply = initialSupply */\n  dup2\n  swap1\n  sstore\n  pop\n    /* \"contracts/myLearning/Bank.sol\":193:345  constructor(uint256 initialSupply) {\r... */\n  pop\n    /* \"contracts/myLearning/Bank.sol\":73:1003  contract Bank {\r... */\n  jump(tag_6)\n    /* \"#utility.yul\":7:150   */\ntag_8:\n    /* \"#utility.yul\":64:69   */\n  0x00\n    /* \"#utility.yul\":95:101   */\n  dup2\n    /* \"#utility.yul\":89:102   */\n  mload\n    /* \"#utility.yul\":80:102   */\n  swap1\n  pop\n    /* \"#utility.yul\":111:144   */\n  tag_10\n    /* \"#utility.yul\":138:143   */\n  dup2\n    /* \"#utility.yul\":111:144   */\n  tag_11\n  jump\t// in\ntag_10:\n    /* \"#utility.yul\":7:150   */\n  swap3\n  swap2\n  pop\n  pop\n  jump\t// out\n    /* \"#utility.yul\":156:507   */\ntag_3:\n    /* \"#utility.yul\":226:232   */\n  0x00\n    /* \"#utility.yul\":275:277   */\n  0x20\n    /* \"#utility.yul\":263:272   */\n  dup3\n    /* \"#utility.yul\":254:261   */\n  dup5\n    /* \"#utility.yul\":250:273   */\n  sub\n    /* \"#utility.yul\":246:278   */\n  slt\n    /* \"#utility.yul\":243:362   */\n  iszero\n  tag_13\n  jumpi\n    /* \"#utility.yul\":281:360   */\n  tag_14\n  tag_15\n  jump\t// in\ntag_14:\n    /* \"#utility.yul\":243:362   */\ntag_13:\n    /* \"#utility.yul\":401:402   */\n  0x00\n    /* \"#utility.yul\":426:490   */\n  tag_16\n    /* \"#utility.yul\":482:489   */\n  dup5\n    /* \"#utility.yul\":473:479   */\n  dup3\n    /* \"#utility.yul\":462:471   */\n  dup6\n    /* \"#utility.yul\":458:480   */\n  add\n    /* \"#utility.yul\":426:490   */\n  tag_8\n  jump\t// in\ntag_16:\n    /* \"#utility.yul\":416:490   */\n  swap2\n  pop\n    /* \"#utility.yul\":372:500   */\n  pop\n    /* \"#utility.yul\":156:507   */\n  swap3\n  swap2\n  pop\n  pop\n  jump\t// out\n    /* \"#utility.yul\":594:671   */\ntag_19:\n    /* \"#utility.yul\":631:638   */\n  0x00\n    /* \"#utility.yul\":660:665   */\n  dup2\n    /* \"#utility.yul\":649:665   */\n  swap1\n  pop\n    /* \"#utility.yul\":594:671   */\n  swap2\n  swap1\n  pop\n  jump\t// out\n    /* \"#utility.yul\":800:917   */\ntag_15:\n    /* \"#utility.yul\":909:910   */\n  0x00\n    /* \"#utility.yul\":906:907   */\n  dup1\n    /* \"#utility.yul\":899:911   */\n  revert\n    /* \"#utility.yul\":923:1045   */\ntag_11:\n    /* \"#utility.yul\":996:1020   */\n  tag_25\n    /* \"#utility.yul\":1014:1019   */\n  dup2\n    /* \"#utility.yul\":996:1020   */\n  tag_19\n  jump\t// in\ntag_25:\n    /* \"#utility.yul\":989:994   */\n  dup2\n    /* \"#utility.yul\":986:1021   */\n  eq\n    /* \"#utility.yul\":976:1039   */\n  tag_26\n  jumpi\n    /* \"#utility.yul\":1035:1036   */\n  0x00\n    /* \"#utility.yul\":1032:1033   */\n  dup1\n    /* \"#utility.yul\":1025:1037   */\n  revert\n    /* \"#utility.yul\":976:1039   */\ntag_26:\n    /* \"#utility.yul\":923:1045   */\n  pop\n  jump\t// out\n    /* \"contracts/myLearning/Bank.sol\":73:1003  contract Bank {\r... */\ntag_6:\n  dataSize(sub_0)\n  dup1\n  dataOffset(sub_0)\n  0x00\n  codecopy\n  0x00\n  return\nstop\n\nsub_0: assembly {\n        /* \"contracts/myLearning/Bank.sol\":73:1003  contract Bank {\r... */\n      mstore(0x40, 0x80)\n      callvalue\n      dup1\n      iszero\n      tag_1\n      jumpi\n      0x00\n      dup1\n      revert\n    tag_1:\n      pop\n      jumpi(tag_2, lt(calldatasize, 0x04))\n      shr(0xe0, calldataload(0x00))\n      dup1\n      0x2e1a7d4d\n      eq\n      tag_3\n      jumpi\n      dup1\n      0x5e5c06e2\n      eq\n      tag_4\n      jumpi\n      dup1\n      0x7274e6a0\n      eq\n      tag_5\n      jumpi\n      dup1\n      0x87838bf1\n      eq\n      tag_6\n      jumpi\n      dup1\n      0xa9059cbb\n      eq\n      tag_7\n      jumpi\n      dup1\n      0xb6b55f25\n      eq\n      tag_8\n      jumpi\n    tag_2:\n      0x00\n      dup1\n      revert\n        /* \"contracts/myLearning/Bank.sol\":445:530  function withdraw(uint money) public {\r... */\n    tag_3:\n      tag_9\n      0x04\n      dup1\n      calldatasize\n      sub\n      dup2\n      add\n      swap1\n      tag_10\n      swap2\n      swap1\n      tag_11\n      jump\t// in\n    tag_10:\n      tag_12\n      jump\t// in\n    tag_9:\n      stop\n        /* \"contracts/myLearning/Bank.sol\":114:158  mapping (address => uint256) public accounts */\n    tag_4:\n      tag_13\n      0x04\n      dup1\n      calldatasize\n      sub\n      dup2\n      add\n      swap1\n      tag_14\n      swap2\n      swap1\n      tag_15\n      jump\t// in\n    tag_14:\n      tag_16\n      jump\t// in\n    tag_13:\n      mload(0x40)\n      tag_17\n      swap2\n      swap1\n      tag_18\n      jump\t// in\n    tag_17:\n      mload(0x40)\n      dup1\n      swap2\n      sub\n      swap1\n      return\n        /* \"contracts/myLearning/Bank.sol\":900:992  function getInitialToken() view public returns(uint256){\r... */\n    tag_5:\n      tag_19\n      tag_20\n      jump\t// in\n    tag_19:\n      mload(0x40)\n      tag_21\n      swap2\n      swap1\n      tag_18\n      jump\t// in\n    tag_21:\n      mload(0x40)\n      dup1\n      swap2\n      sub\n      swap1\n      return\n        /* \"contracts/myLearning/Bank.sol\":788:892  function accountBal(address account) view public returns(uint) {\r... */\n    tag_6:\n      tag_22\n      0x04\n      dup1\n      calldatasize\n      sub\n      dup2\n      add\n      swap1\n      tag_23\n      swap2\n      swap1\n      tag_15\n      jump\t// in\n    tag_23:\n      tag_24\n      jump\t// in\n    tag_22:\n      mload(0x40)\n      tag_25\n      swap2\n      swap1\n      tag_18\n      jump\t// in\n    tag_25:\n      mload(0x40)\n      dup1\n      swap2\n      sub\n      swap1\n      return\n        /* \"contracts/myLearning/Bank.sol\":538:780  function transfer(address to, uint256 _value) public {\r... */\n    tag_7:\n      tag_26\n      0x04\n      dup1\n      calldatasize\n      sub\n      dup2\n      add\n      swap1\n      tag_27\n      swap2\n      swap1\n      tag_28\n      jump\t// in\n    tag_27:\n      tag_29\n      jump\t// in\n    tag_26:\n      stop\n        /* \"contracts/myLearning/Bank.sol\":353:437  function deposit(uint money) public {\r... */\n    tag_8:\n      tag_30\n      0x04\n      dup1\n      calldatasize\n      sub\n      dup2\n      add\n      swap1\n      tag_31\n      swap2\n      swap1\n      tag_11\n      jump\t// in\n    tag_31:\n      tag_32\n      jump\t// in\n    tag_30:\n      stop\n        /* \"contracts/myLearning/Bank.sol\":445:530  function withdraw(uint money) public {\r... */\n    tag_12:\n        /* \"contracts/myLearning/Bank.sol\":517:522  money */\n      dup1\n        /* \"contracts/myLearning/Bank.sol\":493:501  accounts */\n      0x01\n        /* \"contracts/myLearning/Bank.sol\":493:513  accounts[msg.sender] */\n      0x00\n        /* \"contracts/myLearning/Bank.sol\":502:512  msg.sender */\n      caller\n        /* \"contracts/myLearning/Bank.sol\":493:513  accounts[msg.sender] */\n      0xffffffffffffffffffffffffffffffffffffffff\n      and\n      0xffffffffffffffffffffffffffffffffffffffff\n      and\n      dup2\n      mstore\n      0x20\n      add\n      swap1\n      dup2\n      mstore\n      0x20\n      add\n      0x00\n      keccak256\n      0x00\n        /* \"contracts/myLearning/Bank.sol\":493:522  accounts[msg.sender] -= money */\n      dup3\n      dup3\n      sload\n      tag_34\n      swap2\n      swap1\n      tag_35\n      jump\t// in\n    tag_34:\n      swap3\n      pop\n      pop\n      dup2\n      swap1\n      sstore\n      pop\n        /* \"contracts/myLearning/Bank.sol\":445:530  function withdraw(uint money) public {\r... */\n      pop\n      jump\t// out\n        /* \"contracts/myLearning/Bank.sol\":114:158  mapping (address => uint256) public accounts */\n    tag_16:\n      mstore(0x20, 0x01)\n      dup1\n      0x00\n      mstore\n      keccak256(0x00, 0x40)\n      0x00\n      swap2\n      pop\n      swap1\n      pop\n      sload\n      dup2\n      jump\t// out\n        /* \"contracts/myLearning/Bank.sol\":900:992  function getInitialToken() view public returns(uint256){\r... */\n    tag_20:\n        /* \"contracts/myLearning/Bank.sol\":947:954  uint256 */\n      0x00\n        /* \"contracts/myLearning/Bank.sol\":973:984  totalSupply */\n      sload(0x02)\n        /* \"contracts/myLearning/Bank.sol\":966:984  return totalSupply */\n      swap1\n      pop\n        /* \"contracts/myLearning/Bank.sol\":900:992  function getInitialToken() view public returns(uint256){\r... */\n      swap1\n      jump\t// out\n        /* \"contracts/myLearning/Bank.sol\":788:892  function accountBal(address account) view public returns(uint) {\r... */\n    tag_24:\n        /* \"contracts/myLearning/Bank.sol\":845:849  uint */\n      0x00\n        /* \"contracts/myLearning/Bank.sol\":869:876  account */\n      dup2\n        /* \"contracts/myLearning/Bank.sol\":869:884  account.balance */\n      0xffffffffffffffffffffffffffffffffffffffff\n      and\n      balance\n        /* \"contracts/myLearning/Bank.sol\":862:884  return account.balance */\n      swap1\n      pop\n        /* \"contracts/myLearning/Bank.sol\":788:892  function accountBal(address account) view public returns(uint) {\r... */\n      swap2\n      swap1\n      pop\n      jump\t// out\n        /* \"contracts/myLearning/Bank.sol\":538:780  function transfer(address to, uint256 _value) public {\r... */\n    tag_29:\n        /* \"contracts/myLearning/Bank.sol\":634:640  _value */\n      dup1\n        /* \"contracts/myLearning/Bank.sol\":610:618  accounts */\n      0x01\n        /* \"contracts/myLearning/Bank.sol\":610:630  accounts[msg.sender] */\n      0x00\n        /* \"contracts/myLearning/Bank.sol\":619:629  msg.sender */\n      caller\n        /* \"contracts/myLearning/Bank.sol\":610:630  accounts[msg.sender] */\n      0xffffffffffffffffffffffffffffffffffffffff\n      and\n      0xffffffffffffffffffffffffffffffffffffffff\n      and\n      dup2\n      mstore\n      0x20\n      add\n      swap1\n      dup2\n      mstore\n      0x20\n      add\n      0x00\n      keccak256\n      sload\n        /* \"contracts/myLearning/Bank.sol\":610:640  accounts[msg.sender] >= _value */\n      lt\n      iszero\n        /* \"contracts/myLearning/Bank.sol\":602:641  require(accounts[msg.sender] >= _value) */\n      tag_39\n      jumpi\n      0x00\n      dup1\n      revert\n    tag_39:\n        /* \"contracts/myLearning/Bank.sol\":685:693  accounts */\n      0x01\n        /* \"contracts/myLearning/Bank.sol\":685:697  accounts[to] */\n      0x00\n        /* \"contracts/myLearning/Bank.sol\":694:696  to */\n      dup4\n        /* \"contracts/myLearning/Bank.sol\":685:697  accounts[to] */\n      0xffffffffffffffffffffffffffffffffffffffff\n      and\n      0xffffffffffffffffffffffffffffffffffffffff\n      and\n      dup2\n      mstore\n      0x20\n      add\n      swap1\n      dup2\n      mstore\n      0x20\n      add\n      0x00\n      keccak256\n      sload\n        /* \"contracts/myLearning/Bank.sol\":675:681  _value */\n      dup2\n        /* \"contracts/myLearning/Bank.sol\":660:668  accounts */\n      0x01\n        /* \"contracts/myLearning/Bank.sol\":660:672  accounts[to] */\n      0x00\n        /* \"contracts/myLearning/Bank.sol\":669:671  to */\n      dup6\n        /* \"contracts/myLearning/Bank.sol\":660:672  accounts[to] */\n      0xffffffffffffffffffffffffffffffffffffffff\n      and\n      0xffffffffffffffffffffffffffffffffffffffff\n      and\n      dup2\n      mstore\n      0x20\n      add\n      swap1\n      dup2\n      mstore\n      0x20\n      add\n      0x00\n      keccak256\n      sload\n        /* \"contracts/myLearning/Bank.sol\":660:681  accounts[to] + _value */\n      tag_40\n      swap2\n      swap1\n      tag_41\n      jump\t// in\n    tag_40:\n        /* \"contracts/myLearning/Bank.sol\":660:697  accounts[to] + _value >= accounts[to] */\n      lt\n      iszero\n        /* \"contracts/myLearning/Bank.sol\":652:698  require(accounts[to] + _value >= accounts[to]) */\n      tag_42\n      jumpi\n      0x00\n      dup1\n      revert\n    tag_42:\n        /* \"contracts/myLearning/Bank.sol\":733:739  _value */\n      dup1\n        /* \"contracts/myLearning/Bank.sol\":709:717  accounts */\n      0x01\n        /* \"contracts/myLearning/Bank.sol\":709:729  accounts[msg.sender] */\n      0x00\n        /* \"contracts/myLearning/Bank.sol\":718:728  msg.sender */\n      caller\n        /* \"contracts/myLearning/Bank.sol\":709:729  accounts[msg.sender] */\n      0xffffffffffffffffffffffffffffffffffffffff\n      and\n      0xffffffffffffffffffffffffffffffffffffffff\n      and\n      dup2\n      mstore\n      0x20\n      add\n      swap1\n      dup2\n      mstore\n      0x20\n      add\n      0x00\n      keccak256\n      0x00\n        /* \"contracts/myLearning/Bank.sol\":709:739  accounts[msg.sender] -= _value */\n      dup3\n      dup3\n      sload\n      tag_43\n      swap2\n      swap1\n      tag_35\n      jump\t// in\n    tag_43:\n      swap3\n      pop\n      pop\n      dup2\n      swap1\n      sstore\n      pop\n        /* \"contracts/myLearning/Bank.sol\":766:772  _value */\n      dup1\n        /* \"contracts/myLearning/Bank.sol\":750:758  accounts */\n      0x01\n        /* \"contracts/myLearning/Bank.sol\":750:762  accounts[to] */\n      0x00\n        /* \"contracts/myLearning/Bank.sol\":759:761  to */\n      dup5\n        /* \"contracts/myLearning/Bank.sol\":750:762  accounts[to] */\n      0xffffffffffffffffffffffffffffffffffffffff\n      and\n      0xffffffffffffffffffffffffffffffffffffffff\n      and\n      dup2\n      mstore\n      0x20\n      add\n      swap1\n      dup2\n      mstore\n      0x20\n      add\n      0x00\n      keccak256\n      0x00\n        /* \"contracts/myLearning/Bank.sol\":750:772  accounts[to] += _value */\n      dup3\n      dup3\n      sload\n      tag_44\n      swap2\n      swap1\n      tag_41\n      jump\t// in\n    tag_44:\n      swap3\n      pop\n      pop\n      dup2\n      swap1\n      sstore\n      pop\n        /* \"contracts/myLearning/Bank.sol\":538:780  function transfer(address to, uint256 _value) public {\r... */\n      pop\n      pop\n      jump\t// out\n        /* \"contracts/myLearning/Bank.sol\":353:437  function deposit(uint money) public {\r... */\n    tag_32:\n        /* \"contracts/myLearning/Bank.sol\":424:429  money */\n      dup1\n        /* \"contracts/myLearning/Bank.sol\":400:408  accounts */\n      0x01\n        /* \"contracts/myLearning/Bank.sol\":400:420  accounts[msg.sender] */\n      0x00\n        /* \"contracts/myLearning/Bank.sol\":409:419  msg.sender */\n      caller\n        /* \"contracts/myLearning/Bank.sol\":400:420  accounts[msg.sender] */\n      0xffffffffffffffffffffffffffffffffffffffff\n      and\n      0xffffffffffffffffffffffffffffffffffffffff\n      and\n      dup2\n      mstore\n      0x20\n      add\n      swap1\n      dup2\n      mstore\n      0x20\n      add\n      0x00\n      keccak256\n      0x00\n        /* \"contracts/myLearning/Bank.sol\":400:429  accounts[msg.sender] += money */\n      dup3\n      dup3\n      sload\n      tag_46\n      swap2\n      swap1\n      tag_41\n      jump\t// in\n    tag_46:\n      swap3\n      pop\n      pop\n      dup2\n      swap1\n      sstore\n      pop\n        /* \"contracts/myLearning/Bank.sol\":353:437  function deposit(uint money) public {\r... */\n      pop\n      jump\t// out\n        /* \"#utility.yul\":7:146   */\n    tag_48:\n        /* \"#utility.yul\":53:58   */\n      0x00\n        /* \"#utility.yul\":91:97   */\n      dup2\n        /* \"#utility.yul\":78:98   */\n      calldataload\n        /* \"#utility.yul\":69:98   */\n      swap1\n      pop\n        /* \"#utility.yul\":107:140   */\n      tag_50\n        /* \"#utility.yul\":134:139   */\n      dup2\n        /* \"#utility.yul\":107:140   */\n      tag_51\n      jump\t// in\n    tag_50:\n        /* \"#utility.yul\":7:146   */\n      swap3\n      swap2\n      pop\n      pop\n      jump\t// out\n        /* \"#utility.yul\":152:291   */\n    tag_52:\n        /* \"#utility.yul\":198:203   */\n      0x00\n        /* \"#utility.yul\":236:242   */\n      dup2\n        /* \"#utility.yul\":223:243   */\n      calldataload\n        /* \"#utility.yul\":214:243   */\n      swap1\n      pop\n        /* \"#utility.yul\":252:285   */\n      tag_54\n        /* \"#utility.yul\":279:284   */\n      dup2\n        /* \"#utility.yul\":252:285   */\n      tag_55\n      jump\t// in\n    tag_54:\n        /* \"#utility.yul\":152:291   */\n      swap3\n      swap2\n      pop\n      pop\n      jump\t// out\n        /* \"#utility.yul\":297:626   */\n    tag_15:\n        /* \"#utility.yul\":356:362   */\n      0x00\n        /* \"#utility.yul\":405:407   */\n      0x20\n        /* \"#utility.yul\":393:402   */\n      dup3\n        /* \"#utility.yul\":384:391   */\n      dup5\n        /* \"#utility.yul\":380:403   */\n      sub\n        /* \"#utility.yul\":376:408   */\n      slt\n        /* \"#utility.yul\":373:492   */\n      iszero\n      tag_57\n      jumpi\n        /* \"#utility.yul\":411:490   */\n      tag_58\n      tag_59\n      jump\t// in\n    tag_58:\n        /* \"#utility.yul\":373:492   */\n    tag_57:\n        /* \"#utility.yul\":531:532   */\n      0x00\n        /* \"#utility.yul\":556:609   */\n      tag_60\n        /* \"#utility.yul\":601:608   */\n      dup5\n        /* \"#utility.yul\":592:598   */\n      dup3\n        /* \"#utility.yul\":581:590   */\n      dup6\n        /* \"#utility.yul\":577:599   */\n      add\n        /* \"#utility.yul\":556:609   */\n      tag_48\n      jump\t// in\n    tag_60:\n        /* \"#utility.yul\":546:609   */\n      swap2\n      pop\n        /* \"#utility.yul\":502:619   */\n      pop\n        /* \"#utility.yul\":297:626   */\n      swap3\n      swap2\n      pop\n      pop\n      jump\t// out\n        /* \"#utility.yul\":632:1106   */\n    tag_28:\n        /* \"#utility.yul\":700:706   */\n      0x00\n        /* \"#utility.yul\":708:714   */\n      dup1\n        /* \"#utility.yul\":757:759   */\n      0x40\n        /* \"#utility.yul\":745:754   */\n      dup4\n        /* \"#utility.yul\":736:743   */\n      dup6\n        /* \"#utility.yul\":732:755   */\n      sub\n        /* \"#utility.yul\":728:760   */\n      slt\n        /* \"#utility.yul\":725:844   */\n      iszero\n      tag_62\n      jumpi\n        /* \"#utility.yul\":763:842   */\n      tag_63\n      tag_59\n      jump\t// in\n    tag_63:\n        /* \"#utility.yul\":725:844   */\n    tag_62:\n        /* \"#utility.yul\":883:884   */\n      0x00\n        /* \"#utility.yul\":908:961   */\n      tag_64\n        /* \"#utility.yul\":953:960   */\n      dup6\n        /* \"#utility.yul\":944:950   */\n      dup3\n        /* \"#utility.yul\":933:942   */\n      dup7\n        /* \"#utility.yul\":929:951   */\n      add\n        /* \"#utility.yul\":908:961   */\n      tag_48\n      jump\t// in\n    tag_64:\n        /* \"#utility.yul\":898:961   */\n      swap3\n      pop\n        /* \"#utility.yul\":854:971   */\n      pop\n        /* \"#utility.yul\":1010:1012   */\n      0x20\n        /* \"#utility.yul\":1036:1089   */\n      tag_65\n        /* \"#utility.yul\":1081:1088   */\n      dup6\n        /* \"#utility.yul\":1072:1078   */\n      dup3\n        /* \"#utility.yul\":1061:1070   */\n      dup7\n        /* \"#utility.yul\":1057:1079   */\n      add\n        /* \"#utility.yul\":1036:1089   */\n      tag_52\n      jump\t// in\n    tag_65:\n        /* \"#utility.yul\":1026:1089   */\n      swap2\n      pop\n        /* \"#utility.yul\":981:1099   */\n      pop\n        /* \"#utility.yul\":632:1106   */\n      swap3\n      pop\n      swap3\n      swap1\n      pop\n      jump\t// out\n        /* \"#utility.yul\":1112:1441   */\n    tag_11:\n        /* \"#utility.yul\":1171:1177   */\n      0x00\n        /* \"#utility.yul\":1220:1222   */\n      0x20\n        /* \"#utility.yul\":1208:1217   */\n      dup3\n        /* \"#utility.yul\":1199:1206   */\n      dup5\n        /* \"#utility.yul\":1195:1218   */\n      sub\n        /* \"#utility.yul\":1191:1223   */\n      slt\n        /* \"#utility.yul\":1188:1307   */\n      iszero\n      tag_67\n      jumpi\n        /* \"#utility.yul\":1226:1305   */\n      tag_68\n      tag_59\n      jump\t// in\n    tag_68:\n        /* \"#utility.yul\":1188:1307   */\n    tag_67:\n        /* \"#utility.yul\":1346:1347   */\n      0x00\n        /* \"#utility.yul\":1371:1424   */\n      tag_69\n        /* \"#utility.yul\":1416:1423   */\n      dup5\n        /* \"#utility.yul\":1407:1413   */\n      dup3\n        /* \"#utility.yul\":1396:1405   */\n      dup6\n        /* \"#utility.yul\":1392:1414   */\n      add\n        /* \"#utility.yul\":1371:1424   */\n      tag_52\n      jump\t// in\n    tag_69:\n        /* \"#utility.yul\":1361:1424   */\n      swap2\n      pop\n        /* \"#utility.yul\":1317:1434   */\n      pop\n        /* \"#utility.yul\":1112:1441   */\n      swap3\n      swap2\n      pop\n      pop\n      jump\t// out\n        /* \"#utility.yul\":1447:1565   */\n    tag_70:\n        /* \"#utility.yul\":1534:1558   */\n      tag_72\n        /* \"#utility.yul\":1552:1557   */\n      dup2\n        /* \"#utility.yul\":1534:1558   */\n      tag_73\n      jump\t// in\n    tag_72:\n        /* \"#utility.yul\":1529:1532   */\n      dup3\n        /* \"#utility.yul\":1522:1559   */\n      mstore\n        /* \"#utility.yul\":1447:1565   */\n      pop\n      pop\n      jump\t// out\n        /* \"#utility.yul\":1571:1793   */\n    tag_18:\n        /* \"#utility.yul\":1664:1668   */\n      0x00\n        /* \"#utility.yul\":1702:1704   */\n      0x20\n        /* \"#utility.yul\":1691:1700   */\n      dup3\n        /* \"#utility.yul\":1687:1705   */\n      add\n        /* \"#utility.yul\":1679:1705   */\n      swap1\n      pop\n        /* \"#utility.yul\":1715:1786   */\n      tag_75\n        /* \"#utility.yul\":1783:1784   */\n      0x00\n        /* \"#utility.yul\":1772:1781   */\n      dup4\n        /* \"#utility.yul\":1768:1785   */\n      add\n        /* \"#utility.yul\":1759:1765   */\n      dup5\n        /* \"#utility.yul\":1715:1786   */\n      tag_70\n      jump\t// in\n    tag_75:\n        /* \"#utility.yul\":1571:1793   */\n      swap3\n      swap2\n      pop\n      pop\n      jump\t// out\n        /* \"#utility.yul\":1880:2185   */\n    tag_41:\n        /* \"#utility.yul\":1920:1923   */\n      0x00\n        /* \"#utility.yul\":1939:1959   */\n      tag_79\n        /* \"#utility.yul\":1957:1958   */\n      dup3\n        /* \"#utility.yul\":1939:1959   */\n      tag_73\n      jump\t// in\n    tag_79:\n        /* \"#utility.yul\":1934:1959   */\n      swap2\n      pop\n        /* \"#utility.yul\":1973:1993   */\n      tag_80\n        /* \"#utility.yul\":1991:1992   */\n      dup4\n        /* \"#utility.yul\":1973:1993   */\n      tag_73\n      jump\t// in\n    tag_80:\n        /* \"#utility.yul\":1968:1993   */\n      swap3\n      pop\n        /* \"#utility.yul\":2127:2128   */\n      dup3\n        /* \"#utility.yul\":2059:2125   */\n      0xffffffffffffffffffffffffffffffffffffffffffffffffffffffffffffffff\n        /* \"#utility.yul\":2055:2129   */\n      sub\n        /* \"#utility.yul\":2052:2053   */\n      dup3\n        /* \"#utility.yul\":2049:2130   */\n      gt\n        /* \"#utility.yul\":2046:2153   */\n      iszero\n      tag_81\n      jumpi\n        /* \"#utility.yul\":2133:2151   */\n      tag_82\n      tag_83\n      jump\t// in\n    tag_82:\n        /* \"#utility.yul\":2046:2153   */\n    tag_81:\n        /* \"#utility.yul\":2177:2178   */\n      dup3\n        /* \"#utility.yul\":2174:2175   */\n      dup3\n        /* \"#utility.yul\":2170:2179   */\n      add\n        /* \"#utility.yul\":2163:2179   */\n      swap1\n      pop\n        /* \"#utility.yul\":1880:2185   */\n      swap3\n      swap2\n      pop\n      pop\n      jump\t// out\n        /* \"#utility.yul\":2191:2382   */\n    tag_35:\n        /* \"#utility.yul\":2231:2235   */\n      0x00\n        /* \"#utility.yul\":2251:2271   */\n      tag_85\n        /* \"#utility.yul\":2269:2270   */\n      dup3\n        /* \"#utility.yul\":2251:2271   */\n      tag_73\n      jump\t// in\n    tag_85:\n        /* \"#utility.yul\":2246:2271   */\n      swap2\n      pop\n        /* \"#utility.yul\":2285:2305   */\n      tag_86\n        /* \"#utility.yul\":2303:2304   */\n      dup4\n        /* \"#utility.yul\":2285:2305   */\n      tag_73\n      jump\t// in\n    tag_86:\n        /* \"#utility.yul\":2280:2305   */\n      swap3\n      pop\n        /* \"#utility.yul\":2324:2325   */\n      dup3\n        /* \"#utility.yul\":2321:2322   */\n      dup3\n        /* \"#utility.yul\":2318:2326   */\n      lt\n        /* \"#utility.yul\":2315:2349   */\n      iszero\n      tag_87\n      jumpi\n        /* \"#utility.yul\":2329:2347   */\n      tag_88\n      tag_83\n      jump\t// in\n    tag_88:\n        /* \"#utility.yul\":2315:2349   */\n    tag_87:\n        /* \"#utility.yul\":2374:2375   */\n      dup3\n        /* \"#utility.yul\":2371:2372   */\n      dup3\n        /* \"#utility.yul\":2367:2376   */\n      sub\n        /* \"#utility.yul\":2359:2376   */\n      swap1\n      pop\n        /* \"#utility.yul\":2191:2382   */\n      swap3\n      swap2\n      pop\n      pop\n      jump\t// out\n        /* \"#utility.yul\":2388:2484   */\n    tag_89:\n        /* \"#utility.yul\":2425:2432   */\n      0x00\n        /* \"#utility.yul\":2454:2478   */\n      tag_91\n        /* \"#utility.yul\":2472:2477   */\n      dup3\n        /* \"#utility.yul\":2454:2478   */\n      tag_92\n      jump\t// in\n    tag_91:\n        /* \"#utility.yul\":2443:2478   */\n      swap1\n      pop\n        /* \"#utility.yul\":2388:2484   */\n      swap2\n      swap1\n      pop\n      jump\t// out\n        /* \"#utility.yul\":2490:2616   */\n    tag_92:\n        /* \"#utility.yul\":2527:2534   */\n      0x00\n        /* \"#utility.yul\":2567:2609   */\n      0xffffffffffffffffffffffffffffffffffffffff\n        /* \"#utility.yul\":2560:2565   */\n      dup3\n        /* \"#utility.yul\":2556:2610   */\n      and\n        /* \"#utility.yul\":2545:2610   */\n      swap1\n      pop\n        /* \"#utility.yul\":2490:2616   */\n      swap2\n      swap1\n      pop\n      jump\t// out\n        /* \"#utility.yul\":2622:2699   */\n    tag_73:\n        /* \"#utility.yul\":2659:2666   */\n      0x00\n        /* \"#utility.yul\":2688:2693   */\n      dup2\n        /* \"#utility.yul\":2677:2693   */\n      swap1\n      pop\n        /* \"#utility.yul\":2622:2699   */\n      swap2\n      swap1\n      pop\n      jump\t// out\n        /* \"#utility.yul\":2705:2885   */\n    tag_83:\n        /* \"#utility.yul\":2753:2830   */\n      0x4e487b7100000000000000000000000000000000000000000000000000000000\n        /* \"#utility.yul\":2750:2751   */\n      0x00\n        /* \"#utility.yul\":2743:2831   */\n      mstore\n        /* \"#utility.yul\":2850:2854   */\n      0x11\n        /* \"#utility.yul\":2847:2848   */\n      0x04\n        /* \"#utility.yul\":2840:2855   */\n      mstore\n        /* \"#utility.yul\":2874:2878   */\n      0x24\n        /* \"#utility.yul\":2871:2872   */\n      0x00\n        /* \"#utility.yul\":2864:2879   */\n      revert\n        /* \"#utility.yul\":3014:3131   */\n    tag_59:\n        /* \"#utility.yul\":3123:3124   */\n      0x00\n        /* \"#utility.yul\":3120:3121   */\n      dup1\n        /* \"#utility.yul\":3113:3125   */\n      revert\n        /* \"#utility.yul\":3137:3259   */\n    tag_51:\n        /* \"#utility.yul\":3210:3234   */\n      tag_100\n        /* \"#utility.yul\":3228:3233   */\n      dup2\n        /* \"#utility.yul\":3210:3234   */\n      tag_89\n      jump\t// in\n    tag_100:\n        /* \"#utility.yul\":3203:3208   */\n      dup2\n        /* \"#utility.yul\":3200:3235   */\n      eq\n        /* \"#utility.yul\":3190:3253   */\n      tag_101\n      jumpi\n        /* \"#utility.yul\":3249:3250   */\n      0x00\n        /* \"#utility.yul\":3246:3247   */\n      dup1\n        /* \"#utility.yul\":3239:3251   */\n      revert\n        /* \"#utility.yul\":3190:3253   */\n    tag_101:\n        /* \"#utility.yul\":3137:3259   */\n      pop\n      jump\t// out\n        /* \"#utility.yul\":3265:3387   */\n    tag_55:\n        /* \"#utility.yul\":3338:3362   */\n      tag_103\n        /* \"#utility.yul\":3356:3361   */\n      dup2\n        /* \"#utility.yul\":3338:3362   */\n      tag_73\n      jump\t// in\n    tag_103:\n        /* \"#utility.yul\":3331:3336   */\n      dup2\n        /* \"#utility.yul\":3328:3363   */\n      eq\n        /* \"#utility.yul\":3318:3381   */\n      tag_104\n      jumpi\n        /* \"#utility.yul\":3377:3378   */\n      0x00\n        /* \"#utility.yul\":3374:3375   */\n      dup1\n        /* \"#utility.yul\":3367:3379   */\n      revert\n        /* \"#utility.yul\":3318:3381   */\n    tag_104:\n        /* \"#utility.yul\":3265:3387   */\n      pop\n      jump\t// out\n\n    auxdata: 0xa2646970667358221220eecc6e1f4d455b7c6f57f83a7ac8ad82c0f4e7c4f15fccb9a0a217385a814e3864736f6c63430008070033\n}\n",
				"bytecode": {
					"linkReferences": {},
					"object": "608060405234801561001057600080fd5b50604051610767380380610767833981810160405281019061003291906100f9565b336000806101000a81548173ffffffffffffffffffffffffffffffffffffffff021916908373ffffffffffffffffffffffffffffffffffffffff16021790555080600160008060009054906101000a900473ffffffffffffffffffffffffffffffffffffffff1673ffffffffffffffffffffffffffffffffffffffff1673ffffffffffffffffffffffffffffffffffffffff16815260200190815260200160002081905550806002819055505061014c565b6000815190506100f381610135565b92915050565b60006020828403121561010f5761010e610130565b5b600061011d848285016100e4565b91505092915050565b6000819050919050565b600080fd5b61013e81610126565b811461014957600080fd5b50565b61060c8061015b6000396000f3fe608060405234801561001057600080fd5b50600436106100625760003560e01c80632e1a7d4d146100675780635e5c06e2146100835780637274e6a0146100b357806387838bf1146100d1578063a9059cbb14610101578063b6b55f251461011d575b600080fd5b610081600480360381019061007c9190610457565b610139565b005b61009d600480360381019061009891906103ea565b610192565b6040516100aa9190610493565b60405180910390f35b6100bb6101aa565b6040516100c89190610493565b60405180910390f35b6100eb60048036038101906100e691906103ea565b6101b4565b6040516100f89190610493565b60405180910390f35b61011b60048036038101906101169190610417565b6101d5565b005b61013760048036038101906101329190610457565b610367565b005b80600160003373ffffffffffffffffffffffffffffffffffffffff1673ffffffffffffffffffffffffffffffffffffffff16815260200190815260200160002060008282546101889190610504565b9250508190555050565b60016020528060005260406000206000915090505481565b6000600254905090565b60008173ffffffffffffffffffffffffffffffffffffffff16319050919050565b80600160003373ffffffffffffffffffffffffffffffffffffffff1673ffffffffffffffffffffffffffffffffffffffff16815260200190815260200160002054101561022157600080fd5b600160008373ffffffffffffffffffffffffffffffffffffffff1673ffffffffffffffffffffffffffffffffffffffff1681526020019081526020016000205481600160008573ffffffffffffffffffffffffffffffffffffffff1673ffffffffffffffffffffffffffffffffffffffff168152602001908152602001600020546102ac91906104ae565b10156102b757600080fd5b80600160003373ffffffffffffffffffffffffffffffffffffffff1673ffffffffffffffffffffffffffffffffffffffff16815260200190815260200160002060008282546103069190610504565b9250508190555080600160008473ffffffffffffffffffffffffffffffffffffffff1673ffffffffffffffffffffffffffffffffffffffff168152602001908152602001600020600082825461035c91906104ae565b925050819055505050565b80600160003373ffffffffffffffffffffffffffffffffffffffff1673ffffffffffffffffffffffffffffffffffffffff16815260200190815260200160002060008282546103b691906104ae565b9250508190555050565b6000813590506103cf816105a8565b92915050565b6000813590506103e4816105bf565b92915050565b600060208284031215610400576103ff6105a3565b5b600061040e848285016103c0565b91505092915050565b6000806040838503121561042e5761042d6105a3565b5b600061043c858286016103c0565b925050602061044d858286016103d5565b9150509250929050565b60006020828403121561046d5761046c6105a3565b5b600061047b848285016103d5565b91505092915050565b61048d8161056a565b82525050565b60006020820190506104a86000830184610484565b92915050565b60006104b98261056a565b91506104c48361056a565b9250827fffffffffffffffffffffffffffffffffffffffffffffffffffffffffffffffff038211156104f9576104f8610574565b5b828201905092915050565b600061050f8261056a565b915061051a8361056a565b92508282101561052d5761052c610574565b5b828203905092915050565b60006105438261054a565b9050919050565b600073ffffffffffffffffffffffffffffffffffffffff82169050919050565b6000819050919050565b7f4e487b7100000000000000000000000000000000000000000000000000000000600052601160045260246000fd5b600080fd5b6105b181610538565b81146105bc57600080fd5b50565b6105c88161056a565b81146105d357600080fd5b5056fea2646970667358221220eecc6e1f4d455b7c6f57f83a7ac8ad82c0f4e7c4f15fccb9a0a217385a814e3864736f6c63430008070033",
					"opcodes": "PUSH1 0x80 PUSH1 0x40 MSTORE CALLVALUE DUP1 ISZERO PUSH2 0x10 JUMPI PUSH1 0x0 DUP1 REVERT JUMPDEST POP PUSH1 0x40 MLOAD PUSH2 0x767 CODESIZE SUB DUP1 PUSH2 0x767 DUP4 CODECOPY DUP2 DUP2 ADD PUSH1 0x40 MSTORE DUP2 ADD SWAP1 PUSH2 0x32 SWAP2 SWAP1 PUSH2 0xF9 JUMP JUMPDEST CALLER PUSH1 0x0 DUP1 PUSH2 0x100 EXP DUP2 SLOAD DUP2 PUSH20 0xFFFFFFFFFFFFFFFFFFFFFFFFFFFFFFFFFFFFFFFF MUL NOT AND SWAP1 DUP4 PUSH20 0xFFFFFFFFFFFFFFFFFFFFFFFFFFFFFFFFFFFFFFFF AND MUL OR SWAP1 SSTORE POP DUP1 PUSH1 0x1 PUSH1 0x0 DUP1 PUSH1 0x0 SWAP1 SLOAD SWAP1 PUSH2 0x100 EXP SWAP1 DIV PUSH20 0xFFFFFFFFFFFFFFFFFFFFFFFFFFFFFFFFFFFFFFFF AND PUSH20 0xFFFFFFFFFFFFFFFFFFFFFFFFFFFFFFFFFFFFFFFF AND PUSH20 0xFFFFFFFFFFFFFFFFFFFFFFFFFFFFFFFFFFFFFFFF AND DUP2 MSTORE PUSH1 0x20 ADD SWAP1 DUP2 MSTORE PUSH1 0x20 ADD PUSH1 0x0 KECCAK256 DUP2 SWAP1 SSTORE POP DUP1 PUSH1 0x2 DUP2 SWAP1 SSTORE POP POP PUSH2 0x14C JUMP JUMPDEST PUSH1 0x0 DUP2 MLOAD SWAP1 POP PUSH2 0xF3 DUP2 PUSH2 0x135 JUMP JUMPDEST SWAP3 SWAP2 POP POP JUMP JUMPDEST PUSH1 0x0 PUSH1 0x20 DUP3 DUP5 SUB SLT ISZERO PUSH2 0x10F JUMPI PUSH2 0x10E PUSH2 0x130 JUMP JUMPDEST JUMPDEST PUSH1 0x0 PUSH2 0x11D DUP5 DUP3 DUP6 ADD PUSH2 0xE4 JUMP JUMPDEST SWAP2 POP POP SWAP3 SWAP2 POP POP JUMP JUMPDEST PUSH1 0x0 DUP2 SWAP1 POP SWAP2 SWAP1 POP JUMP JUMPDEST PUSH1 0x0 DUP1 REVERT JUMPDEST PUSH2 0x13E DUP2 PUSH2 0x126 JUMP JUMPDEST DUP2 EQ PUSH2 0x149 JUMPI PUSH1 0x0 DUP1 REVERT JUMPDEST POP JUMP JUMPDEST PUSH2 0x60C DUP1 PUSH2 0x15B PUSH1 0x0 CODECOPY PUSH1 0x0 RETURN INVALID PUSH1 0x80 PUSH1 0x40 MSTORE CALLVALUE DUP1 ISZERO PUSH2 0x10 JUMPI PUSH1 0x0 DUP1 REVERT JUMPDEST POP PUSH1 0x4 CALLDATASIZE LT PUSH2 0x62 JUMPI PUSH1 0x0 CALLDATALOAD PUSH1 0xE0 SHR DUP1 PUSH4 0x2E1A7D4D EQ PUSH2 0x67 JUMPI DUP1 PUSH4 0x5E5C06E2 EQ PUSH2 0x83 JUMPI DUP1 PUSH4 0x7274E6A0 EQ PUSH2 0xB3 JUMPI DUP1 PUSH4 0x87838BF1 EQ PUSH2 0xD1 JUMPI DUP1 PUSH4 0xA9059CBB EQ PUSH2 0x101 JUMPI DUP1 PUSH4 0xB6B55F25 EQ PUSH2 0x11D JUMPI JUMPDEST PUSH1 0x0 DUP1 REVERT JUMPDEST PUSH2 0x81 PUSH1 0x4 DUP1 CALLDATASIZE SUB DUP2 ADD SWAP1 PUSH2 0x7C SWAP2 SWAP1 PUSH2 0x457 JUMP JUMPDEST PUSH2 0x139 JUMP JUMPDEST STOP JUMPDEST PUSH2 0x9D PUSH1 0x4 DUP1 CALLDATASIZE SUB DUP2 ADD SWAP1 PUSH2 0x98 SWAP2 SWAP1 PUSH2 0x3EA JUMP JUMPDEST PUSH2 0x192 JUMP JUMPDEST PUSH1 0x40 MLOAD PUSH2 0xAA SWAP2 SWAP1 PUSH2 0x493 JUMP JUMPDEST PUSH1 0x40 MLOAD DUP1 SWAP2 SUB SWAP1 RETURN JUMPDEST PUSH2 0xBB PUSH2 0x1AA JUMP JUMPDEST PUSH1 0x40 MLOAD PUSH2 0xC8 SWAP2 SWAP1 PUSH2 0x493 JUMP JUMPDEST PUSH1 0x40 MLOAD DUP1 SWAP2 SUB SWAP1 RETURN JUMPDEST PUSH2 0xEB PUSH1 0x4 DUP1 CALLDATASIZE SUB DUP2 ADD SWAP1 PUSH2 0xE6 SWAP2 SWAP1 PUSH2 0x3EA JUMP JUMPDEST PUSH2 0x1B4 JUMP JUMPDEST PUSH1 0x40 MLOAD PUSH2 0xF8 SWAP2 SWAP1 PUSH2 0x493 JUMP JUMPDEST PUSH1 0x40 MLOAD DUP1 SWAP2 SUB SWAP1 RETURN JUMPDEST PUSH2 0x11B PUSH1 0x4 DUP1 CALLDATASIZE SUB DUP2 ADD SWAP1 PUSH2 0x116 SWAP2 SWAP1 PUSH2 0x417 JUMP JUMPDEST PUSH2 0x1D5 JUMP JUMPDEST STOP JUMPDEST PUSH2 0x137 PUSH1 0x4 DUP1 CALLDATASIZE SUB DUP2 ADD SWAP1 PUSH2 0x132 SWAP2 SWAP1 PUSH2 0x457 JUMP JUMPDEST PUSH2 0x367 JUMP JUMPDEST STOP JUMPDEST DUP1 PUSH1 0x1 PUSH1 0x0 CALLER PUSH20 0xFFFFFFFFFFFFFFFFFFFFFFFFFFFFFFFFFFFFFFFF AND PUSH20 0xFFFFFFFFFFFFFFFFFFFFFFFFFFFFFFFFFFFFFFFF AND DUP2 MSTORE PUSH1 0x20 ADD SWAP1 DUP2 MSTORE PUSH1 0x20 ADD PUSH1 0x0 KECCAK256 PUSH1 0x0 DUP3 DUP3 SLOAD PUSH2 0x188 SWAP2 SWAP1 PUSH2 0x504 JUMP JUMPDEST SWAP3 POP POP DUP2 SWAP1 SSTORE POP POP JUMP JUMPDEST PUSH1 0x1 PUSH1 0x20 MSTORE DUP1 PUSH1 0x0 MSTORE PUSH1 0x40 PUSH1 0x0 KECCAK256 PUSH1 0x0 SWAP2 POP SWAP1 POP SLOAD DUP2 JUMP JUMPDEST PUSH1 0x0 PUSH1 0x2 SLOAD SWAP1 POP SWAP1 JUMP JUMPDEST PUSH1 0x0 DUP2 PUSH20 0xFFFFFFFFFFFFFFFFFFFFFFFFFFFFFFFFFFFFFFFF AND BALANCE SWAP1 POP SWAP2 SWAP1 POP JUMP JUMPDEST DUP1 PUSH1 0x1 PUSH1 0x0 CALLER PUSH20 0xFFFFFFFFFFFFFFFFFFFFFFFFFFFFFFFFFFFFFFFF AND PUSH20 0xFFFFFFFFFFFFFFFFFFFFFFFFFFFFFFFFFFFFFFFF AND DUP2 MSTORE PUSH1 0x20 ADD SWAP1 DUP2 MSTORE PUSH1 0x20 ADD PUSH1 0x0 KECCAK256 SLOAD LT ISZERO PUSH2 0x221 JUMPI PUSH1 0x0 DUP1 REVERT JUMPDEST PUSH1 0x1 PUSH1 0x0 DUP4 PUSH20 0xFFFFFFFFFFFFFFFFFFFFFFFFFFFFFFFFFFFFFFFF AND PUSH20 0xFFFFFFFFFFFFFFFFFFFFFFFFFFFFFFFFFFFFFFFF AND DUP2 MSTORE PUSH1 0x20 ADD SWAP1 DUP2 MSTORE PUSH1 0x20 ADD PUSH1 0x0 KECCAK256 SLOAD DUP2 PUSH1 0x1 PUSH1 0x0 DUP6 PUSH20 0xFFFFFFFFFFFFFFFFFFFFFFFFFFFFFFFFFFFFFFFF AND PUSH20 0xFFFFFFFFFFFFFFFFFFFFFFFFFFFFFFFFFFFFFFFF AND DUP2 MSTORE PUSH1 0x20 ADD SWAP1 DUP2 MSTORE PUSH1 0x20 ADD PUSH1 0x0 KECCAK256 SLOAD PUSH2 0x2AC SWAP2 SWAP1 PUSH2 0x4AE JUMP JUMPDEST LT ISZERO PUSH2 0x2B7 JUMPI PUSH1 0x0 DUP1 REVERT JUMPDEST DUP1 PUSH1 0x1 PUSH1 0x0 CALLER PUSH20 0xFFFFFFFFFFFFFFFFFFFFFFFFFFFFFFFFFFFFFFFF AND PUSH20 0xFFFFFFFFFFFFFFFFFFFFFFFFFFFFFFFFFFFFFFFF AND DUP2 MSTORE PUSH1 0x20 ADD SWAP1 DUP2 MSTORE PUSH1 0x20 ADD PUSH1 0x0 KECCAK256 PUSH1 0x0 DUP3 DUP3 SLOAD PUSH2 0x306 SWAP2 SWAP1 PUSH2 0x504 JUMP JUMPDEST SWAP3 POP POP DUP2 SWAP1 SSTORE POP DUP1 PUSH1 0x1 PUSH1 0x0 DUP5 PUSH20 0xFFFFFFFFFFFFFFFFFFFFFFFFFFFFFFFFFFFFFFFF AND PUSH20 0xFFFFFFFFFFFFFFFFFFFFFFFFFFFFFFFFFFFFFFFF AND DUP2 MSTORE PUSH1 0x20 ADD SWAP1 DUP2 MSTORE PUSH1 0x20 ADD PUSH1 0x0 KECCAK256 PUSH1 0x0 DUP3 DUP3 SLOAD PUSH2 0x35C SWAP2 SWAP1 PUSH2 0x4AE JUMP JUMPDEST SWAP3 POP POP DUP2 SWAP1 SSTORE POP POP POP JUMP JUMPDEST DUP1 PUSH1 0x1 PUSH1 0x0 CALLER PUSH20 0xFFFFFFFFFFFFFFFFFFFFFFFFFFFFFFFFFFFFFFFF AND PUSH20 0xFFFFFFFFFFFFFFFFFFFFFFFFFFFFFFFFFFFFFFFF AND DUP2 MSTORE PUSH1 0x20 ADD SWAP1 DUP2 MSTORE PUSH1 0x20 ADD PUSH1 0x0 KECCAK256 PUSH1 0x0 DUP3 DUP3 SLOAD PUSH2 0x3B6 SWAP2 SWAP1 PUSH2 0x4AE JUMP JUMPDEST SWAP3 POP POP DUP2 SWAP1 SSTORE POP POP JUMP JUMPDEST PUSH1 0x0 DUP2 CALLDATALOAD SWAP1 POP PUSH2 0x3CF DUP2 PUSH2 0x5A8 JUMP JUMPDEST SWAP3 SWAP2 POP POP JUMP JUMPDEST PUSH1 0x0 DUP2 CALLDATALOAD SWAP1 POP PUSH2 0x3E4 DUP2 PUSH2 0x5BF JUMP JUMPDEST SWAP3 SWAP2 POP POP JUMP JUMPDEST PUSH1 0x0 PUSH1 0x20 DUP3 DUP5 SUB SLT ISZERO PUSH2 0x400 JUMPI PUSH2 0x3FF PUSH2 0x5A3 JUMP JUMPDEST JUMPDEST PUSH1 0x0 PUSH2 0x40E DUP5 DUP3 DUP6 ADD PUSH2 0x3C0 JUMP JUMPDEST SWAP2 POP POP SWAP3 SWAP2 POP POP JUMP JUMPDEST PUSH1 0x0 DUP1 PUSH1 0x40 DUP4 DUP6 SUB SLT ISZERO PUSH2 0x42E JUMPI PUSH2 0x42D PUSH2 0x5A3 JUMP JUMPDEST JUMPDEST PUSH1 0x0 PUSH2 0x43C DUP6 DUP3 DUP7 ADD PUSH2 0x3C0 JUMP JUMPDEST SWAP3 POP POP PUSH1 0x20 PUSH2 0x44D DUP6 DUP3 DUP7 ADD PUSH2 0x3D5 JUMP JUMPDEST SWAP2 POP POP SWAP3 POP SWAP3 SWAP1 POP JUMP JUMPDEST PUSH1 0x0 PUSH1 0x20 DUP3 DUP5 SUB SLT ISZERO PUSH2 0x46D JUMPI PUSH2 0x46C PUSH2 0x5A3 JUMP JUMPDEST JUMPDEST PUSH1 0x0 PUSH2 0x47B DUP5 DUP3 DUP6 ADD PUSH2 0x3D5 JUMP JUMPDEST SWAP2 POP POP SWAP3 SWAP2 POP POP JUMP JUMPDEST PUSH2 0x48D DUP2 PUSH2 0x56A JUMP JUMPDEST DUP3 MSTORE POP POP JUMP JUMPDEST PUSH1 0x0 PUSH1 0x20 DUP3 ADD SWAP1 POP PUSH2 0x4A8 PUSH1 0x0 DUP4 ADD DUP5 PUSH2 0x484 JUMP JUMPDEST SWAP3 SWAP2 POP POP JUMP JUMPDEST PUSH1 0x0 PUSH2 0x4B9 DUP3 PUSH2 0x56A JUMP JUMPDEST SWAP2 POP PUSH2 0x4C4 DUP4 PUSH2 0x56A JUMP JUMPDEST SWAP3 POP DUP3 PUSH32 0xFFFFFFFFFFFFFFFFFFFFFFFFFFFFFFFFFFFFFFFFFFFFFFFFFFFFFFFFFFFFFFFF SUB DUP3 GT ISZERO PUSH2 0x4F9 JUMPI PUSH2 0x4F8 PUSH2 0x574 JUMP JUMPDEST JUMPDEST DUP3 DUP3 ADD SWAP1 POP SWAP3 SWAP2 POP POP JUMP JUMPDEST PUSH1 0x0 PUSH2 0x50F DUP3 PUSH2 0x56A JUMP JUMPDEST SWAP2 POP PUSH2 0x51A DUP4 PUSH2 0x56A JUMP JUMPDEST SWAP3 POP DUP3 DUP3 LT ISZERO PUSH2 0x52D JUMPI PUSH2 0x52C PUSH2 0x574 JUMP JUMPDEST JUMPDEST DUP3 DUP3 SUB SWAP1 POP SWAP3 SWAP2 POP POP JUMP JUMPDEST PUSH1 0x0 PUSH2 0x543 DUP3 PUSH2 0x54A JUMP JUMPDEST SWAP1 POP SWAP2 SWAP1 POP JUMP JUMPDEST PUSH1 0x0 PUSH20 0xFFFFFFFFFFFFFFFFFFFFFFFFFFFFFFFFFFFFFFFF DUP3 AND SWAP1 POP SWAP2 SWAP1 POP JUMP JUMPDEST PUSH1 0x0 DUP2 SWAP1 POP SWAP2 SWAP1 POP JUMP JUMPDEST PUSH32 0x4E487B7100000000000000000000000000000000000000000000000000000000 PUSH1 0x0 MSTORE PUSH1 0x11 PUSH1 0x4 MSTORE PUSH1 0x24 PUSH1 0x0 REVERT JUMPDEST PUSH1 0x0 DUP1 REVERT JUMPDEST PUSH2 0x5B1 DUP2 PUSH2 0x538 JUMP JUMPDEST DUP2 EQ PUSH2 0x5BC JUMPI PUSH1 0x0 DUP1 REVERT JUMPDEST POP JUMP JUMPDEST PUSH2 0x5C8 DUP2 PUSH2 0x56A JUMP JUMPDEST DUP2 EQ PUSH2 0x5D3 JUMPI PUSH1 0x0 DUP1 REVERT JUMPDEST POP JUMP INVALID LOG2 PUSH5 0x6970667358 0x22 SLT KECCAK256 0xEE 0xCC PUSH15 0x1F4D455B7C6F57F83A7AC8AD82C0F4 0xE7 0xC4 CALL 0x5F 0xCC 0xB9 LOG0 LOG2 OR CODESIZE GAS DUP2 0x4E CODESIZE PUSH5 0x736F6C6343 STOP ADDMOD SMOD STOP CALLER "
				},
				"gasEstimates": {
					"creation": {
						"codeDepositCost": "309600",
						"executionCost": "infinite",
						"totalCost": "infinite"
					},
					"external": {
						"accountBal(address)": "3301",
						"accounts(address)": "2814",
						"deposit(uint256)": "infinite",
						"getInitialToken()": "2459",
						"transfer(address,uint256)": "infinite",
						"withdraw(uint256)": "infinite"
					}
				},
				"methodIdentifiers": {
					"accountBal(address)": "87838bf1",
					"accounts(address)": "5e5c06e2",
					"deposit(uint256)": "b6b55f25",
					"getInitialToken()": "7274e6a0",
					"transfer(address,uint256)": "a9059cbb",
					"withdraw(uint256)": "2e1a7d4d"
				}
			},
			"storageLayout": {
				"storage": [
					{
						"astId": 3,
						"contract": "contracts/myLearning/Bank.sol:Bank",
						"label": "owner",
						"offset": 0,
						"slot": "0",
						"type": "t_address"
					},
					{
						"astId": 7,
						"contract": "contracts/myLearning/Bank.sol:Bank",
						"label": "accounts",
						"offset": 0,
						"slot": "1",
						"type": "t_mapping(t_address,t_uint256)"
					},
					{
						"astId": 9,
						"contract": "contracts/myLearning/Bank.sol:Bank",
						"label": "totalSupply",
						"offset": 0,
						"slot": "2",
						"type": "t_uint256"
					}
				],
				"types": {
					"t_address": {
						"encoding": "inplace",
						"label": "address",
						"numberOfBytes": "20"
					},
					"t_mapping(t_address,t_uint256)": {
						"encoding": "mapping",
						"key": "t_address",
						"label": "mapping(address => uint256)",
						"numberOfBytes": "32",
						"value": "t_uint256"
					},
					"t_uint256": {
						"encoding": "inplace",
						"label": "uint256",
						"numberOfBytes": "32"
					}
				}
			},
			"userdoc": {
				"kind": "user",
				"methods": {},
				"version": 1
			}
		}
	}
}