{
	"contracts/myLearning/AccountStrut.sol": {
		"AccountStrut": {
			"abi": [
				{
					"inputs": [],
					"name": "_acc1",
					"outputs": [
						{
							"internalType": "address",
							"name": "_address",
							"type": "address"
						},
						{
							"internalType": "uint256",
							"name": "_amount",
							"type": "uint256"
						}
					],
					"stateMutability": "view",
					"type": "function"
				},
				{
					"inputs": [],
					"name": "_acc2",
					"outputs": [
						{
							"internalType": "address",
							"name": "_address",
							"type": "address"
						},
						{
							"internalType": "uint256",
							"name": "_amount",
							"type": "uint256"
						}
					],
					"stateMutability": "view",
					"type": "function"
				},
				{
					"inputs": [
						{
							"internalType": "uint256",
							"name": "_addMoney",
							"type": "uint256"
						}
					],
					"name": "addAmount",
					"outputs": [
						{
							"internalType": "uint256",
							"name": "",
							"type": "uint256"
						}
					],
					"stateMutability": "nonpayable",
					"type": "function"
				},
				{
					"inputs": [
						{
							"internalType": "uint256",
							"name": "_addMoney",
							"type": "uint256"
						}
					],
					"name": "addAmount2",
					"outputs": [
						{
							"internalType": "uint256",
							"name": "",
							"type": "uint256"
						}
					],
					"stateMutability": "nonpayable",
					"type": "function"
				},
				{
					"inputs": [
						{
							"internalType": "uint256",
							"name": "_money",
							"type": "uint256"
						}
					],
					"name": "transfer",
					"outputs": [
						{
							"internalType": "bool",
							"name": "",
							"type": "bool"
						}
					],
					"stateMutability": "nonpayable",
					"type": "function"
				},
				{
					"inputs": [
						{
							"internalType": "uint256",
							"name": "_money",
							"type": "uint256"
						}
					],
					"name": "withdraw",
					"outputs": [
						{
							"internalType": "uint256",
							"name": "",
							"type": "uint256"
						}
					],
					"stateMutability": "nonpayable",
					"type": "function"
				}
			],
			"devdoc": {
				"kind": "dev",
				"methods": {},
				"version": 1
			},
			"evm": {
				"assembly": "    /* \"contracts/myLearning/AccountStrut.sol\":73:1152  contract AccountStrut {\r... */\n  mstore(0x40, 0x80)\n    /* \"contracts/myLearning/AccountStrut.sol\":328:429  Account({\r... */\n  mload(0x40)\n  dup1\n  0x40\n  add\n  0x40\n  mstore\n  dup1\n    /* \"contracts/myLearning/AccountStrut.sol\":357:399  0xAb8483F64d9C6d1EcF9b849Ae677dD3315835cb2 */\n  0xab8483f64d9c6d1ecf9b849ae677dd3315835cb2\n    /* \"contracts/myLearning/AccountStrut.sol\":328:429  Account({\r... */\n  0xffffffffffffffffffffffffffffffffffffffff\n  and\n  dup2\n  mstore\n  0x20\n  add\n    /* \"contracts/myLearning/AccountStrut.sol\":419:421  50 */\n  0x32\n    /* \"contracts/myLearning/AccountStrut.sol\":328:429  Account({\r... */\n  dup2\n  mstore\n  pop\n    /* \"contracts/myLearning/AccountStrut.sol\":305:429  Account public _acc1 = Account({\r... */\n  0x00\n  dup1\n  dup3\n  add\n  mload\n  dup2\n  0x00\n  add\n  exp(0x0100, 0x00)\n  dup2\n  sload\n  dup2\n  0xffffffffffffffffffffffffffffffffffffffff\n  mul\n  not\n  and\n  swap1\n  dup4\n  0xffffffffffffffffffffffffffffffffffffffff\n  and\n  mul\n  or\n  swap1\n  sstore\n  pop\n  0x20\n  dup3\n  add\n  mload\n  dup2\n  0x01\n  add\n  sstore\n  pop\n  pop\n    /* \"contracts/myLearning/AccountStrut.sol\":461:531  Account({\r... */\n  mload(0x40)\n  dup1\n  0x40\n  add\n  0x40\n  mstore\n  dup1\n    /* \"contracts/myLearning/AccountStrut.sol\":490:500  msg.sender */\n  caller\n    /* \"contracts/myLearning/AccountStrut.sol\":461:531  Account({\r... */\n  0xffffffffffffffffffffffffffffffffffffffff\n  and\n  dup2\n  mstore\n  0x20\n  add\n    /* \"contracts/myLearning/AccountStrut.sol\":520:523  100 */\n  0x64\n    /* \"contracts/myLearning/AccountStrut.sol\":461:531  Account({\r... */\n  dup2\n  mstore\n  pop\n    /* \"contracts/myLearning/AccountStrut.sol\":438:531  Account public _acc2 = Account({\r... */\n  0x02\n  0x00\n  dup3\n  add\n  mload\n  dup2\n  0x00\n  add\n  exp(0x0100, 0x00)\n  dup2\n  sload\n  dup2\n  0xffffffffffffffffffffffffffffffffffffffff\n  mul\n  not\n  and\n  swap1\n  dup4\n  0xffffffffffffffffffffffffffffffffffffffff\n  and\n  mul\n  or\n  swap1\n  sstore\n  pop\n  0x20\n  dup3\n  add\n  mload\n  dup2\n  0x01\n  add\n  sstore\n  pop\n  pop\n    /* \"contracts/myLearning/AccountStrut.sol\":73:1152  contract AccountStrut {\r... */\n  callvalue\n  dup1\n  iszero\n  tag_1\n  jumpi\n  0x00\n  dup1\n  revert\ntag_1:\n  pop\n  dataSize(sub_0)\n  dup1\n  dataOffset(sub_0)\n  0x00\n  codecopy\n  0x00\n  return\nstop\n\nsub_0: assembly {\n        /* \"contracts/myLearning/AccountStrut.sol\":73:1152  contract AccountStrut {\r... */\n      mstore(0x40, 0x80)\n      callvalue\n      dup1\n      iszero\n      tag_1\n      jumpi\n      0x00\n      dup1\n      revert\n    tag_1:\n      pop\n      jumpi(tag_2, lt(calldatasize, 0x04))\n      shr(0xe0, calldataload(0x00))\n      dup1\n      0x0912f232\n      eq\n      tag_3\n      jumpi\n      dup1\n      0x12514bba\n      eq\n      tag_4\n      jumpi\n      dup1\n      0x2e1a7d4d\n      eq\n      tag_5\n      jumpi\n      dup1\n      0x8df0aa5f\n      eq\n      tag_6\n      jumpi\n      dup1\n      0xdc9320d4\n      eq\n      tag_7\n      jumpi\n      dup1\n      0xf2aec8de\n      eq\n      tag_8\n      jumpi\n    tag_2:\n      0x00\n      dup1\n      revert\n        /* \"contracts/myLearning/AccountStrut.sol\":540:672  function addAmount(uint _addMoney) public returns (uint){\r... */\n    tag_3:\n      tag_9\n      0x04\n      dup1\n      calldatasize\n      sub\n      dup2\n      add\n      swap1\n      tag_10\n      swap2\n      swap1\n      tag_11\n      jump\t// in\n    tag_10:\n      tag_12\n      jump\t// in\n    tag_9:\n      mload(0x40)\n      tag_13\n      swap2\n      swap1\n      tag_14\n      jump\t// in\n    tag_13:\n      mload(0x40)\n      dup1\n      swap2\n      sub\n      swap1\n      return\n        /* \"contracts/myLearning/AccountStrut.sol\":967:1149  function transfer(uint _money) public returns (bool) {\r... */\n    tag_4:\n      tag_15\n      0x04\n      dup1\n      calldatasize\n      sub\n      dup2\n      add\n      swap1\n      tag_16\n      swap2\n      swap1\n      tag_11\n      jump\t// in\n    tag_16:\n      tag_17\n      jump\t// in\n    tag_15:\n      mload(0x40)\n      tag_18\n      swap2\n      swap1\n      tag_19\n      jump\t// in\n    tag_18:\n      mload(0x40)\n      dup1\n      swap2\n      sub\n      swap1\n      return\n        /* \"contracts/myLearning/AccountStrut.sol\":822:959  function withdraw(uint _money) public  returns (uint) {\r... */\n    tag_5:\n      tag_20\n      0x04\n      dup1\n      calldatasize\n      sub\n      dup2\n      add\n      swap1\n      tag_21\n      swap2\n      swap1\n      tag_11\n      jump\t// in\n    tag_21:\n      tag_22\n      jump\t// in\n    tag_20:\n      mload(0x40)\n      tag_23\n      swap2\n      swap1\n      tag_14\n      jump\t// in\n    tag_23:\n      mload(0x40)\n      dup1\n      swap2\n      sub\n      swap1\n      return\n        /* \"contracts/myLearning/AccountStrut.sol\":680:814  function addAmount2(uint _addMoney) public returns (uint) {\r... */\n    tag_6:\n      tag_24\n      0x04\n      dup1\n      calldatasize\n      sub\n      dup2\n      add\n      swap1\n      tag_25\n      swap2\n      swap1\n      tag_11\n      jump\t// in\n    tag_25:\n      tag_26\n      jump\t// in\n    tag_24:\n      mload(0x40)\n      tag_27\n      swap2\n      swap1\n      tag_14\n      jump\t// in\n    tag_27:\n      mload(0x40)\n      dup1\n      swap2\n      sub\n      swap1\n      return\n        /* \"contracts/myLearning/AccountStrut.sol\":438:531  Account public _acc2 = Account({\r... */\n    tag_7:\n      tag_28\n      tag_29\n      jump\t// in\n    tag_28:\n      mload(0x40)\n      tag_30\n      swap3\n      swap2\n      swap1\n      tag_31\n      jump\t// in\n    tag_30:\n      mload(0x40)\n      dup1\n      swap2\n      sub\n      swap1\n      return\n        /* \"contracts/myLearning/AccountStrut.sol\":305:429  Account public _acc1 = Account({\r... */\n    tag_8:\n      tag_32\n      tag_33\n      jump\t// in\n    tag_32:\n      mload(0x40)\n      tag_34\n      swap3\n      swap2\n      swap1\n      tag_31\n      jump\t// in\n    tag_34:\n      mload(0x40)\n      dup1\n      swap2\n      sub\n      swap1\n      return\n        /* \"contracts/myLearning/AccountStrut.sol\":540:672  function addAmount(uint _addMoney) public returns (uint){\r... */\n    tag_12:\n        /* \"contracts/myLearning/AccountStrut.sol\":591:595  uint */\n      0x00\n        /* \"contracts/myLearning/AccountStrut.sol\":624:633  _addMoney */\n      dup2\n        /* \"contracts/myLearning/AccountStrut.sol\":607:612  _acc1 */\n      0x00\n        /* \"contracts/myLearning/AccountStrut.sol\":607:620  _acc1._amount */\n      0x01\n      add\n      0x00\n        /* \"contracts/myLearning/AccountStrut.sol\":607:633  _acc1._amount += _addMoney */\n      dup3\n      dup3\n      sload\n      tag_36\n      swap2\n      swap1\n      tag_37\n      jump\t// in\n    tag_36:\n      swap3\n      pop\n      pop\n      dup2\n      swap1\n      sstore\n      pop\n        /* \"contracts/myLearning/AccountStrut.sol\":651:656  _acc1 */\n      0x00\n        /* \"contracts/myLearning/AccountStrut.sol\":651:664  _acc1._amount */\n      0x01\n      add\n      sload\n        /* \"contracts/myLearning/AccountStrut.sol\":644:664  return _acc1._amount */\n      swap1\n      pop\n        /* \"contracts/myLearning/AccountStrut.sol\":540:672  function addAmount(uint _addMoney) public returns (uint){\r... */\n      swap2\n      swap1\n      pop\n      jump\t// out\n        /* \"contracts/myLearning/AccountStrut.sol\":967:1149  function transfer(uint _money) public returns (bool) {\r... */\n    tag_17:\n        /* \"contracts/myLearning/AccountStrut.sol\":1014:1018  bool */\n      0x00\n        /* \"contracts/myLearning/AccountStrut.sol\":1056:1062  _money */\n      dup2\n        /* \"contracts/myLearning/AccountStrut.sol\":1039:1044  _acc1 */\n      0x00\n        /* \"contracts/myLearning/AccountStrut.sol\":1039:1052  _acc1._amount */\n      0x01\n      add\n      sload\n        /* \"contracts/myLearning/AccountStrut.sol\":1039:1062  _acc1._amount >= _money */\n      lt\n      iszero\n        /* \"contracts/myLearning/AccountStrut.sol\":1031:1063  require(_acc1._amount >= _money) */\n      tag_39\n      jumpi\n      0x00\n      dup1\n      revert\n    tag_39:\n        /* \"contracts/myLearning/AccountStrut.sol\":1074:1090  withdraw(_money) */\n      tag_40\n        /* \"contracts/myLearning/AccountStrut.sol\":1083:1089  _money */\n      dup3\n        /* \"contracts/myLearning/AccountStrut.sol\":1074:1082  withdraw */\n      tag_22\n        /* \"contracts/myLearning/AccountStrut.sol\":1074:1090  withdraw(_money) */\n      jump\t// in\n    tag_40:\n      pop\n        /* \"contracts/myLearning/AccountStrut.sol\":1101:1119  addAmount2(_money) */\n      tag_41\n        /* \"contracts/myLearning/AccountStrut.sol\":1112:1118  _money */\n      dup3\n        /* \"contracts/myLearning/AccountStrut.sol\":1101:1111  addAmount2 */\n      tag_26\n        /* \"contracts/myLearning/AccountStrut.sol\":1101:1119  addAmount2(_money) */\n      jump\t// in\n    tag_41:\n      pop\n        /* \"contracts/myLearning/AccountStrut.sol\":1137:1141  true */\n      0x01\n        /* \"contracts/myLearning/AccountStrut.sol\":1130:1141  return true */\n      swap1\n      pop\n        /* \"contracts/myLearning/AccountStrut.sol\":967:1149  function transfer(uint _money) public returns (bool) {\r... */\n      swap2\n      swap1\n      pop\n      jump\t// out\n        /* \"contracts/myLearning/AccountStrut.sol\":822:959  function withdraw(uint _money) public  returns (uint) {\r... */\n    tag_22:\n        /* \"contracts/myLearning/AccountStrut.sol\":870:874  uint */\n      0x00\n        /* \"contracts/myLearning/AccountStrut.sol\":914:920  _money */\n      dup2\n        /* \"contracts/myLearning/AccountStrut.sol\":897:902  _acc1 */\n      0x00\n        /* \"contracts/myLearning/AccountStrut.sol\":897:910  _acc1._amount */\n      0x01\n      add\n      0x00\n        /* \"contracts/myLearning/AccountStrut.sol\":897:920  _acc1._amount -= _money */\n      dup3\n      dup3\n      sload\n      tag_43\n      swap2\n      swap1\n      tag_44\n      jump\t// in\n    tag_43:\n      swap3\n      pop\n      pop\n      dup2\n      swap1\n      sstore\n      pop\n        /* \"contracts/myLearning/AccountStrut.sol\":938:943  _acc1 */\n      0x00\n        /* \"contracts/myLearning/AccountStrut.sol\":938:951  _acc1._amount */\n      0x01\n      add\n      sload\n        /* \"contracts/myLearning/AccountStrut.sol\":931:951  return _acc1._amount */\n      swap1\n      pop\n        /* \"contracts/myLearning/AccountStrut.sol\":822:959  function withdraw(uint _money) public  returns (uint) {\r... */\n      swap2\n      swap1\n      pop\n      jump\t// out\n        /* \"contracts/myLearning/AccountStrut.sol\":680:814  function addAmount2(uint _addMoney) public returns (uint) {\r... */\n    tag_26:\n        /* \"contracts/myLearning/AccountStrut.sol\":732:736  uint */\n      0x00\n        /* \"contracts/myLearning/AccountStrut.sol\":766:775  _addMoney */\n      dup2\n        /* \"contracts/myLearning/AccountStrut.sol\":749:754  _acc2 */\n      0x02\n        /* \"contracts/myLearning/AccountStrut.sol\":749:762  _acc2._amount */\n      0x01\n      add\n      0x00\n        /* \"contracts/myLearning/AccountStrut.sol\":749:775  _acc2._amount += _addMoney */\n      dup3\n      dup3\n      sload\n      tag_46\n      swap2\n      swap1\n      tag_37\n      jump\t// in\n    tag_46:\n      swap3\n      pop\n      pop\n      dup2\n      swap1\n      sstore\n      pop\n        /* \"contracts/myLearning/AccountStrut.sol\":793:798  _acc2 */\n      0x02\n        /* \"contracts/myLearning/AccountStrut.sol\":793:806  _acc2._amount */\n      0x01\n      add\n      sload\n        /* \"contracts/myLearning/AccountStrut.sol\":786:806  return _acc2._amount */\n      swap1\n      pop\n        /* \"contracts/myLearning/AccountStrut.sol\":680:814  function addAmount2(uint _addMoney) public returns (uint) {\r... */\n      swap2\n      swap1\n      pop\n      jump\t// out\n        /* \"contracts/myLearning/AccountStrut.sol\":438:531  Account public _acc2 = Account({\r... */\n    tag_29:\n      0x02\n      dup1\n      0x00\n      add\n      0x00\n      swap1\n      sload\n      swap1\n      0x0100\n      exp\n      swap1\n      div\n      0xffffffffffffffffffffffffffffffffffffffff\n      and\n      swap1\n      dup1\n      0x01\n      add\n      sload\n      swap1\n      pop\n      dup3\n      jump\t// out\n        /* \"contracts/myLearning/AccountStrut.sol\":305:429  Account public _acc1 = Account({\r... */\n    tag_33:\n      0x00\n      dup1\n      0x00\n      add\n      0x00\n      swap1\n      sload\n      swap1\n      0x0100\n      exp\n      swap1\n      div\n      0xffffffffffffffffffffffffffffffffffffffff\n      and\n      swap1\n      dup1\n      0x01\n      add\n      sload\n      swap1\n      pop\n      dup3\n      jump\t// out\n        /* \"#utility.yul\":7:146   */\n    tag_48:\n        /* \"#utility.yul\":53:58   */\n      0x00\n        /* \"#utility.yul\":91:97   */\n      dup2\n        /* \"#utility.yul\":78:98   */\n      calldataload\n        /* \"#utility.yul\":69:98   */\n      swap1\n      pop\n        /* \"#utility.yul\":107:140   */\n      tag_50\n        /* \"#utility.yul\":134:139   */\n      dup2\n        /* \"#utility.yul\":107:140   */\n      tag_51\n      jump\t// in\n    tag_50:\n        /* \"#utility.yul\":7:146   */\n      swap3\n      swap2\n      pop\n      pop\n      jump\t// out\n        /* \"#utility.yul\":152:481   */\n    tag_11:\n        /* \"#utility.yul\":211:217   */\n      0x00\n        /* \"#utility.yul\":260:262   */\n      0x20\n        /* \"#utility.yul\":248:257   */\n      dup3\n        /* \"#utility.yul\":239:246   */\n      dup5\n        /* \"#utility.yul\":235:258   */\n      sub\n        /* \"#utility.yul\":231:263   */\n      slt\n        /* \"#utility.yul\":228:347   */\n      iszero\n      tag_53\n      jumpi\n        /* \"#utility.yul\":266:345   */\n      tag_54\n      tag_55\n      jump\t// in\n    tag_54:\n        /* \"#utility.yul\":228:347   */\n    tag_53:\n        /* \"#utility.yul\":386:387   */\n      0x00\n        /* \"#utility.yul\":411:464   */\n      tag_56\n        /* \"#utility.yul\":456:463   */\n      dup5\n        /* \"#utility.yul\":447:453   */\n      dup3\n        /* \"#utility.yul\":436:445   */\n      dup6\n        /* \"#utility.yul\":432:454   */\n      add\n        /* \"#utility.yul\":411:464   */\n      tag_48\n      jump\t// in\n    tag_56:\n        /* \"#utility.yul\":401:464   */\n      swap2\n      pop\n        /* \"#utility.yul\":357:474   */\n      pop\n        /* \"#utility.yul\":152:481   */\n      swap3\n      swap2\n      pop\n      pop\n      jump\t// out\n        /* \"#utility.yul\":487:605   */\n    tag_57:\n        /* \"#utility.yul\":574:598   */\n      tag_59\n        /* \"#utility.yul\":592:597   */\n      dup2\n        /* \"#utility.yul\":574:598   */\n      tag_60\n      jump\t// in\n    tag_59:\n        /* \"#utility.yul\":569:572   */\n      dup3\n        /* \"#utility.yul\":562:599   */\n      mstore\n        /* \"#utility.yul\":487:605   */\n      pop\n      pop\n      jump\t// out\n        /* \"#utility.yul\":611:720   */\n    tag_61:\n        /* \"#utility.yul\":692:713   */\n      tag_63\n        /* \"#utility.yul\":707:712   */\n      dup2\n        /* \"#utility.yul\":692:713   */\n      tag_64\n      jump\t// in\n    tag_63:\n        /* \"#utility.yul\":687:690   */\n      dup3\n        /* \"#utility.yul\":680:714   */\n      mstore\n        /* \"#utility.yul\":611:720   */\n      pop\n      pop\n      jump\t// out\n        /* \"#utility.yul\":726:844   */\n    tag_65:\n        /* \"#utility.yul\":813:837   */\n      tag_67\n        /* \"#utility.yul\":831:836   */\n      dup2\n        /* \"#utility.yul\":813:837   */\n      tag_68\n      jump\t// in\n    tag_67:\n        /* \"#utility.yul\":808:811   */\n      dup3\n        /* \"#utility.yul\":801:838   */\n      mstore\n        /* \"#utility.yul\":726:844   */\n      pop\n      pop\n      jump\t// out\n        /* \"#utility.yul\":850:1182   */\n    tag_31:\n        /* \"#utility.yul\":971:975   */\n      0x00\n        /* \"#utility.yul\":1009:1011   */\n      0x40\n        /* \"#utility.yul\":998:1007   */\n      dup3\n        /* \"#utility.yul\":994:1012   */\n      add\n        /* \"#utility.yul\":986:1012   */\n      swap1\n      pop\n        /* \"#utility.yul\":1022:1093   */\n      tag_70\n        /* \"#utility.yul\":1090:1091   */\n      0x00\n        /* \"#utility.yul\":1079:1088   */\n      dup4\n        /* \"#utility.yul\":1075:1092   */\n      add\n        /* \"#utility.yul\":1066:1072   */\n      dup6\n        /* \"#utility.yul\":1022:1093   */\n      tag_57\n      jump\t// in\n    tag_70:\n        /* \"#utility.yul\":1103:1175   */\n      tag_71\n        /* \"#utility.yul\":1171:1173   */\n      0x20\n        /* \"#utility.yul\":1160:1169   */\n      dup4\n        /* \"#utility.yul\":1156:1174   */\n      add\n        /* \"#utility.yul\":1147:1153   */\n      dup5\n        /* \"#utility.yul\":1103:1175   */\n      tag_65\n      jump\t// in\n    tag_71:\n        /* \"#utility.yul\":850:1182   */\n      swap4\n      swap3\n      pop\n      pop\n      pop\n      jump\t// out\n        /* \"#utility.yul\":1188:1398   */\n    tag_19:\n        /* \"#utility.yul\":1275:1279   */\n      0x00\n        /* \"#utility.yul\":1313:1315   */\n      0x20\n        /* \"#utility.yul\":1302:1311   */\n      dup3\n        /* \"#utility.yul\":1298:1316   */\n      add\n        /* \"#utility.yul\":1290:1316   */\n      swap1\n      pop\n        /* \"#utility.yul\":1326:1391   */\n      tag_73\n        /* \"#utility.yul\":1388:1389   */\n      0x00\n        /* \"#utility.yul\":1377:1386   */\n      dup4\n        /* \"#utility.yul\":1373:1390   */\n      add\n        /* \"#utility.yul\":1364:1370   */\n      dup5\n        /* \"#utility.yul\":1326:1391   */\n      tag_61\n      jump\t// in\n    tag_73:\n        /* \"#utility.yul\":1188:1398   */\n      swap3\n      swap2\n      pop\n      pop\n      jump\t// out\n        /* \"#utility.yul\":1404:1626   */\n    tag_14:\n        /* \"#utility.yul\":1497:1501   */\n      0x00\n        /* \"#utility.yul\":1535:1537   */\n      0x20\n        /* \"#utility.yul\":1524:1533   */\n      dup3\n        /* \"#utility.yul\":1520:1538   */\n      add\n        /* \"#utility.yul\":1512:1538   */\n      swap1\n      pop\n        /* \"#utility.yul\":1548:1619   */\n      tag_75\n        /* \"#utility.yul\":1616:1617   */\n      0x00\n        /* \"#utility.yul\":1605:1614   */\n      dup4\n        /* \"#utility.yul\":1601:1618   */\n      add\n        /* \"#utility.yul\":1592:1598   */\n      dup5\n        /* \"#utility.yul\":1548:1619   */\n      tag_65\n      jump\t// in\n    tag_75:\n        /* \"#utility.yul\":1404:1626   */\n      swap3\n      swap2\n      pop\n      pop\n      jump\t// out\n        /* \"#utility.yul\":1713:2018   */\n    tag_37:\n        /* \"#utility.yul\":1753:1756   */\n      0x00\n        /* \"#utility.yul\":1772:1792   */\n      tag_79\n        /* \"#utility.yul\":1790:1791   */\n      dup3\n        /* \"#utility.yul\":1772:1792   */\n      tag_68\n      jump\t// in\n    tag_79:\n        /* \"#utility.yul\":1767:1792   */\n      swap2\n      pop\n        /* \"#utility.yul\":1806:1826   */\n      tag_80\n        /* \"#utility.yul\":1824:1825   */\n      dup4\n        /* \"#utility.yul\":1806:1826   */\n      tag_68\n      jump\t// in\n    tag_80:\n        /* \"#utility.yul\":1801:1826   */\n      swap3\n      pop\n        /* \"#utility.yul\":1960:1961   */\n      dup3\n        /* \"#utility.yul\":1892:1958   */\n      0xffffffffffffffffffffffffffffffffffffffffffffffffffffffffffffffff\n        /* \"#utility.yul\":1888:1962   */\n      sub\n        /* \"#utility.yul\":1885:1886   */\n      dup3\n        /* \"#utility.yul\":1882:1963   */\n      gt\n        /* \"#utility.yul\":1879:1986   */\n      iszero\n      tag_81\n      jumpi\n        /* \"#utility.yul\":1966:1984   */\n      tag_82\n      tag_83\n      jump\t// in\n    tag_82:\n        /* \"#utility.yul\":1879:1986   */\n    tag_81:\n        /* \"#utility.yul\":2010:2011   */\n      dup3\n        /* \"#utility.yul\":2007:2008   */\n      dup3\n        /* \"#utility.yul\":2003:2012   */\n      add\n        /* \"#utility.yul\":1996:2012   */\n      swap1\n      pop\n        /* \"#utility.yul\":1713:2018   */\n      swap3\n      swap2\n      pop\n      pop\n      jump\t// out\n        /* \"#utility.yul\":2024:2215   */\n    tag_44:\n        /* \"#utility.yul\":2064:2068   */\n      0x00\n        /* \"#utility.yul\":2084:2104   */\n      tag_85\n        /* \"#utility.yul\":2102:2103   */\n      dup3\n        /* \"#utility.yul\":2084:2104   */\n      tag_68\n      jump\t// in\n    tag_85:\n        /* \"#utility.yul\":2079:2104   */\n      swap2\n      pop\n        /* \"#utility.yul\":2118:2138   */\n      tag_86\n        /* \"#utility.yul\":2136:2137   */\n      dup4\n        /* \"#utility.yul\":2118:2138   */\n      tag_68\n      jump\t// in\n    tag_86:\n        /* \"#utility.yul\":2113:2138   */\n      swap3\n      pop\n        /* \"#utility.yul\":2157:2158   */\n      dup3\n        /* \"#utility.yul\":2154:2155   */\n      dup3\n        /* \"#utility.yul\":2151:2159   */\n      lt\n        /* \"#utility.yul\":2148:2182   */\n      iszero\n      tag_87\n      jumpi\n        /* \"#utility.yul\":2162:2180   */\n      tag_88\n      tag_83\n      jump\t// in\n    tag_88:\n        /* \"#utility.yul\":2148:2182   */\n    tag_87:\n        /* \"#utility.yul\":2207:2208   */\n      dup3\n        /* \"#utility.yul\":2204:2205   */\n      dup3\n        /* \"#utility.yul\":2200:2209   */\n      sub\n        /* \"#utility.yul\":2192:2209   */\n      swap1\n      pop\n        /* \"#utility.yul\":2024:2215   */\n      swap3\n      swap2\n      pop\n      pop\n      jump\t// out\n        /* \"#utility.yul\":2221:2317   */\n    tag_60:\n        /* \"#utility.yul\":2258:2265   */\n      0x00\n        /* \"#utility.yul\":2287:2311   */\n      tag_90\n        /* \"#utility.yul\":2305:2310   */\n      dup3\n        /* \"#utility.yul\":2287:2311   */\n      tag_91\n      jump\t// in\n    tag_90:\n        /* \"#utility.yul\":2276:2311   */\n      swap1\n      pop\n        /* \"#utility.yul\":2221:2317   */\n      swap2\n      swap1\n      pop\n      jump\t// out\n        /* \"#utility.yul\":2323:2413   */\n    tag_64:\n        /* \"#utility.yul\":2357:2364   */\n      0x00\n        /* \"#utility.yul\":2400:2405   */\n      dup2\n        /* \"#utility.yul\":2393:2406   */\n      iszero\n        /* \"#utility.yul\":2386:2407   */\n      iszero\n        /* \"#utility.yul\":2375:2407   */\n      swap1\n      pop\n        /* \"#utility.yul\":2323:2413   */\n      swap2\n      swap1\n      pop\n      jump\t// out\n        /* \"#utility.yul\":2419:2545   */\n    tag_91:\n        /* \"#utility.yul\":2456:2463   */\n      0x00\n        /* \"#utility.yul\":2496:2538   */\n      0xffffffffffffffffffffffffffffffffffffffff\n        /* \"#utility.yul\":2489:2494   */\n      dup3\n        /* \"#utility.yul\":2485:2539   */\n      and\n        /* \"#utility.yul\":2474:2539   */\n      swap1\n      pop\n        /* \"#utility.yul\":2419:2545   */\n      swap2\n      swap1\n      pop\n      jump\t// out\n        /* \"#utility.yul\":2551:2628   */\n    tag_68:\n        /* \"#utility.yul\":2588:2595   */\n      0x00\n        /* \"#utility.yul\":2617:2622   */\n      dup2\n        /* \"#utility.yul\":2606:2622   */\n      swap1\n      pop\n        /* \"#utility.yul\":2551:2628   */\n      swap2\n      swap1\n      pop\n      jump\t// out\n        /* \"#utility.yul\":2634:2814   */\n    tag_83:\n        /* \"#utility.yul\":2682:2759   */\n      0x4e487b7100000000000000000000000000000000000000000000000000000000\n        /* \"#utility.yul\":2679:2680   */\n      0x00\n        /* \"#utility.yul\":2672:2760   */\n      mstore\n        /* \"#utility.yul\":2779:2783   */\n      0x11\n        /* \"#utility.yul\":2776:2777   */\n      0x04\n        /* \"#utility.yul\":2769:2784   */\n      mstore\n        /* \"#utility.yul\":2803:2807   */\n      0x24\n        /* \"#utility.yul\":2800:2801   */\n      0x00\n        /* \"#utility.yul\":2793:2808   */\n      revert\n        /* \"#utility.yul\":2943:3060   */\n    tag_55:\n        /* \"#utility.yul\":3052:3053   */\n      0x00\n        /* \"#utility.yul\":3049:3050   */\n      dup1\n        /* \"#utility.yul\":3042:3054   */\n      revert\n        /* \"#utility.yul\":3066:3188   */\n    tag_51:\n        /* \"#utility.yul\":3139:3163   */\n      tag_100\n        /* \"#utility.yul\":3157:3162   */\n      dup2\n        /* \"#utility.yul\":3139:3163   */\n      tag_68\n      jump\t// in\n    tag_100:\n        /* \"#utility.yul\":3132:3137   */\n      dup2\n        /* \"#utility.yul\":3129:3164   */\n      eq\n        /* \"#utility.yul\":3119:3182   */\n      tag_101\n      jumpi\n        /* \"#utility.yul\":3178:3179   */\n      0x00\n        /* \"#utility.yul\":3175:3176   */\n      dup1\n        /* \"#utility.yul\":3168:3180   */\n      revert\n        /* \"#utility.yul\":3119:3182   */\n    tag_101:\n        /* \"#utility.yul\":3066:3188   */\n      pop\n      jump\t// out\n\n    auxdata: 0xa2646970667358221220b14dab357006b73fd6eb2781fab15a3faa21c11a051f7d75e6bc8dfe0a6926f464736f6c63430008070033\n}\n",
				"bytecode": {
					"linkReferences": {},
					"object": "6080604052604051806040016040528073ab8483f64d9c6d1ecf9b849ae677dd3315835cb273ffffffffffffffffffffffffffffffffffffffff16815260200160328152506000808201518160000160006101000a81548173ffffffffffffffffffffffffffffffffffffffff021916908373ffffffffffffffffffffffffffffffffffffffff16021790555060208201518160010155505060405180604001604052803373ffffffffffffffffffffffffffffffffffffffff1681526020016064815250600260008201518160000160006101000a81548173ffffffffffffffffffffffffffffffffffffffff021916908373ffffffffffffffffffffffffffffffffffffffff16021790555060208201518160010155505034801561012557600080fd5b5061049c806101356000396000f3fe608060405234801561001057600080fd5b50600436106100625760003560e01c80630912f2321461006757806312514bba146100975780632e1a7d4d146100c75780638df0aa5f146100f7578063dc9320d414610127578063f2aec8de14610146575b600080fd5b610081600480360381019061007c9190610290565b610165565b60405161008e919061032e565b60405180910390f35b6100b160048036038101906100ac9190610290565b610190565b6040516100be9190610313565b60405180910390f35b6100e160048036038101906100dc9190610290565b6101c1565b6040516100ee919061032e565b60405180910390f35b610111600480360381019061010c9190610290565b6101ec565b60405161011e919061032e565b60405180910390f35b61012f610217565b60405161013d9291906102ea565b60405180910390f35b61014e610249565b60405161015c9291906102ea565b60405180910390f35b6000816000600101600082825461017c9190610349565b925050819055506000600101549050919050565b60008160006001015410156101a457600080fd5b6101ad826101c1565b506101b7826101ec565b5060019050919050565b600081600060010160008282546101d8919061039f565b925050819055506000600101549050919050565b600081600260010160008282546102039190610349565b925050819055506002600101549050919050565b60028060000160009054906101000a900473ffffffffffffffffffffffffffffffffffffffff16908060010154905082565b60008060000160009054906101000a900473ffffffffffffffffffffffffffffffffffffffff16908060010154905082565b60008135905061028a8161044f565b92915050565b6000602082840312156102a6576102a561044a565b5b60006102b48482850161027b565b91505092915050565b6102c6816103d3565b82525050565b6102d5816103e5565b82525050565b6102e481610411565b82525050565b60006040820190506102ff60008301856102bd565b61030c60208301846102db565b9392505050565b600060208201905061032860008301846102cc565b92915050565b600060208201905061034360008301846102db565b92915050565b600061035482610411565b915061035f83610411565b9250827fffffffffffffffffffffffffffffffffffffffffffffffffffffffffffffffff038211156103945761039361041b565b5b828201905092915050565b60006103aa82610411565b91506103b583610411565b9250828210156103c8576103c761041b565b5b828203905092915050565b60006103de826103f1565b9050919050565b60008115159050919050565b600073ffffffffffffffffffffffffffffffffffffffff82169050919050565b6000819050919050565b7f4e487b7100000000000000000000000000000000000000000000000000000000600052601160045260246000fd5b600080fd5b61045881610411565b811461046357600080fd5b5056fea2646970667358221220b14dab357006b73fd6eb2781fab15a3faa21c11a051f7d75e6bc8dfe0a6926f464736f6c63430008070033",
					"opcodes": "PUSH1 0x80 PUSH1 0x40 MSTORE PUSH1 0x40 MLOAD DUP1 PUSH1 0x40 ADD PUSH1 0x40 MSTORE DUP1 PUSH20 0xAB8483F64D9C6D1ECF9B849AE677DD3315835CB2 PUSH20 0xFFFFFFFFFFFFFFFFFFFFFFFFFFFFFFFFFFFFFFFF AND DUP2 MSTORE PUSH1 0x20 ADD PUSH1 0x32 DUP2 MSTORE POP PUSH1 0x0 DUP1 DUP3 ADD MLOAD DUP2 PUSH1 0x0 ADD PUSH1 0x0 PUSH2 0x100 EXP DUP2 SLOAD DUP2 PUSH20 0xFFFFFFFFFFFFFFFFFFFFFFFFFFFFFFFFFFFFFFFF MUL NOT AND SWAP1 DUP4 PUSH20 0xFFFFFFFFFFFFFFFFFFFFFFFFFFFFFFFFFFFFFFFF AND MUL OR SWAP1 SSTORE POP PUSH1 0x20 DUP3 ADD MLOAD DUP2 PUSH1 0x1 ADD SSTORE POP POP PUSH1 0x40 MLOAD DUP1 PUSH1 0x40 ADD PUSH1 0x40 MSTORE DUP1 CALLER PUSH20 0xFFFFFFFFFFFFFFFFFFFFFFFFFFFFFFFFFFFFFFFF AND DUP2 MSTORE PUSH1 0x20 ADD PUSH1 0x64 DUP2 MSTORE POP PUSH1 0x2 PUSH1 0x0 DUP3 ADD MLOAD DUP2 PUSH1 0x0 ADD PUSH1 0x0 PUSH2 0x100 EXP DUP2 SLOAD DUP2 PUSH20 0xFFFFFFFFFFFFFFFFFFFFFFFFFFFFFFFFFFFFFFFF MUL NOT AND SWAP1 DUP4 PUSH20 0xFFFFFFFFFFFFFFFFFFFFFFFFFFFFFFFFFFFFFFFF AND MUL OR SWAP1 SSTORE POP PUSH1 0x20 DUP3 ADD MLOAD DUP2 PUSH1 0x1 ADD SSTORE POP POP CALLVALUE DUP1 ISZERO PUSH2 0x125 JUMPI PUSH1 0x0 DUP1 REVERT JUMPDEST POP PUSH2 0x49C DUP1 PUSH2 0x135 PUSH1 0x0 CODECOPY PUSH1 0x0 RETURN INVALID PUSH1 0x80 PUSH1 0x40 MSTORE CALLVALUE DUP1 ISZERO PUSH2 0x10 JUMPI PUSH1 0x0 DUP1 REVERT JUMPDEST POP PUSH1 0x4 CALLDATASIZE LT PUSH2 0x62 JUMPI PUSH1 0x0 CALLDATALOAD PUSH1 0xE0 SHR DUP1 PUSH4 0x912F232 EQ PUSH2 0x67 JUMPI DUP1 PUSH4 0x12514BBA EQ PUSH2 0x97 JUMPI DUP1 PUSH4 0x2E1A7D4D EQ PUSH2 0xC7 JUMPI DUP1 PUSH4 0x8DF0AA5F EQ PUSH2 0xF7 JUMPI DUP1 PUSH4 0xDC9320D4 EQ PUSH2 0x127 JUMPI DUP1 PUSH4 0xF2AEC8DE EQ PUSH2 0x146 JUMPI JUMPDEST PUSH1 0x0 DUP1 REVERT JUMPDEST PUSH2 0x81 PUSH1 0x4 DUP1 CALLDATASIZE SUB DUP2 ADD SWAP1 PUSH2 0x7C SWAP2 SWAP1 PUSH2 0x290 JUMP JUMPDEST PUSH2 0x165 JUMP JUMPDEST PUSH1 0x40 MLOAD PUSH2 0x8E SWAP2 SWAP1 PUSH2 0x32E JUMP JUMPDEST PUSH1 0x40 MLOAD DUP1 SWAP2 SUB SWAP1 RETURN JUMPDEST PUSH2 0xB1 PUSH1 0x4 DUP1 CALLDATASIZE SUB DUP2 ADD SWAP1 PUSH2 0xAC SWAP2 SWAP1 PUSH2 0x290 JUMP JUMPDEST PUSH2 0x190 JUMP JUMPDEST PUSH1 0x40 MLOAD PUSH2 0xBE SWAP2 SWAP1 PUSH2 0x313 JUMP JUMPDEST PUSH1 0x40 MLOAD DUP1 SWAP2 SUB SWAP1 RETURN JUMPDEST PUSH2 0xE1 PUSH1 0x4 DUP1 CALLDATASIZE SUB DUP2 ADD SWAP1 PUSH2 0xDC SWAP2 SWAP1 PUSH2 0x290 JUMP JUMPDEST PUSH2 0x1C1 JUMP JUMPDEST PUSH1 0x40 MLOAD PUSH2 0xEE SWAP2 SWAP1 PUSH2 0x32E JUMP JUMPDEST PUSH1 0x40 MLOAD DUP1 SWAP2 SUB SWAP1 RETURN JUMPDEST PUSH2 0x111 PUSH1 0x4 DUP1 CALLDATASIZE SUB DUP2 ADD SWAP1 PUSH2 0x10C SWAP2 SWAP1 PUSH2 0x290 JUMP JUMPDEST PUSH2 0x1EC JUMP JUMPDEST PUSH1 0x40 MLOAD PUSH2 0x11E SWAP2 SWAP1 PUSH2 0x32E JUMP JUMPDEST PUSH1 0x40 MLOAD DUP1 SWAP2 SUB SWAP1 RETURN JUMPDEST PUSH2 0x12F PUSH2 0x217 JUMP JUMPDEST PUSH1 0x40 MLOAD PUSH2 0x13D SWAP3 SWAP2 SWAP1 PUSH2 0x2EA JUMP JUMPDEST PUSH1 0x40 MLOAD DUP1 SWAP2 SUB SWAP1 RETURN JUMPDEST PUSH2 0x14E PUSH2 0x249 JUMP JUMPDEST PUSH1 0x40 MLOAD PUSH2 0x15C SWAP3 SWAP2 SWAP1 PUSH2 0x2EA JUMP JUMPDEST PUSH1 0x40 MLOAD DUP1 SWAP2 SUB SWAP1 RETURN JUMPDEST PUSH1 0x0 DUP2 PUSH1 0x0 PUSH1 0x1 ADD PUSH1 0x0 DUP3 DUP3 SLOAD PUSH2 0x17C SWAP2 SWAP1 PUSH2 0x349 JUMP JUMPDEST SWAP3 POP POP DUP2 SWAP1 SSTORE POP PUSH1 0x0 PUSH1 0x1 ADD SLOAD SWAP1 POP SWAP2 SWAP1 POP JUMP JUMPDEST PUSH1 0x0 DUP2 PUSH1 0x0 PUSH1 0x1 ADD SLOAD LT ISZERO PUSH2 0x1A4 JUMPI PUSH1 0x0 DUP1 REVERT JUMPDEST PUSH2 0x1AD DUP3 PUSH2 0x1C1 JUMP JUMPDEST POP PUSH2 0x1B7 DUP3 PUSH2 0x1EC JUMP JUMPDEST POP PUSH1 0x1 SWAP1 POP SWAP2 SWAP1 POP JUMP JUMPDEST PUSH1 0x0 DUP2 PUSH1 0x0 PUSH1 0x1 ADD PUSH1 0x0 DUP3 DUP3 SLOAD PUSH2 0x1D8 SWAP2 SWAP1 PUSH2 0x39F JUMP JUMPDEST SWAP3 POP POP DUP2 SWAP1 SSTORE POP PUSH1 0x0 PUSH1 0x1 ADD SLOAD SWAP1 POP SWAP2 SWAP1 POP JUMP JUMPDEST PUSH1 0x0 DUP2 PUSH1 0x2 PUSH1 0x1 ADD PUSH1 0x0 DUP3 DUP3 SLOAD PUSH2 0x203 SWAP2 SWAP1 PUSH2 0x349 JUMP JUMPDEST SWAP3 POP POP DUP2 SWAP1 SSTORE POP PUSH1 0x2 PUSH1 0x1 ADD SLOAD SWAP1 POP SWAP2 SWAP1 POP JUMP JUMPDEST PUSH1 0x2 DUP1 PUSH1 0x0 ADD PUSH1 0x0 SWAP1 SLOAD SWAP1 PUSH2 0x100 EXP SWAP1 DIV PUSH20 0xFFFFFFFFFFFFFFFFFFFFFFFFFFFFFFFFFFFFFFFF AND SWAP1 DUP1 PUSH1 0x1 ADD SLOAD SWAP1 POP DUP3 JUMP JUMPDEST PUSH1 0x0 DUP1 PUSH1 0x0 ADD PUSH1 0x0 SWAP1 SLOAD SWAP1 PUSH2 0x100 EXP SWAP1 DIV PUSH20 0xFFFFFFFFFFFFFFFFFFFFFFFFFFFFFFFFFFFFFFFF AND SWAP1 DUP1 PUSH1 0x1 ADD SLOAD SWAP1 POP DUP3 JUMP JUMPDEST PUSH1 0x0 DUP2 CALLDATALOAD SWAP1 POP PUSH2 0x28A DUP2 PUSH2 0x44F JUMP JUMPDEST SWAP3 SWAP2 POP POP JUMP JUMPDEST PUSH1 0x0 PUSH1 0x20 DUP3 DUP5 SUB SLT ISZERO PUSH2 0x2A6 JUMPI PUSH2 0x2A5 PUSH2 0x44A JUMP JUMPDEST JUMPDEST PUSH1 0x0 PUSH2 0x2B4 DUP5 DUP3 DUP6 ADD PUSH2 0x27B JUMP JUMPDEST SWAP2 POP POP SWAP3 SWAP2 POP POP JUMP JUMPDEST PUSH2 0x2C6 DUP2 PUSH2 0x3D3 JUMP JUMPDEST DUP3 MSTORE POP POP JUMP JUMPDEST PUSH2 0x2D5 DUP2 PUSH2 0x3E5 JUMP JUMPDEST DUP3 MSTORE POP POP JUMP JUMPDEST PUSH2 0x2E4 DUP2 PUSH2 0x411 JUMP JUMPDEST DUP3 MSTORE POP POP JUMP JUMPDEST PUSH1 0x0 PUSH1 0x40 DUP3 ADD SWAP1 POP PUSH2 0x2FF PUSH1 0x0 DUP4 ADD DUP6 PUSH2 0x2BD JUMP JUMPDEST PUSH2 0x30C PUSH1 0x20 DUP4 ADD DUP5 PUSH2 0x2DB JUMP JUMPDEST SWAP4 SWAP3 POP POP POP JUMP JUMPDEST PUSH1 0x0 PUSH1 0x20 DUP3 ADD SWAP1 POP PUSH2 0x328 PUSH1 0x0 DUP4 ADD DUP5 PUSH2 0x2CC JUMP JUMPDEST SWAP3 SWAP2 POP POP JUMP JUMPDEST PUSH1 0x0 PUSH1 0x20 DUP3 ADD SWAP1 POP PUSH2 0x343 PUSH1 0x0 DUP4 ADD DUP5 PUSH2 0x2DB JUMP JUMPDEST SWAP3 SWAP2 POP POP JUMP JUMPDEST PUSH1 0x0 PUSH2 0x354 DUP3 PUSH2 0x411 JUMP JUMPDEST SWAP2 POP PUSH2 0x35F DUP4 PUSH2 0x411 JUMP JUMPDEST SWAP3 POP DUP3 PUSH32 0xFFFFFFFFFFFFFFFFFFFFFFFFFFFFFFFFFFFFFFFFFFFFFFFFFFFFFFFFFFFFFFFF SUB DUP3 GT ISZERO PUSH2 0x394 JUMPI PUSH2 0x393 PUSH2 0x41B JUMP JUMPDEST JUMPDEST DUP3 DUP3 ADD SWAP1 POP SWAP3 SWAP2 POP POP JUMP JUMPDEST PUSH1 0x0 PUSH2 0x3AA DUP3 PUSH2 0x411 JUMP JUMPDEST SWAP2 POP PUSH2 0x3B5 DUP4 PUSH2 0x411 JUMP JUMPDEST SWAP3 POP DUP3 DUP3 LT ISZERO PUSH2 0x3C8 JUMPI PUSH2 0x3C7 PUSH2 0x41B JUMP JUMPDEST JUMPDEST DUP3 DUP3 SUB SWAP1 POP SWAP3 SWAP2 POP POP JUMP JUMPDEST PUSH1 0x0 PUSH2 0x3DE DUP3 PUSH2 0x3F1 JUMP JUMPDEST SWAP1 POP SWAP2 SWAP1 POP JUMP JUMPDEST PUSH1 0x0 DUP2 ISZERO ISZERO SWAP1 POP SWAP2 SWAP1 POP JUMP JUMPDEST PUSH1 0x0 PUSH20 0xFFFFFFFFFFFFFFFFFFFFFFFFFFFFFFFFFFFFFFFF DUP3 AND SWAP1 POP SWAP2 SWAP1 POP JUMP JUMPDEST PUSH1 0x0 DUP2 SWAP1 POP SWAP2 SWAP1 POP JUMP JUMPDEST PUSH32 0x4E487B7100000000000000000000000000000000000000000000000000000000 PUSH1 0x0 MSTORE PUSH1 0x11 PUSH1 0x4 MSTORE PUSH1 0x24 PUSH1 0x0 REVERT JUMPDEST PUSH1 0x0 DUP1 REVERT JUMPDEST PUSH2 0x458 DUP2 PUSH2 0x411 JUMP JUMPDEST DUP2 EQ PUSH2 0x463 JUMPI PUSH1 0x0 DUP1 REVERT JUMPDEST POP JUMP INVALID LOG2 PUSH5 0x6970667358 0x22 SLT KECCAK256 0xB1 0x4D 0xAB CALLDATALOAD PUSH17 0x6B73FD6EB2781FAB15A3FAA21C11A051F PUSH30 0x75E6BC8DFE0A6926F464736F6C6343000807003300000000000000000000 "
				},
				"gasEstimates": {
					"creation": {
						"codeDepositCost": "236000",
						"executionCost": "93206",
						"totalCost": "329206"
					},
					"external": {
						"_acc1()": "4828",
						"_acc2()": "4806",
						"addAmount(uint256)": "infinite",
						"addAmount2(uint256)": "infinite",
						"transfer(uint256)": "infinite",
						"withdraw(uint256)": "infinite"
					}
				},
				"methodIdentifiers": {
					"_acc1()": "f2aec8de",
					"_acc2()": "dc9320d4",
					"addAmount(uint256)": "0912f232",
					"addAmount2(uint256)": "8df0aa5f",
					"transfer(uint256)": "12514bba",
					"withdraw(uint256)": "2e1a7d4d"
				}
			},
			"storageLayout": {
				"storage": [
					{
						"astId": 27,
						"contract": "contracts/myLearning/AccountStrut.sol:AccountStrut",
						"label": "_acc1",
						"offset": 0,
						"slot": "0",
						"type": "t_struct(Account)20_storage"
					},
					{
						"astId": 35,
						"contract": "contracts/myLearning/AccountStrut.sol:AccountStrut",
						"label": "_acc2",
						"offset": 0,
						"slot": "2",
						"type": "t_struct(Account)20_storage"
					}
				],
				"types": {
					"t_address": {
						"encoding": "inplace",
						"label": "address",
						"numberOfBytes": "20"
					},
					"t_struct(Account)20_storage": {
						"encoding": "inplace",
						"label": "struct AccountStrut.Account",
						"members": [
							{
								"astId": 17,
								"contract": "contracts/myLearning/AccountStrut.sol:AccountStrut",
								"label": "_address",
								"offset": 0,
								"slot": "0",
								"type": "t_address"
							},
							{
								"astId": 19,
								"contract": "contracts/myLearning/AccountStrut.sol:AccountStrut",
								"label": "_amount",
								"offset": 0,
								"slot": "1",
								"type": "t_uint256"
							}
						],
						"numberOfBytes": "64"
					},
					"t_uint256": {
						"encoding": "inplace",
						"label": "uint256",
						"numberOfBytes": "32"
					}
				}
			},
			"userdoc": {
				"kind": "user",
				"methods": {},
				"version": 1
			}
		}
	}
}