{
	"contracts/myLearning/AccountStrut.sol": {
		"AccountStrut": {
			"abi": [
				{
					"inputs": [],
					"name": "_acc1",
					"outputs": [
						{
							"internalType": "address",
							"name": "_address",
							"type": "address"
						},
						{
							"internalType": "uint256",
							"name": "_amount",
							"type": "uint256"
						}
					],
					"stateMutability": "view",
					"type": "function"
				},
				{
					"inputs": [],
					"name": "_acc2",
					"outputs": [
						{
							"internalType": "address",
							"name": "_address",
							"type": "address"
						},
						{
							"internalType": "uint256",
							"name": "_amount",
							"type": "uint256"
						}
					],
					"stateMutability": "view",
					"type": "function"
				}
			],
			"devdoc": {
				"kind": "dev",
				"methods": {},
				"version": 1
			},
			"evm": {
				"assembly": "    /* \"contracts/myLearning/AccountStrut.sol\":73:421  contract AccountStrut {\r... */\n  mstore(0x40, 0x80)\n    /* \"contracts/myLearning/AccountStrut.sol\":206:307  Account({\r... */\n  mload(0x40)\n  dup1\n  0x40\n  add\n  0x40\n  mstore\n  dup1\n    /* \"contracts/myLearning/AccountStrut.sol\":235:277  0xAb8483F64d9C6d1EcF9b849Ae677dD3315835cb2 */\n  0xab8483f64d9c6d1ecf9b849ae677dd3315835cb2\n    /* \"contracts/myLearning/AccountStrut.sol\":206:307  Account({\r... */\n  0xffffffffffffffffffffffffffffffffffffffff\n  and\n  dup2\n  mstore\n  0x20\n  add\n    /* \"contracts/myLearning/AccountStrut.sol\":297:299  50 */\n  0x32\n    /* \"contracts/myLearning/AccountStrut.sol\":206:307  Account({\r... */\n  dup2\n  mstore\n  pop\n    /* \"contracts/myLearning/AccountStrut.sol\":183:307  Account public _acc1 = Account({\r... */\n  0x00\n  dup1\n  dup3\n  add\n  mload\n  dup2\n  0x00\n  add\n  exp(0x0100, 0x00)\n  dup2\n  sload\n  dup2\n  0xffffffffffffffffffffffffffffffffffffffff\n  mul\n  not\n  and\n  swap1\n  dup4\n  0xffffffffffffffffffffffffffffffffffffffff\n  and\n  mul\n  or\n  swap1\n  sstore\n  pop\n  0x20\n  dup3\n  add\n  mload\n  dup2\n  0x01\n  add\n  sstore\n  pop\n  pop\n    /* \"contracts/myLearning/AccountStrut.sol\":339:409  Account({\r... */\n  mload(0x40)\n  dup1\n  0x40\n  add\n  0x40\n  mstore\n  dup1\n    /* \"contracts/myLearning/AccountStrut.sol\":368:378  msg.sender */\n  caller\n    /* \"contracts/myLearning/AccountStrut.sol\":339:409  Account({\r... */\n  0xffffffffffffffffffffffffffffffffffffffff\n  and\n  dup2\n  mstore\n  0x20\n  add\n    /* \"contracts/myLearning/AccountStrut.sol\":398:401  100 */\n  0x64\n    /* \"contracts/myLearning/AccountStrut.sol\":339:409  Account({\r... */\n  dup2\n  mstore\n  pop\n    /* \"contracts/myLearning/AccountStrut.sol\":316:409  Account public _acc2 = Account({\r... */\n  0x02\n  0x00\n  dup3\n  add\n  mload\n  dup2\n  0x00\n  add\n  exp(0x0100, 0x00)\n  dup2\n  sload\n  dup2\n  0xffffffffffffffffffffffffffffffffffffffff\n  mul\n  not\n  and\n  swap1\n  dup4\n  0xffffffffffffffffffffffffffffffffffffffff\n  and\n  mul\n  or\n  swap1\n  sstore\n  pop\n  0x20\n  dup3\n  add\n  mload\n  dup2\n  0x01\n  add\n  sstore\n  pop\n  pop\n    /* \"contracts/myLearning/AccountStrut.sol\":73:421  contract AccountStrut {\r... */\n  callvalue\n  dup1\n  iszero\n  tag_1\n  jumpi\n  0x00\n  dup1\n  revert\ntag_1:\n  pop\n  dataSize(sub_0)\n  dup1\n  dataOffset(sub_0)\n  0x00\n  codecopy\n  0x00\n  return\nstop\n\nsub_0: assembly {\n        /* \"contracts/myLearning/AccountStrut.sol\":73:421  contract AccountStrut {\r... */\n      mstore(0x40, 0x80)\n      callvalue\n      dup1\n      iszero\n      tag_1\n      jumpi\n      0x00\n      dup1\n      revert\n    tag_1:\n      pop\n      jumpi(tag_2, lt(calldatasize, 0x04))\n      shr(0xe0, calldataload(0x00))\n      dup1\n      0xdc9320d4\n      eq\n      tag_3\n      jumpi\n      dup1\n      0xf2aec8de\n      eq\n      tag_4\n      jumpi\n    tag_2:\n      0x00\n      dup1\n      revert\n        /* \"contracts/myLearning/AccountStrut.sol\":316:409  Account public _acc2 = Account({\r... */\n    tag_3:\n      tag_5\n      tag_6\n      jump\t// in\n    tag_5:\n      mload(0x40)\n      tag_7\n      swap3\n      swap2\n      swap1\n      tag_8\n      jump\t// in\n    tag_7:\n      mload(0x40)\n      dup1\n      swap2\n      sub\n      swap1\n      return\n        /* \"contracts/myLearning/AccountStrut.sol\":183:307  Account public _acc1 = Account({\r... */\n    tag_4:\n      tag_9\n      tag_10\n      jump\t// in\n    tag_9:\n      mload(0x40)\n      tag_11\n      swap3\n      swap2\n      swap1\n      tag_8\n      jump\t// in\n    tag_11:\n      mload(0x40)\n      dup1\n      swap2\n      sub\n      swap1\n      return\n        /* \"contracts/myLearning/AccountStrut.sol\":316:409  Account public _acc2 = Account({\r... */\n    tag_6:\n      0x02\n      dup1\n      0x00\n      add\n      0x00\n      swap1\n      sload\n      swap1\n      0x0100\n      exp\n      swap1\n      div\n      0xffffffffffffffffffffffffffffffffffffffff\n      and\n      swap1\n      dup1\n      0x01\n      add\n      sload\n      swap1\n      pop\n      dup3\n      jump\t// out\n        /* \"contracts/myLearning/AccountStrut.sol\":183:307  Account public _acc1 = Account({\r... */\n    tag_10:\n      0x00\n      dup1\n      0x00\n      add\n      0x00\n      swap1\n      sload\n      swap1\n      0x0100\n      exp\n      swap1\n      div\n      0xffffffffffffffffffffffffffffffffffffffff\n      and\n      swap1\n      dup1\n      0x01\n      add\n      sload\n      swap1\n      pop\n      dup3\n      jump\t// out\n        /* \"#utility.yul\":7:125   */\n    tag_13:\n        /* \"#utility.yul\":94:118   */\n      tag_15\n        /* \"#utility.yul\":112:117   */\n      dup2\n        /* \"#utility.yul\":94:118   */\n      tag_16\n      jump\t// in\n    tag_15:\n        /* \"#utility.yul\":89:92   */\n      dup3\n        /* \"#utility.yul\":82:119   */\n      mstore\n        /* \"#utility.yul\":7:125   */\n      pop\n      pop\n      jump\t// out\n        /* \"#utility.yul\":131:249   */\n    tag_17:\n        /* \"#utility.yul\":218:242   */\n      tag_19\n        /* \"#utility.yul\":236:241   */\n      dup2\n        /* \"#utility.yul\":218:242   */\n      tag_20\n      jump\t// in\n    tag_19:\n        /* \"#utility.yul\":213:216   */\n      dup3\n        /* \"#utility.yul\":206:243   */\n      mstore\n        /* \"#utility.yul\":131:249   */\n      pop\n      pop\n      jump\t// out\n        /* \"#utility.yul\":255:587   */\n    tag_8:\n        /* \"#utility.yul\":376:380   */\n      0x00\n        /* \"#utility.yul\":414:416   */\n      0x40\n        /* \"#utility.yul\":403:412   */\n      dup3\n        /* \"#utility.yul\":399:417   */\n      add\n        /* \"#utility.yul\":391:417   */\n      swap1\n      pop\n        /* \"#utility.yul\":427:498   */\n      tag_22\n        /* \"#utility.yul\":495:496   */\n      0x00\n        /* \"#utility.yul\":484:493   */\n      dup4\n        /* \"#utility.yul\":480:497   */\n      add\n        /* \"#utility.yul\":471:477   */\n      dup6\n        /* \"#utility.yul\":427:498   */\n      tag_13\n      jump\t// in\n    tag_22:\n        /* \"#utility.yul\":508:580   */\n      tag_23\n        /* \"#utility.yul\":576:578   */\n      0x20\n        /* \"#utility.yul\":565:574   */\n      dup4\n        /* \"#utility.yul\":561:579   */\n      add\n        /* \"#utility.yul\":552:558   */\n      dup5\n        /* \"#utility.yul\":508:580   */\n      tag_17\n      jump\t// in\n    tag_23:\n        /* \"#utility.yul\":255:587   */\n      swap4\n      swap3\n      pop\n      pop\n      pop\n      jump\t// out\n        /* \"#utility.yul\":593:689   */\n    tag_16:\n        /* \"#utility.yul\":630:637   */\n      0x00\n        /* \"#utility.yul\":659:683   */\n      tag_25\n        /* \"#utility.yul\":677:682   */\n      dup3\n        /* \"#utility.yul\":659:683   */\n      tag_26\n      jump\t// in\n    tag_25:\n        /* \"#utility.yul\":648:683   */\n      swap1\n      pop\n        /* \"#utility.yul\":593:689   */\n      swap2\n      swap1\n      pop\n      jump\t// out\n        /* \"#utility.yul\":695:821   */\n    tag_26:\n        /* \"#utility.yul\":732:739   */\n      0x00\n        /* \"#utility.yul\":772:814   */\n      0xffffffffffffffffffffffffffffffffffffffff\n        /* \"#utility.yul\":765:770   */\n      dup3\n        /* \"#utility.yul\":761:815   */\n      and\n        /* \"#utility.yul\":750:815   */\n      swap1\n      pop\n        /* \"#utility.yul\":695:821   */\n      swap2\n      swap1\n      pop\n      jump\t// out\n        /* \"#utility.yul\":827:904   */\n    tag_20:\n        /* \"#utility.yul\":864:871   */\n      0x00\n        /* \"#utility.yul\":893:898   */\n      dup2\n        /* \"#utility.yul\":882:898   */\n      swap1\n      pop\n        /* \"#utility.yul\":827:904   */\n      swap2\n      swap1\n      pop\n      jump\t// out\n\n    auxdata: 0xa2646970667358221220aeee2b2f3f3e86ec0ce7e486b5733c9c73420306c1477fcbec0c6ba94ae2d18c64736f6c63430008070033\n}\n",
				"bytecode": {
					"linkReferences": {},
					"object": "6080604052604051806040016040528073ab8483f64d9c6d1ecf9b849ae677dd3315835cb273ffffffffffffffffffffffffffffffffffffffff16815260200160328152506000808201518160000160006101000a81548173ffffffffffffffffffffffffffffffffffffffff021916908373ffffffffffffffffffffffffffffffffffffffff16021790555060208201518160010155505060405180604001604052803373ffffffffffffffffffffffffffffffffffffffff1681526020016064815250600260008201518160000160006101000a81548173ffffffffffffffffffffffffffffffffffffffff021916908373ffffffffffffffffffffffffffffffffffffffff16021790555060208201518160010155505034801561012557600080fd5b50610196806101356000396000f3fe608060405234801561001057600080fd5b50600436106100365760003560e01c8063dc9320d41461003b578063f2aec8de1461005a575b600080fd5b610043610079565b6040516100519291906100fb565b60405180910390f35b6100626100ab565b6040516100709291906100fb565b60405180910390f35b60028060000160009054906101000a900473ffffffffffffffffffffffffffffffffffffffff16908060010154905082565b60008060000160009054906101000a900473ffffffffffffffffffffffffffffffffffffffff16908060010154905082565b6100e681610124565b82525050565b6100f581610156565b82525050565b600060408201905061011060008301856100dd565b61011d60208301846100ec565b9392505050565b600061012f82610136565b9050919050565b600073ffffffffffffffffffffffffffffffffffffffff82169050919050565b600081905091905056fea2646970667358221220aeee2b2f3f3e86ec0ce7e486b5733c9c73420306c1477fcbec0c6ba94ae2d18c64736f6c63430008070033",
					"opcodes": "PUSH1 0x80 PUSH1 0x40 MSTORE PUSH1 0x40 MLOAD DUP1 PUSH1 0x40 ADD PUSH1 0x40 MSTORE DUP1 PUSH20 0xAB8483F64D9C6D1ECF9B849AE677DD3315835CB2 PUSH20 0xFFFFFFFFFFFFFFFFFFFFFFFFFFFFFFFFFFFFFFFF AND DUP2 MSTORE PUSH1 0x20 ADD PUSH1 0x32 DUP2 MSTORE POP PUSH1 0x0 DUP1 DUP3 ADD MLOAD DUP2 PUSH1 0x0 ADD PUSH1 0x0 PUSH2 0x100 EXP DUP2 SLOAD DUP2 PUSH20 0xFFFFFFFFFFFFFFFFFFFFFFFFFFFFFFFFFFFFFFFF MUL NOT AND SWAP1 DUP4 PUSH20 0xFFFFFFFFFFFFFFFFFFFFFFFFFFFFFFFFFFFFFFFF AND MUL OR SWAP1 SSTORE POP PUSH1 0x20 DUP3 ADD MLOAD DUP2 PUSH1 0x1 ADD SSTORE POP POP PUSH1 0x40 MLOAD DUP1 PUSH1 0x40 ADD PUSH1 0x40 MSTORE DUP1 CALLER PUSH20 0xFFFFFFFFFFFFFFFFFFFFFFFFFFFFFFFFFFFFFFFF AND DUP2 MSTORE PUSH1 0x20 ADD PUSH1 0x64 DUP2 MSTORE POP PUSH1 0x2 PUSH1 0x0 DUP3 ADD MLOAD DUP2 PUSH1 0x0 ADD PUSH1 0x0 PUSH2 0x100 EXP DUP2 SLOAD DUP2 PUSH20 0xFFFFFFFFFFFFFFFFFFFFFFFFFFFFFFFFFFFFFFFF MUL NOT AND SWAP1 DUP4 PUSH20 0xFFFFFFFFFFFFFFFFFFFFFFFFFFFFFFFFFFFFFFFF AND MUL OR SWAP1 SSTORE POP PUSH1 0x20 DUP3 ADD MLOAD DUP2 PUSH1 0x1 ADD SSTORE POP POP CALLVALUE DUP1 ISZERO PUSH2 0x125 JUMPI PUSH1 0x0 DUP1 REVERT JUMPDEST POP PUSH2 0x196 DUP1 PUSH2 0x135 PUSH1 0x0 CODECOPY PUSH1 0x0 RETURN INVALID PUSH1 0x80 PUSH1 0x40 MSTORE CALLVALUE DUP1 ISZERO PUSH2 0x10 JUMPI PUSH1 0x0 DUP1 REVERT JUMPDEST POP PUSH1 0x4 CALLDATASIZE LT PUSH2 0x36 JUMPI PUSH1 0x0 CALLDATALOAD PUSH1 0xE0 SHR DUP1 PUSH4 0xDC9320D4 EQ PUSH2 0x3B JUMPI DUP1 PUSH4 0xF2AEC8DE EQ PUSH2 0x5A JUMPI JUMPDEST PUSH1 0x0 DUP1 REVERT JUMPDEST PUSH2 0x43 PUSH2 0x79 JUMP JUMPDEST PUSH1 0x40 MLOAD PUSH2 0x51 SWAP3 SWAP2 SWAP1 PUSH2 0xFB JUMP JUMPDEST PUSH1 0x40 MLOAD DUP1 SWAP2 SUB SWAP1 RETURN JUMPDEST PUSH2 0x62 PUSH2 0xAB JUMP JUMPDEST PUSH1 0x40 MLOAD PUSH2 0x70 SWAP3 SWAP2 SWAP1 PUSH2 0xFB JUMP JUMPDEST PUSH1 0x40 MLOAD DUP1 SWAP2 SUB SWAP1 RETURN JUMPDEST PUSH1 0x2 DUP1 PUSH1 0x0 ADD PUSH1 0x0 SWAP1 SLOAD SWAP1 PUSH2 0x100 EXP SWAP1 DIV PUSH20 0xFFFFFFFFFFFFFFFFFFFFFFFFFFFFFFFFFFFFFFFF AND SWAP1 DUP1 PUSH1 0x1 ADD SLOAD SWAP1 POP DUP3 JUMP JUMPDEST PUSH1 0x0 DUP1 PUSH1 0x0 ADD PUSH1 0x0 SWAP1 SLOAD SWAP1 PUSH2 0x100 EXP SWAP1 DIV PUSH20 0xFFFFFFFFFFFFFFFFFFFFFFFFFFFFFFFFFFFFFFFF AND SWAP1 DUP1 PUSH1 0x1 ADD SLOAD SWAP1 POP DUP3 JUMP JUMPDEST PUSH2 0xE6 DUP2 PUSH2 0x124 JUMP JUMPDEST DUP3 MSTORE POP POP JUMP JUMPDEST PUSH2 0xF5 DUP2 PUSH2 0x156 JUMP JUMPDEST DUP3 MSTORE POP POP JUMP JUMPDEST PUSH1 0x0 PUSH1 0x40 DUP3 ADD SWAP1 POP PUSH2 0x110 PUSH1 0x0 DUP4 ADD DUP6 PUSH2 0xDD JUMP JUMPDEST PUSH2 0x11D PUSH1 0x20 DUP4 ADD DUP5 PUSH2 0xEC JUMP JUMPDEST SWAP4 SWAP3 POP POP POP JUMP JUMPDEST PUSH1 0x0 PUSH2 0x12F DUP3 PUSH2 0x136 JUMP JUMPDEST SWAP1 POP SWAP2 SWAP1 POP JUMP JUMPDEST PUSH1 0x0 PUSH20 0xFFFFFFFFFFFFFFFFFFFFFFFFFFFFFFFFFFFFFFFF DUP3 AND SWAP1 POP SWAP2 SWAP1 POP JUMP JUMPDEST PUSH1 0x0 DUP2 SWAP1 POP SWAP2 SWAP1 POP JUMP INVALID LOG2 PUSH5 0x6970667358 0x22 SLT KECCAK256 0xAE 0xEE 0x2B 0x2F EXTCODEHASH RETURNDATACOPY DUP7 0xEC 0xC 0xE7 0xE4 DUP7 0xB5 PUSH20 0x3C9C73420306C1477FCBEC0C6BA94AE2D18C6473 PUSH16 0x6C634300080700330000000000000000 "
				},
				"gasEstimates": {
					"creation": {
						"codeDepositCost": "81200",
						"executionCost": "93060",
						"totalCost": "174260"
					},
					"external": {
						"_acc1()": "4740",
						"_acc2()": "4718"
					}
				},
				"methodIdentifiers": {
					"_acc1()": "f2aec8de",
					"_acc2()": "dc9320d4"
				}
			},
			"storageLayout": {
				"storage": [
					{
						"astId": 13,
						"contract": "contracts/myLearning/AccountStrut.sol:AccountStrut",
						"label": "_acc1",
						"offset": 0,
						"slot": "0",
						"type": "t_struct(Account)6_storage"
					},
					{
						"astId": 21,
						"contract": "contracts/myLearning/AccountStrut.sol:AccountStrut",
						"label": "_acc2",
						"offset": 0,
						"slot": "2",
						"type": "t_struct(Account)6_storage"
					}
				],
				"types": {
					"t_address": {
						"encoding": "inplace",
						"label": "address",
						"numberOfBytes": "20"
					},
					"t_struct(Account)6_storage": {
						"encoding": "inplace",
						"label": "struct AccountStrut.Account",
						"members": [
							{
								"astId": 3,
								"contract": "contracts/myLearning/AccountStrut.sol:AccountStrut",
								"label": "_address",
								"offset": 0,
								"slot": "0",
								"type": "t_address"
							},
							{
								"astId": 5,
								"contract": "contracts/myLearning/AccountStrut.sol:AccountStrut",
								"label": "_amount",
								"offset": 0,
								"slot": "1",
								"type": "t_uint256"
							}
						],
						"numberOfBytes": "64"
					},
					"t_uint256": {
						"encoding": "inplace",
						"label": "uint256",
						"numberOfBytes": "32"
					}
				}
			},
			"userdoc": {
				"kind": "user",
				"methods": {},
				"version": 1
			}
		}
	}
}