{
	"contracts/myLearning/AccountStrut.sol": {
		"AccountStrut": {
			"abi": [
				{
					"inputs": [],
					"name": "_acc1",
					"outputs": [
						{
							"internalType": "address",
							"name": "_address",
							"type": "address"
						},
						{
							"internalType": "uint256",
							"name": "_amount",
							"type": "uint256"
						}
					],
					"stateMutability": "view",
					"type": "function"
				},
				{
					"inputs": [],
					"name": "_acc2",
					"outputs": [
						{
							"internalType": "address",
							"name": "_address",
							"type": "address"
						},
						{
							"internalType": "uint256",
							"name": "_amount",
							"type": "uint256"
						}
					],
					"stateMutability": "view",
					"type": "function"
				},
				{
					"inputs": [
						{
							"internalType": "uint256",
							"name": "_addMoney",
							"type": "uint256"
						}
					],
					"name": "addAmount",
					"outputs": [],
					"stateMutability": "nonpayable",
					"type": "function"
				}
			],
			"devdoc": {
				"kind": "dev",
				"methods": {},
				"version": 1
			},
			"evm": {
				"assembly": "    /* \"contracts/myLearning/AccountStrut.sol\":73:481  contract AccountStrut {\r... */\n  mstore(0x40, 0x80)\n    /* \"contracts/myLearning/AccountStrut.sol\":206:307  Account({\r... */\n  mload(0x40)\n  dup1\n  0x40\n  add\n  0x40\n  mstore\n  dup1\n    /* \"contracts/myLearning/AccountStrut.sol\":235:277  0xAb8483F64d9C6d1EcF9b849Ae677dD3315835cb2 */\n  0xab8483f64d9c6d1ecf9b849ae677dd3315835cb2\n    /* \"contracts/myLearning/AccountStrut.sol\":206:307  Account({\r... */\n  0xffffffffffffffffffffffffffffffffffffffff\n  and\n  dup2\n  mstore\n  0x20\n  add\n    /* \"contracts/myLearning/AccountStrut.sol\":297:299  50 */\n  0x32\n    /* \"contracts/myLearning/AccountStrut.sol\":206:307  Account({\r... */\n  dup2\n  mstore\n  pop\n    /* \"contracts/myLearning/AccountStrut.sol\":183:307  Account public _acc1 = Account({\r... */\n  0x00\n  dup1\n  dup3\n  add\n  mload\n  dup2\n  0x00\n  add\n  exp(0x0100, 0x00)\n  dup2\n  sload\n  dup2\n  0xffffffffffffffffffffffffffffffffffffffff\n  mul\n  not\n  and\n  swap1\n  dup4\n  0xffffffffffffffffffffffffffffffffffffffff\n  and\n  mul\n  or\n  swap1\n  sstore\n  pop\n  0x20\n  dup3\n  add\n  mload\n  dup2\n  0x01\n  add\n  sstore\n  pop\n  pop\n    /* \"contracts/myLearning/AccountStrut.sol\":339:409  Account({\r... */\n  mload(0x40)\n  dup1\n  0x40\n  add\n  0x40\n  mstore\n  dup1\n    /* \"contracts/myLearning/AccountStrut.sol\":368:378  msg.sender */\n  caller\n    /* \"contracts/myLearning/AccountStrut.sol\":339:409  Account({\r... */\n  0xffffffffffffffffffffffffffffffffffffffff\n  and\n  dup2\n  mstore\n  0x20\n  add\n    /* \"contracts/myLearning/AccountStrut.sol\":398:401  100 */\n  0x64\n    /* \"contracts/myLearning/AccountStrut.sol\":339:409  Account({\r... */\n  dup2\n  mstore\n  pop\n    /* \"contracts/myLearning/AccountStrut.sol\":316:409  Account public _acc2 = Account({\r... */\n  0x02\n  0x00\n  dup3\n  add\n  mload\n  dup2\n  0x00\n  add\n  exp(0x0100, 0x00)\n  dup2\n  sload\n  dup2\n  0xffffffffffffffffffffffffffffffffffffffff\n  mul\n  not\n  and\n  swap1\n  dup4\n  0xffffffffffffffffffffffffffffffffffffffff\n  and\n  mul\n  or\n  swap1\n  sstore\n  pop\n  0x20\n  dup3\n  add\n  mload\n  dup2\n  0x01\n  add\n  sstore\n  pop\n  pop\n    /* \"contracts/myLearning/AccountStrut.sol\":73:481  contract AccountStrut {\r... */\n  callvalue\n  dup1\n  iszero\n  tag_1\n  jumpi\n  0x00\n  dup1\n  revert\ntag_1:\n  pop\n  dataSize(sub_0)\n  dup1\n  dataOffset(sub_0)\n  0x00\n  codecopy\n  0x00\n  return\nstop\n\nsub_0: assembly {\n        /* \"contracts/myLearning/AccountStrut.sol\":73:481  contract AccountStrut {\r... */\n      mstore(0x40, 0x80)\n      callvalue\n      dup1\n      iszero\n      tag_1\n      jumpi\n      0x00\n      dup1\n      revert\n    tag_1:\n      pop\n      jumpi(tag_2, lt(calldatasize, 0x04))\n      shr(0xe0, calldataload(0x00))\n      dup1\n      0x0912f232\n      eq\n      tag_3\n      jumpi\n      dup1\n      0xdc9320d4\n      eq\n      tag_4\n      jumpi\n      dup1\n      0xf2aec8de\n      eq\n      tag_5\n      jumpi\n    tag_2:\n      0x00\n      dup1\n      revert\n        /* \"contracts/myLearning/AccountStrut.sol\":418:478  function addAmount(uint _addMoney) public {\r... */\n    tag_3:\n      tag_6\n      0x04\n      dup1\n      calldatasize\n      sub\n      dup2\n      add\n      swap1\n      tag_7\n      swap2\n      swap1\n      tag_8\n      jump\t// in\n    tag_7:\n      tag_9\n      jump\t// in\n    tag_6:\n      stop\n        /* \"contracts/myLearning/AccountStrut.sol\":316:409  Account public _acc2 = Account({\r... */\n    tag_4:\n      tag_10\n      tag_11\n      jump\t// in\n    tag_10:\n      mload(0x40)\n      tag_12\n      swap3\n      swap2\n      swap1\n      tag_13\n      jump\t// in\n    tag_12:\n      mload(0x40)\n      dup1\n      swap2\n      sub\n      swap1\n      return\n        /* \"contracts/myLearning/AccountStrut.sol\":183:307  Account public _acc1 = Account({\r... */\n    tag_5:\n      tag_14\n      tag_15\n      jump\t// in\n    tag_14:\n      mload(0x40)\n      tag_16\n      swap3\n      swap2\n      swap1\n      tag_13\n      jump\t// in\n    tag_16:\n      mload(0x40)\n      dup1\n      swap2\n      sub\n      swap1\n      return\n        /* \"contracts/myLearning/AccountStrut.sol\":418:478  function addAmount(uint _addMoney) public {\r... */\n    tag_9:\n      pop\n      jump\t// out\n        /* \"contracts/myLearning/AccountStrut.sol\":316:409  Account public _acc2 = Account({\r... */\n    tag_11:\n      0x02\n      dup1\n      0x00\n      add\n      0x00\n      swap1\n      sload\n      swap1\n      0x0100\n      exp\n      swap1\n      div\n      0xffffffffffffffffffffffffffffffffffffffff\n      and\n      swap1\n      dup1\n      0x01\n      add\n      sload\n      swap1\n      pop\n      dup3\n      jump\t// out\n        /* \"contracts/myLearning/AccountStrut.sol\":183:307  Account public _acc1 = Account({\r... */\n    tag_15:\n      0x00\n      dup1\n      0x00\n      add\n      0x00\n      swap1\n      sload\n      swap1\n      0x0100\n      exp\n      swap1\n      div\n      0xffffffffffffffffffffffffffffffffffffffff\n      and\n      swap1\n      dup1\n      0x01\n      add\n      sload\n      swap1\n      pop\n      dup3\n      jump\t// out\n        /* \"#utility.yul\":7:146   */\n    tag_19:\n        /* \"#utility.yul\":53:58   */\n      0x00\n        /* \"#utility.yul\":91:97   */\n      dup2\n        /* \"#utility.yul\":78:98   */\n      calldataload\n        /* \"#utility.yul\":69:98   */\n      swap1\n      pop\n        /* \"#utility.yul\":107:140   */\n      tag_21\n        /* \"#utility.yul\":134:139   */\n      dup2\n        /* \"#utility.yul\":107:140   */\n      tag_22\n      jump\t// in\n    tag_21:\n        /* \"#utility.yul\":7:146   */\n      swap3\n      swap2\n      pop\n      pop\n      jump\t// out\n        /* \"#utility.yul\":152:481   */\n    tag_8:\n        /* \"#utility.yul\":211:217   */\n      0x00\n        /* \"#utility.yul\":260:262   */\n      0x20\n        /* \"#utility.yul\":248:257   */\n      dup3\n        /* \"#utility.yul\":239:246   */\n      dup5\n        /* \"#utility.yul\":235:258   */\n      sub\n        /* \"#utility.yul\":231:263   */\n      slt\n        /* \"#utility.yul\":228:347   */\n      iszero\n      tag_24\n      jumpi\n        /* \"#utility.yul\":266:345   */\n      tag_25\n      tag_26\n      jump\t// in\n    tag_25:\n        /* \"#utility.yul\":228:347   */\n    tag_24:\n        /* \"#utility.yul\":386:387   */\n      0x00\n        /* \"#utility.yul\":411:464   */\n      tag_27\n        /* \"#utility.yul\":456:463   */\n      dup5\n        /* \"#utility.yul\":447:453   */\n      dup3\n        /* \"#utility.yul\":436:445   */\n      dup6\n        /* \"#utility.yul\":432:454   */\n      add\n        /* \"#utility.yul\":411:464   */\n      tag_19\n      jump\t// in\n    tag_27:\n        /* \"#utility.yul\":401:464   */\n      swap2\n      pop\n        /* \"#utility.yul\":357:474   */\n      pop\n        /* \"#utility.yul\":152:481   */\n      swap3\n      swap2\n      pop\n      pop\n      jump\t// out\n        /* \"#utility.yul\":487:605   */\n    tag_28:\n        /* \"#utility.yul\":574:598   */\n      tag_30\n        /* \"#utility.yul\":592:597   */\n      dup2\n        /* \"#utility.yul\":574:598   */\n      tag_31\n      jump\t// in\n    tag_30:\n        /* \"#utility.yul\":569:572   */\n      dup3\n        /* \"#utility.yul\":562:599   */\n      mstore\n        /* \"#utility.yul\":487:605   */\n      pop\n      pop\n      jump\t// out\n        /* \"#utility.yul\":611:729   */\n    tag_32:\n        /* \"#utility.yul\":698:722   */\n      tag_34\n        /* \"#utility.yul\":716:721   */\n      dup2\n        /* \"#utility.yul\":698:722   */\n      tag_35\n      jump\t// in\n    tag_34:\n        /* \"#utility.yul\":693:696   */\n      dup3\n        /* \"#utility.yul\":686:723   */\n      mstore\n        /* \"#utility.yul\":611:729   */\n      pop\n      pop\n      jump\t// out\n        /* \"#utility.yul\":735:1067   */\n    tag_13:\n        /* \"#utility.yul\":856:860   */\n      0x00\n        /* \"#utility.yul\":894:896   */\n      0x40\n        /* \"#utility.yul\":883:892   */\n      dup3\n        /* \"#utility.yul\":879:897   */\n      add\n        /* \"#utility.yul\":871:897   */\n      swap1\n      pop\n        /* \"#utility.yul\":907:978   */\n      tag_37\n        /* \"#utility.yul\":975:976   */\n      0x00\n        /* \"#utility.yul\":964:973   */\n      dup4\n        /* \"#utility.yul\":960:977   */\n      add\n        /* \"#utility.yul\":951:957   */\n      dup6\n        /* \"#utility.yul\":907:978   */\n      tag_28\n      jump\t// in\n    tag_37:\n        /* \"#utility.yul\":988:1060   */\n      tag_38\n        /* \"#utility.yul\":1056:1058   */\n      0x20\n        /* \"#utility.yul\":1045:1054   */\n      dup4\n        /* \"#utility.yul\":1041:1059   */\n      add\n        /* \"#utility.yul\":1032:1038   */\n      dup5\n        /* \"#utility.yul\":988:1060   */\n      tag_32\n      jump\t// in\n    tag_38:\n        /* \"#utility.yul\":735:1067   */\n      swap4\n      swap3\n      pop\n      pop\n      pop\n      jump\t// out\n        /* \"#utility.yul\":1154:1250   */\n    tag_31:\n        /* \"#utility.yul\":1191:1198   */\n      0x00\n        /* \"#utility.yul\":1220:1244   */\n      tag_42\n        /* \"#utility.yul\":1238:1243   */\n      dup3\n        /* \"#utility.yul\":1220:1244   */\n      tag_43\n      jump\t// in\n    tag_42:\n        /* \"#utility.yul\":1209:1244   */\n      swap1\n      pop\n        /* \"#utility.yul\":1154:1250   */\n      swap2\n      swap1\n      pop\n      jump\t// out\n        /* \"#utility.yul\":1256:1382   */\n    tag_43:\n        /* \"#utility.yul\":1293:1300   */\n      0x00\n        /* \"#utility.yul\":1333:1375   */\n      0xffffffffffffffffffffffffffffffffffffffff\n        /* \"#utility.yul\":1326:1331   */\n      dup3\n        /* \"#utility.yul\":1322:1376   */\n      and\n        /* \"#utility.yul\":1311:1376   */\n      swap1\n      pop\n        /* \"#utility.yul\":1256:1382   */\n      swap2\n      swap1\n      pop\n      jump\t// out\n        /* \"#utility.yul\":1388:1465   */\n    tag_35:\n        /* \"#utility.yul\":1425:1432   */\n      0x00\n        /* \"#utility.yul\":1454:1459   */\n      dup2\n        /* \"#utility.yul\":1443:1459   */\n      swap1\n      pop\n        /* \"#utility.yul\":1388:1465   */\n      swap2\n      swap1\n      pop\n      jump\t// out\n        /* \"#utility.yul\":1594:1711   */\n    tag_26:\n        /* \"#utility.yul\":1703:1704   */\n      0x00\n        /* \"#utility.yul\":1700:1701   */\n      dup1\n        /* \"#utility.yul\":1693:1705   */\n      revert\n        /* \"#utility.yul\":1717:1839   */\n    tag_22:\n        /* \"#utility.yul\":1790:1814   */\n      tag_50\n        /* \"#utility.yul\":1808:1813   */\n      dup2\n        /* \"#utility.yul\":1790:1814   */\n      tag_35\n      jump\t// in\n    tag_50:\n        /* \"#utility.yul\":1783:1788   */\n      dup2\n        /* \"#utility.yul\":1780:1815   */\n      eq\n        /* \"#utility.yul\":1770:1833   */\n      tag_51\n      jumpi\n        /* \"#utility.yul\":1829:1830   */\n      0x00\n        /* \"#utility.yul\":1826:1827   */\n      dup1\n        /* \"#utility.yul\":1819:1831   */\n      revert\n        /* \"#utility.yul\":1770:1833   */\n    tag_51:\n        /* \"#utility.yul\":1717:1839   */\n      pop\n      jump\t// out\n\n    auxdata: 0xa264697066735822122026ec741439205c11f51bedd9259b34b645cb484836afce57ed452b6aacaecbc264736f6c63430008070033\n}\n",
				"bytecode": {
					"linkReferences": {},
					"object": "6080604052604051806040016040528073ab8483f64d9c6d1ecf9b849ae677dd3315835cb273ffffffffffffffffffffffffffffffffffffffff16815260200160328152506000808201518160000160006101000a81548173ffffffffffffffffffffffffffffffffffffffff021916908373ffffffffffffffffffffffffffffffffffffffff16021790555060208201518160010155505060405180604001604052803373ffffffffffffffffffffffffffffffffffffffff1681526020016064815250600260008201518160000160006101000a81548173ffffffffffffffffffffffffffffffffffffffff021916908373ffffffffffffffffffffffffffffffffffffffff16021790555060208201518160010155505034801561012557600080fd5b5061021e806101356000396000f3fe608060405234801561001057600080fd5b50600436106100415760003560e01c80630912f23214610046578063dc9320d414610062578063f2aec8de14610081575b600080fd5b610060600480360381019061005b919061011c565b6100a0565b005b61006a6100a3565b604051610078929190610167565b60405180910390f35b6100896100d5565b604051610097929190610167565b60405180910390f35b50565b60028060000160009054906101000a900473ffffffffffffffffffffffffffffffffffffffff16908060010154905082565b60008060000160009054906101000a900473ffffffffffffffffffffffffffffffffffffffff16908060010154905082565b600081359050610116816101d1565b92915050565b600060208284031215610132576101316101cc565b5b600061014084828501610107565b91505092915050565b61015281610190565b82525050565b610161816101c2565b82525050565b600060408201905061017c6000830185610149565b6101896020830184610158565b9392505050565b600061019b826101a2565b9050919050565b600073ffffffffffffffffffffffffffffffffffffffff82169050919050565b6000819050919050565b600080fd5b6101da816101c2565b81146101e557600080fd5b5056fea264697066735822122026ec741439205c11f51bedd9259b34b645cb484836afce57ed452b6aacaecbc264736f6c63430008070033",
					"opcodes": "PUSH1 0x80 PUSH1 0x40 MSTORE PUSH1 0x40 MLOAD DUP1 PUSH1 0x40 ADD PUSH1 0x40 MSTORE DUP1 PUSH20 0xAB8483F64D9C6D1ECF9B849AE677DD3315835CB2 PUSH20 0xFFFFFFFFFFFFFFFFFFFFFFFFFFFFFFFFFFFFFFFF AND DUP2 MSTORE PUSH1 0x20 ADD PUSH1 0x32 DUP2 MSTORE POP PUSH1 0x0 DUP1 DUP3 ADD MLOAD DUP2 PUSH1 0x0 ADD PUSH1 0x0 PUSH2 0x100 EXP DUP2 SLOAD DUP2 PUSH20 0xFFFFFFFFFFFFFFFFFFFFFFFFFFFFFFFFFFFFFFFF MUL NOT AND SWAP1 DUP4 PUSH20 0xFFFFFFFFFFFFFFFFFFFFFFFFFFFFFFFFFFFFFFFF AND MUL OR SWAP1 SSTORE POP PUSH1 0x20 DUP3 ADD MLOAD DUP2 PUSH1 0x1 ADD SSTORE POP POP PUSH1 0x40 MLOAD DUP1 PUSH1 0x40 ADD PUSH1 0x40 MSTORE DUP1 CALLER PUSH20 0xFFFFFFFFFFFFFFFFFFFFFFFFFFFFFFFFFFFFFFFF AND DUP2 MSTORE PUSH1 0x20 ADD PUSH1 0x64 DUP2 MSTORE POP PUSH1 0x2 PUSH1 0x0 DUP3 ADD MLOAD DUP2 PUSH1 0x0 ADD PUSH1 0x0 PUSH2 0x100 EXP DUP2 SLOAD DUP2 PUSH20 0xFFFFFFFFFFFFFFFFFFFFFFFFFFFFFFFFFFFFFFFF MUL NOT AND SWAP1 DUP4 PUSH20 0xFFFFFFFFFFFFFFFFFFFFFFFFFFFFFFFFFFFFFFFF AND MUL OR SWAP1 SSTORE POP PUSH1 0x20 DUP3 ADD MLOAD DUP2 PUSH1 0x1 ADD SSTORE POP POP CALLVALUE DUP1 ISZERO PUSH2 0x125 JUMPI PUSH1 0x0 DUP1 REVERT JUMPDEST POP PUSH2 0x21E DUP1 PUSH2 0x135 PUSH1 0x0 CODECOPY PUSH1 0x0 RETURN INVALID PUSH1 0x80 PUSH1 0x40 MSTORE CALLVALUE DUP1 ISZERO PUSH2 0x10 JUMPI PUSH1 0x0 DUP1 REVERT JUMPDEST POP PUSH1 0x4 CALLDATASIZE LT PUSH2 0x41 JUMPI PUSH1 0x0 CALLDATALOAD PUSH1 0xE0 SHR DUP1 PUSH4 0x912F232 EQ PUSH2 0x46 JUMPI DUP1 PUSH4 0xDC9320D4 EQ PUSH2 0x62 JUMPI DUP1 PUSH4 0xF2AEC8DE EQ PUSH2 0x81 JUMPI JUMPDEST PUSH1 0x0 DUP1 REVERT JUMPDEST PUSH2 0x60 PUSH1 0x4 DUP1 CALLDATASIZE SUB DUP2 ADD SWAP1 PUSH2 0x5B SWAP2 SWAP1 PUSH2 0x11C JUMP JUMPDEST PUSH2 0xA0 JUMP JUMPDEST STOP JUMPDEST PUSH2 0x6A PUSH2 0xA3 JUMP JUMPDEST PUSH1 0x40 MLOAD PUSH2 0x78 SWAP3 SWAP2 SWAP1 PUSH2 0x167 JUMP JUMPDEST PUSH1 0x40 MLOAD DUP1 SWAP2 SUB SWAP1 RETURN JUMPDEST PUSH2 0x89 PUSH2 0xD5 JUMP JUMPDEST PUSH1 0x40 MLOAD PUSH2 0x97 SWAP3 SWAP2 SWAP1 PUSH2 0x167 JUMP JUMPDEST PUSH1 0x40 MLOAD DUP1 SWAP2 SUB SWAP1 RETURN JUMPDEST POP JUMP JUMPDEST PUSH1 0x2 DUP1 PUSH1 0x0 ADD PUSH1 0x0 SWAP1 SLOAD SWAP1 PUSH2 0x100 EXP SWAP1 DIV PUSH20 0xFFFFFFFFFFFFFFFFFFFFFFFFFFFFFFFFFFFFFFFF AND SWAP1 DUP1 PUSH1 0x1 ADD SLOAD SWAP1 POP DUP3 JUMP JUMPDEST PUSH1 0x0 DUP1 PUSH1 0x0 ADD PUSH1 0x0 SWAP1 SLOAD SWAP1 PUSH2 0x100 EXP SWAP1 DIV PUSH20 0xFFFFFFFFFFFFFFFFFFFFFFFFFFFFFFFFFFFFFFFF AND SWAP1 DUP1 PUSH1 0x1 ADD SLOAD SWAP1 POP DUP3 JUMP JUMPDEST PUSH1 0x0 DUP2 CALLDATALOAD SWAP1 POP PUSH2 0x116 DUP2 PUSH2 0x1D1 JUMP JUMPDEST SWAP3 SWAP2 POP POP JUMP JUMPDEST PUSH1 0x0 PUSH1 0x20 DUP3 DUP5 SUB SLT ISZERO PUSH2 0x132 JUMPI PUSH2 0x131 PUSH2 0x1CC JUMP JUMPDEST JUMPDEST PUSH1 0x0 PUSH2 0x140 DUP5 DUP3 DUP6 ADD PUSH2 0x107 JUMP JUMPDEST SWAP2 POP POP SWAP3 SWAP2 POP POP JUMP JUMPDEST PUSH2 0x152 DUP2 PUSH2 0x190 JUMP JUMPDEST DUP3 MSTORE POP POP JUMP JUMPDEST PUSH2 0x161 DUP2 PUSH2 0x1C2 JUMP JUMPDEST DUP3 MSTORE POP POP JUMP JUMPDEST PUSH1 0x0 PUSH1 0x40 DUP3 ADD SWAP1 POP PUSH2 0x17C PUSH1 0x0 DUP4 ADD DUP6 PUSH2 0x149 JUMP JUMPDEST PUSH2 0x189 PUSH1 0x20 DUP4 ADD DUP5 PUSH2 0x158 JUMP JUMPDEST SWAP4 SWAP3 POP POP POP JUMP JUMPDEST PUSH1 0x0 PUSH2 0x19B DUP3 PUSH2 0x1A2 JUMP JUMPDEST SWAP1 POP SWAP2 SWAP1 POP JUMP JUMPDEST PUSH1 0x0 PUSH20 0xFFFFFFFFFFFFFFFFFFFFFFFFFFFFFFFFFFFFFFFF DUP3 AND SWAP1 POP SWAP2 SWAP1 POP JUMP JUMPDEST PUSH1 0x0 DUP2 SWAP1 POP SWAP2 SWAP1 POP JUMP JUMPDEST PUSH1 0x0 DUP1 REVERT JUMPDEST PUSH2 0x1DA DUP2 PUSH2 0x1C2 JUMP JUMPDEST DUP2 EQ PUSH2 0x1E5 JUMPI PUSH1 0x0 DUP1 REVERT JUMPDEST POP JUMP INVALID LOG2 PUSH5 0x6970667358 0x22 SLT KECCAK256 0x26 0xEC PUSH21 0x1439205C11F51BEDD9259B34B645CB484836AFCE57 0xED GASLIMIT 0x2B PUSH11 0xACAECBC264736F6C634300 ADDMOD SMOD STOP CALLER "
				},
				"gasEstimates": {
					"creation": {
						"codeDepositCost": "108400",
						"executionCost": "93084",
						"totalCost": "201484"
					},
					"external": {
						"_acc1()": "4762",
						"_acc2()": "4740",
						"addAmount(uint256)": "384"
					}
				},
				"methodIdentifiers": {
					"_acc1()": "f2aec8de",
					"_acc2()": "dc9320d4",
					"addAmount(uint256)": "0912f232"
				}
			},
			"storageLayout": {
				"storage": [
					{
						"astId": 13,
						"contract": "contracts/myLearning/AccountStrut.sol:AccountStrut",
						"label": "_acc1",
						"offset": 0,
						"slot": "0",
						"type": "t_struct(Account)6_storage"
					},
					{
						"astId": 21,
						"contract": "contracts/myLearning/AccountStrut.sol:AccountStrut",
						"label": "_acc2",
						"offset": 0,
						"slot": "2",
						"type": "t_struct(Account)6_storage"
					}
				],
				"types": {
					"t_address": {
						"encoding": "inplace",
						"label": "address",
						"numberOfBytes": "20"
					},
					"t_struct(Account)6_storage": {
						"encoding": "inplace",
						"label": "struct AccountStrut.Account",
						"members": [
							{
								"astId": 3,
								"contract": "contracts/myLearning/AccountStrut.sol:AccountStrut",
								"label": "_address",
								"offset": 0,
								"slot": "0",
								"type": "t_address"
							},
							{
								"astId": 5,
								"contract": "contracts/myLearning/AccountStrut.sol:AccountStrut",
								"label": "_amount",
								"offset": 0,
								"slot": "1",
								"type": "t_uint256"
							}
						],
						"numberOfBytes": "64"
					},
					"t_uint256": {
						"encoding": "inplace",
						"label": "uint256",
						"numberOfBytes": "32"
					}
				}
			},
			"userdoc": {
				"kind": "user",
				"methods": {},
				"version": 1
			}
		}
	}
}