{
	"contracts/myLearning/Bank.sol": {
		"Bank": {
			"abi": [
				{
					"inputs": [
						{
							"internalType": "uint256",
							"name": "initialSupply",
							"type": "uint256"
						}
					],
					"stateMutability": "nonpayable",
					"type": "constructor"
				},
				{
					"inputs": [
						{
							"internalType": "address",
							"name": "account",
							"type": "address"
						}
					],
					"name": "accountBal",
					"outputs": [
						{
							"internalType": "uint256",
							"name": "",
							"type": "uint256"
						}
					],
					"stateMutability": "nonpayable",
					"type": "function"
				},
				{
					"inputs": [
						{
							"internalType": "address",
							"name": "",
							"type": "address"
						}
					],
					"name": "accounts",
					"outputs": [
						{
							"internalType": "uint256",
							"name": "",
							"type": "uint256"
						}
					],
					"stateMutability": "view",
					"type": "function"
				},
				{
					"inputs": [
						{
							"internalType": "uint256",
							"name": "money",
							"type": "uint256"
						}
					],
					"name": "deposit",
					"outputs": [],
					"stateMutability": "nonpayable",
					"type": "function"
				},
				{
					"inputs": [
						{
							"internalType": "address",
							"name": "to",
							"type": "address"
						},
						{
							"internalType": "uint256",
							"name": "value",
							"type": "uint256"
						}
					],
					"name": "transfer",
					"outputs": [],
					"stateMutability": "nonpayable",
					"type": "function"
				},
				{
					"inputs": [
						{
							"internalType": "uint256",
							"name": "money",
							"type": "uint256"
						}
					],
					"name": "withdraw",
					"outputs": [],
					"stateMutability": "nonpayable",
					"type": "function"
				}
			],
			"devdoc": {
				"kind": "dev",
				"methods": {},
				"version": 1
			},
			"evm": {
				"assembly": "    /* \"contracts/myLearning/Bank.sol\":73:821  contract Bank {\r... */\n  mstore(0x40, 0x80)\n    /* \"contracts/myLearning/Bank.sol\":167:281  constructor(uint256 initialSupply) {\r... */\n  callvalue\n  dup1\n  iszero\n  tag_1\n  jumpi\n  0x00\n  dup1\n  revert\ntag_1:\n  pop\n  mload(0x40)\n  sub(codesize, bytecodeSize)\n  dup1\n  bytecodeSize\n  dup4\n  codecopy\n  dup2\n  dup2\n  add\n  0x40\n  mstore\n  dup2\n  add\n  swap1\n  tag_2\n  swap2\n  swap1\n  tag_3\n  jump\t// in\ntag_2:\n    /* \"contracts/myLearning/Bank.sol\":221:231  msg.sender */\n  caller\n    /* \"contracts/myLearning/Bank.sol\":213:218  owner */\n  0x00\n  dup1\n    /* \"contracts/myLearning/Bank.sol\":213:231  owner = msg.sender */\n  0x0100\n  exp\n  dup2\n  sload\n  dup2\n  0xffffffffffffffffffffffffffffffffffffffff\n  mul\n  not\n  and\n  swap1\n  dup4\n  0xffffffffffffffffffffffffffffffffffffffff\n  and\n  mul\n  or\n  swap1\n  sstore\n  pop\n    /* \"contracts/myLearning/Bank.sol\":260:273  initialSupply */\n  dup1\n    /* \"contracts/myLearning/Bank.sol\":242:250  accounts */\n  0x01\n    /* \"contracts/myLearning/Bank.sol\":242:257  accounts[owner] */\n  0x00\n    /* \"contracts/myLearning/Bank.sol\":251:256  owner */\n  dup1\n  0x00\n  swap1\n  sload\n  swap1\n  0x0100\n  exp\n  swap1\n  div\n  0xffffffffffffffffffffffffffffffffffffffff\n  and\n    /* \"contracts/myLearning/Bank.sol\":242:257  accounts[owner] */\n  0xffffffffffffffffffffffffffffffffffffffff\n  and\n  0xffffffffffffffffffffffffffffffffffffffff\n  and\n  dup2\n  mstore\n  0x20\n  add\n  swap1\n  dup2\n  mstore\n  0x20\n  add\n  0x00\n  keccak256\n    /* \"contracts/myLearning/Bank.sol\":242:273  accounts[owner] = initialSupply */\n  dup2\n  swap1\n  sstore\n  pop\n    /* \"contracts/myLearning/Bank.sol\":167:281  constructor(uint256 initialSupply) {\r... */\n  pop\n    /* \"contracts/myLearning/Bank.sol\":73:821  contract Bank {\r... */\n  jump(tag_6)\n    /* \"#utility.yul\":7:150   */\ntag_8:\n    /* \"#utility.yul\":64:69   */\n  0x00\n    /* \"#utility.yul\":95:101   */\n  dup2\n    /* \"#utility.yul\":89:102   */\n  mload\n    /* \"#utility.yul\":80:102   */\n  swap1\n  pop\n    /* \"#utility.yul\":111:144   */\n  tag_10\n    /* \"#utility.yul\":138:143   */\n  dup2\n    /* \"#utility.yul\":111:144   */\n  tag_11\n  jump\t// in\ntag_10:\n    /* \"#utility.yul\":7:150   */\n  swap3\n  swap2\n  pop\n  pop\n  jump\t// out\n    /* \"#utility.yul\":156:507   */\ntag_3:\n    /* \"#utility.yul\":226:232   */\n  0x00\n    /* \"#utility.yul\":275:277   */\n  0x20\n    /* \"#utility.yul\":263:272   */\n  dup3\n    /* \"#utility.yul\":254:261   */\n  dup5\n    /* \"#utility.yul\":250:273   */\n  sub\n    /* \"#utility.yul\":246:278   */\n  slt\n    /* \"#utility.yul\":243:362   */\n  iszero\n  tag_13\n  jumpi\n    /* \"#utility.yul\":281:360   */\n  tag_14\n  tag_15\n  jump\t// in\ntag_14:\n    /* \"#utility.yul\":243:362   */\ntag_13:\n    /* \"#utility.yul\":401:402   */\n  0x00\n    /* \"#utility.yul\":426:490   */\n  tag_16\n    /* \"#utility.yul\":482:489   */\n  dup5\n    /* \"#utility.yul\":473:479   */\n  dup3\n    /* \"#utility.yul\":462:471   */\n  dup6\n    /* \"#utility.yul\":458:480   */\n  add\n    /* \"#utility.yul\":426:490   */\n  tag_8\n  jump\t// in\ntag_16:\n    /* \"#utility.yul\":416:490   */\n  swap2\n  pop\n    /* \"#utility.yul\":372:500   */\n  pop\n    /* \"#utility.yul\":156:507   */\n  swap3\n  swap2\n  pop\n  pop\n  jump\t// out\n    /* \"#utility.yul\":594:671   */\ntag_19:\n    /* \"#utility.yul\":631:638   */\n  0x00\n    /* \"#utility.yul\":660:665   */\n  dup2\n    /* \"#utility.yul\":649:665   */\n  swap1\n  pop\n    /* \"#utility.yul\":594:671   */\n  swap2\n  swap1\n  pop\n  jump\t// out\n    /* \"#utility.yul\":800:917   */\ntag_15:\n    /* \"#utility.yul\":909:910   */\n  0x00\n    /* \"#utility.yul\":906:907   */\n  dup1\n    /* \"#utility.yul\":899:911   */\n  revert\n    /* \"#utility.yul\":923:1045   */\ntag_11:\n    /* \"#utility.yul\":996:1020   */\n  tag_25\n    /* \"#utility.yul\":1014:1019   */\n  dup2\n    /* \"#utility.yul\":996:1020   */\n  tag_19\n  jump\t// in\ntag_25:\n    /* \"#utility.yul\":989:994   */\n  dup2\n    /* \"#utility.yul\":986:1021   */\n  eq\n    /* \"#utility.yul\":976:1039   */\n  tag_26\n  jumpi\n    /* \"#utility.yul\":1035:1036   */\n  0x00\n    /* \"#utility.yul\":1032:1033   */\n  dup1\n    /* \"#utility.yul\":1025:1037   */\n  revert\n    /* \"#utility.yul\":976:1039   */\ntag_26:\n    /* \"#utility.yul\":923:1045   */\n  pop\n  jump\t// out\n    /* \"contracts/myLearning/Bank.sol\":73:821  contract Bank {\r... */\ntag_6:\n  dataSize(sub_0)\n  dup1\n  dataOffset(sub_0)\n  0x00\n  codecopy\n  0x00\n  return\nstop\n\nsub_0: assembly {\n        /* \"contracts/myLearning/Bank.sol\":73:821  contract Bank {\r... */\n      mstore(0x40, 0x80)\n      callvalue\n      dup1\n      iszero\n      tag_1\n      jumpi\n      0x00\n      dup1\n      revert\n    tag_1:\n      pop\n      jumpi(tag_2, lt(calldatasize, 0x04))\n      shr(0xe0, calldataload(0x00))\n      dup1\n      0x2e1a7d4d\n      eq\n      tag_3\n      jumpi\n      dup1\n      0x5e5c06e2\n      eq\n      tag_4\n      jumpi\n      dup1\n      0x87838bf1\n      eq\n      tag_5\n      jumpi\n      dup1\n      0xa9059cbb\n      eq\n      tag_6\n      jumpi\n      dup1\n      0xb6b55f25\n      eq\n      tag_7\n      jumpi\n    tag_2:\n      0x00\n      dup1\n      revert\n        /* \"contracts/myLearning/Bank.sol\":381:466  function withdraw(uint money) public {\r... */\n    tag_3:\n      tag_8\n      0x04\n      dup1\n      calldatasize\n      sub\n      dup2\n      add\n      swap1\n      tag_9\n      swap2\n      swap1\n      tag_10\n      jump\t// in\n    tag_9:\n      tag_11\n      jump\t// in\n    tag_8:\n      stop\n        /* \"contracts/myLearning/Bank.sol\":114:158  mapping (address => uint256) public accounts */\n    tag_4:\n      tag_12\n      0x04\n      dup1\n      calldatasize\n      sub\n      dup2\n      add\n      swap1\n      tag_13\n      swap2\n      swap1\n      tag_14\n      jump\t// in\n    tag_13:\n      tag_15\n      jump\t// in\n    tag_12:\n      mload(0x40)\n      tag_16\n      swap2\n      swap1\n      tag_17\n      jump\t// in\n    tag_16:\n      mload(0x40)\n      dup1\n      swap2\n      sub\n      swap1\n      return\n        /* \"contracts/myLearning/Bank.sol\":719:818  function accountBal(address account) public returns(uint) {\r... */\n    tag_5:\n      tag_18\n      0x04\n      dup1\n      calldatasize\n      sub\n      dup2\n      add\n      swap1\n      tag_19\n      swap2\n      swap1\n      tag_14\n      jump\t// in\n    tag_19:\n      tag_20\n      jump\t// in\n    tag_18:\n      mload(0x40)\n      tag_21\n      swap2\n      swap1\n      tag_17\n      jump\t// in\n    tag_21:\n      mload(0x40)\n      dup1\n      swap2\n      sub\n      swap1\n      return\n        /* \"contracts/myLearning/Bank.sol\":474:711  function transfer(address to, uint256 value) public {\r... */\n    tag_6:\n      tag_22\n      0x04\n      dup1\n      calldatasize\n      sub\n      dup2\n      add\n      swap1\n      tag_23\n      swap2\n      swap1\n      tag_24\n      jump\t// in\n    tag_23:\n      tag_25\n      jump\t// in\n    tag_22:\n      stop\n        /* \"contracts/myLearning/Bank.sol\":289:373  function deposit(uint money) public {\r... */\n    tag_7:\n      tag_26\n      0x04\n      dup1\n      calldatasize\n      sub\n      dup2\n      add\n      swap1\n      tag_27\n      swap2\n      swap1\n      tag_10\n      jump\t// in\n    tag_27:\n      tag_28\n      jump\t// in\n    tag_26:\n      stop\n        /* \"contracts/myLearning/Bank.sol\":381:466  function withdraw(uint money) public {\r... */\n    tag_11:\n        /* \"contracts/myLearning/Bank.sol\":453:458  money */\n      dup1\n        /* \"contracts/myLearning/Bank.sol\":429:437  accounts */\n      0x01\n        /* \"contracts/myLearning/Bank.sol\":429:449  accounts[msg.sender] */\n      0x00\n        /* \"contracts/myLearning/Bank.sol\":438:448  msg.sender */\n      caller\n        /* \"contracts/myLearning/Bank.sol\":429:449  accounts[msg.sender] */\n      0xffffffffffffffffffffffffffffffffffffffff\n      and\n      0xffffffffffffffffffffffffffffffffffffffff\n      and\n      dup2\n      mstore\n      0x20\n      add\n      swap1\n      dup2\n      mstore\n      0x20\n      add\n      0x00\n      keccak256\n      0x00\n        /* \"contracts/myLearning/Bank.sol\":429:458  accounts[msg.sender] -= money */\n      dup3\n      dup3\n      sload\n      tag_30\n      swap2\n      swap1\n      tag_31\n      jump\t// in\n    tag_30:\n      swap3\n      pop\n      pop\n      dup2\n      swap1\n      sstore\n      pop\n        /* \"contracts/myLearning/Bank.sol\":381:466  function withdraw(uint money) public {\r... */\n      pop\n      jump\t// out\n        /* \"contracts/myLearning/Bank.sol\":114:158  mapping (address => uint256) public accounts */\n    tag_15:\n      mstore(0x20, 0x01)\n      dup1\n      0x00\n      mstore\n      keccak256(0x00, 0x40)\n      0x00\n      swap2\n      pop\n      swap1\n      pop\n      sload\n      dup2\n      jump\t// out\n        /* \"contracts/myLearning/Bank.sol\":719:818  function accountBal(address account) public returns(uint) {\r... */\n    tag_20:\n        /* \"contracts/myLearning/Bank.sol\":771:775  uint */\n      0x00\n        /* \"contracts/myLearning/Bank.sol\":795:802  account */\n      dup2\n        /* \"contracts/myLearning/Bank.sol\":795:810  account.balance */\n      0xffffffffffffffffffffffffffffffffffffffff\n      and\n      balance\n        /* \"contracts/myLearning/Bank.sol\":788:810  return account.balance */\n      swap1\n      pop\n        /* \"contracts/myLearning/Bank.sol\":719:818  function accountBal(address account) public returns(uint) {\r... */\n      swap2\n      swap1\n      pop\n      jump\t// out\n        /* \"contracts/myLearning/Bank.sol\":474:711  function transfer(address to, uint256 value) public {\r... */\n    tag_25:\n        /* \"contracts/myLearning/Bank.sol\":569:574  value */\n      dup1\n        /* \"contracts/myLearning/Bank.sol\":545:553  accounts */\n      0x01\n        /* \"contracts/myLearning/Bank.sol\":545:565  accounts[msg.sender] */\n      0x00\n        /* \"contracts/myLearning/Bank.sol\":554:564  msg.sender */\n      caller\n        /* \"contracts/myLearning/Bank.sol\":545:565  accounts[msg.sender] */\n      0xffffffffffffffffffffffffffffffffffffffff\n      and\n      0xffffffffffffffffffffffffffffffffffffffff\n      and\n      dup2\n      mstore\n      0x20\n      add\n      swap1\n      dup2\n      mstore\n      0x20\n      add\n      0x00\n      keccak256\n      sload\n        /* \"contracts/myLearning/Bank.sol\":545:574  accounts[msg.sender] >= value */\n      lt\n      iszero\n        /* \"contracts/myLearning/Bank.sol\":537:575  require(accounts[msg.sender] >= value) */\n      tag_34\n      jumpi\n      0x00\n      dup1\n      revert\n    tag_34:\n        /* \"contracts/myLearning/Bank.sol\":618:626  accounts */\n      0x01\n        /* \"contracts/myLearning/Bank.sol\":618:630  accounts[to] */\n      0x00\n        /* \"contracts/myLearning/Bank.sol\":627:629  to */\n      dup4\n        /* \"contracts/myLearning/Bank.sol\":618:630  accounts[to] */\n      0xffffffffffffffffffffffffffffffffffffffff\n      and\n      0xffffffffffffffffffffffffffffffffffffffff\n      and\n      dup2\n      mstore\n      0x20\n      add\n      swap1\n      dup2\n      mstore\n      0x20\n      add\n      0x00\n      keccak256\n      sload\n        /* \"contracts/myLearning/Bank.sol\":609:614  value */\n      dup2\n        /* \"contracts/myLearning/Bank.sol\":594:602  accounts */\n      0x01\n        /* \"contracts/myLearning/Bank.sol\":594:606  accounts[to] */\n      0x00\n        /* \"contracts/myLearning/Bank.sol\":603:605  to */\n      dup6\n        /* \"contracts/myLearning/Bank.sol\":594:606  accounts[to] */\n      0xffffffffffffffffffffffffffffffffffffffff\n      and\n      0xffffffffffffffffffffffffffffffffffffffff\n      and\n      dup2\n      mstore\n      0x20\n      add\n      swap1\n      dup2\n      mstore\n      0x20\n      add\n      0x00\n      keccak256\n      sload\n        /* \"contracts/myLearning/Bank.sol\":594:614  accounts[to] + value */\n      tag_35\n      swap2\n      swap1\n      tag_36\n      jump\t// in\n    tag_35:\n        /* \"contracts/myLearning/Bank.sol\":594:630  accounts[to] + value >= accounts[to] */\n      lt\n      iszero\n        /* \"contracts/myLearning/Bank.sol\":586:631  require(accounts[to] + value >= accounts[to]) */\n      tag_37\n      jumpi\n      0x00\n      dup1\n      revert\n    tag_37:\n        /* \"contracts/myLearning/Bank.sol\":666:671  value */\n      dup1\n        /* \"contracts/myLearning/Bank.sol\":642:650  accounts */\n      0x01\n        /* \"contracts/myLearning/Bank.sol\":642:662  accounts[msg.sender] */\n      0x00\n        /* \"contracts/myLearning/Bank.sol\":651:661  msg.sender */\n      caller\n        /* \"contracts/myLearning/Bank.sol\":642:662  accounts[msg.sender] */\n      0xffffffffffffffffffffffffffffffffffffffff\n      and\n      0xffffffffffffffffffffffffffffffffffffffff\n      and\n      dup2\n      mstore\n      0x20\n      add\n      swap1\n      dup2\n      mstore\n      0x20\n      add\n      0x00\n      keccak256\n      0x00\n        /* \"contracts/myLearning/Bank.sol\":642:671  accounts[msg.sender] -= value */\n      dup3\n      dup3\n      sload\n      tag_38\n      swap2\n      swap1\n      tag_31\n      jump\t// in\n    tag_38:\n      swap3\n      pop\n      pop\n      dup2\n      swap1\n      sstore\n      pop\n        /* \"contracts/myLearning/Bank.sol\":698:703  value */\n      dup1\n        /* \"contracts/myLearning/Bank.sol\":682:690  accounts */\n      0x01\n        /* \"contracts/myLearning/Bank.sol\":682:694  accounts[to] */\n      0x00\n        /* \"contracts/myLearning/Bank.sol\":691:693  to */\n      dup5\n        /* \"contracts/myLearning/Bank.sol\":682:694  accounts[to] */\n      0xffffffffffffffffffffffffffffffffffffffff\n      and\n      0xffffffffffffffffffffffffffffffffffffffff\n      and\n      dup2\n      mstore\n      0x20\n      add\n      swap1\n      dup2\n      mstore\n      0x20\n      add\n      0x00\n      keccak256\n      0x00\n        /* \"contracts/myLearning/Bank.sol\":682:703  accounts[to] += value */\n      dup3\n      dup3\n      sload\n      tag_39\n      swap2\n      swap1\n      tag_36\n      jump\t// in\n    tag_39:\n      swap3\n      pop\n      pop\n      dup2\n      swap1\n      sstore\n      pop\n        /* \"contracts/myLearning/Bank.sol\":474:711  function transfer(address to, uint256 value) public {\r... */\n      pop\n      pop\n      jump\t// out\n        /* \"contracts/myLearning/Bank.sol\":289:373  function deposit(uint money) public {\r... */\n    tag_28:\n        /* \"contracts/myLearning/Bank.sol\":360:365  money */\n      dup1\n        /* \"contracts/myLearning/Bank.sol\":336:344  accounts */\n      0x01\n        /* \"contracts/myLearning/Bank.sol\":336:356  accounts[msg.sender] */\n      0x00\n        /* \"contracts/myLearning/Bank.sol\":345:355  msg.sender */\n      caller\n        /* \"contracts/myLearning/Bank.sol\":336:356  accounts[msg.sender] */\n      0xffffffffffffffffffffffffffffffffffffffff\n      and\n      0xffffffffffffffffffffffffffffffffffffffff\n      and\n      dup2\n      mstore\n      0x20\n      add\n      swap1\n      dup2\n      mstore\n      0x20\n      add\n      0x00\n      keccak256\n      0x00\n        /* \"contracts/myLearning/Bank.sol\":336:365  accounts[msg.sender] += money */\n      dup3\n      dup3\n      sload\n      tag_41\n      swap2\n      swap1\n      tag_36\n      jump\t// in\n    tag_41:\n      swap3\n      pop\n      pop\n      dup2\n      swap1\n      sstore\n      pop\n        /* \"contracts/myLearning/Bank.sol\":289:373  function deposit(uint money) public {\r... */\n      pop\n      jump\t// out\n        /* \"#utility.yul\":7:146   */\n    tag_43:\n        /* \"#utility.yul\":53:58   */\n      0x00\n        /* \"#utility.yul\":91:97   */\n      dup2\n        /* \"#utility.yul\":78:98   */\n      calldataload\n        /* \"#utility.yul\":69:98   */\n      swap1\n      pop\n        /* \"#utility.yul\":107:140   */\n      tag_45\n        /* \"#utility.yul\":134:139   */\n      dup2\n        /* \"#utility.yul\":107:140   */\n      tag_46\n      jump\t// in\n    tag_45:\n        /* \"#utility.yul\":7:146   */\n      swap3\n      swap2\n      pop\n      pop\n      jump\t// out\n        /* \"#utility.yul\":152:291   */\n    tag_47:\n        /* \"#utility.yul\":198:203   */\n      0x00\n        /* \"#utility.yul\":236:242   */\n      dup2\n        /* \"#utility.yul\":223:243   */\n      calldataload\n        /* \"#utility.yul\":214:243   */\n      swap1\n      pop\n        /* \"#utility.yul\":252:285   */\n      tag_49\n        /* \"#utility.yul\":279:284   */\n      dup2\n        /* \"#utility.yul\":252:285   */\n      tag_50\n      jump\t// in\n    tag_49:\n        /* \"#utility.yul\":152:291   */\n      swap3\n      swap2\n      pop\n      pop\n      jump\t// out\n        /* \"#utility.yul\":297:626   */\n    tag_14:\n        /* \"#utility.yul\":356:362   */\n      0x00\n        /* \"#utility.yul\":405:407   */\n      0x20\n        /* \"#utility.yul\":393:402   */\n      dup3\n        /* \"#utility.yul\":384:391   */\n      dup5\n        /* \"#utility.yul\":380:403   */\n      sub\n        /* \"#utility.yul\":376:408   */\n      slt\n        /* \"#utility.yul\":373:492   */\n      iszero\n      tag_52\n      jumpi\n        /* \"#utility.yul\":411:490   */\n      tag_53\n      tag_54\n      jump\t// in\n    tag_53:\n        /* \"#utility.yul\":373:492   */\n    tag_52:\n        /* \"#utility.yul\":531:532   */\n      0x00\n        /* \"#utility.yul\":556:609   */\n      tag_55\n        /* \"#utility.yul\":601:608   */\n      dup5\n        /* \"#utility.yul\":592:598   */\n      dup3\n        /* \"#utility.yul\":581:590   */\n      dup6\n        /* \"#utility.yul\":577:599   */\n      add\n        /* \"#utility.yul\":556:609   */\n      tag_43\n      jump\t// in\n    tag_55:\n        /* \"#utility.yul\":546:609   */\n      swap2\n      pop\n        /* \"#utility.yul\":502:619   */\n      pop\n        /* \"#utility.yul\":297:626   */\n      swap3\n      swap2\n      pop\n      pop\n      jump\t// out\n        /* \"#utility.yul\":632:1106   */\n    tag_24:\n        /* \"#utility.yul\":700:706   */\n      0x00\n        /* \"#utility.yul\":708:714   */\n      dup1\n        /* \"#utility.yul\":757:759   */\n      0x40\n        /* \"#utility.yul\":745:754   */\n      dup4\n        /* \"#utility.yul\":736:743   */\n      dup6\n        /* \"#utility.yul\":732:755   */\n      sub\n        /* \"#utility.yul\":728:760   */\n      slt\n        /* \"#utility.yul\":725:844   */\n      iszero\n      tag_57\n      jumpi\n        /* \"#utility.yul\":763:842   */\n      tag_58\n      tag_54\n      jump\t// in\n    tag_58:\n        /* \"#utility.yul\":725:844   */\n    tag_57:\n        /* \"#utility.yul\":883:884   */\n      0x00\n        /* \"#utility.yul\":908:961   */\n      tag_59\n        /* \"#utility.yul\":953:960   */\n      dup6\n        /* \"#utility.yul\":944:950   */\n      dup3\n        /* \"#utility.yul\":933:942   */\n      dup7\n        /* \"#utility.yul\":929:951   */\n      add\n        /* \"#utility.yul\":908:961   */\n      tag_43\n      jump\t// in\n    tag_59:\n        /* \"#utility.yul\":898:961   */\n      swap3\n      pop\n        /* \"#utility.yul\":854:971   */\n      pop\n        /* \"#utility.yul\":1010:1012   */\n      0x20\n        /* \"#utility.yul\":1036:1089   */\n      tag_60\n        /* \"#utility.yul\":1081:1088   */\n      dup6\n        /* \"#utility.yul\":1072:1078   */\n      dup3\n        /* \"#utility.yul\":1061:1070   */\n      dup7\n        /* \"#utility.yul\":1057:1079   */\n      add\n        /* \"#utility.yul\":1036:1089   */\n      tag_47\n      jump\t// in\n    tag_60:\n        /* \"#utility.yul\":1026:1089   */\n      swap2\n      pop\n        /* \"#utility.yul\":981:1099   */\n      pop\n        /* \"#utility.yul\":632:1106   */\n      swap3\n      pop\n      swap3\n      swap1\n      pop\n      jump\t// out\n        /* \"#utility.yul\":1112:1441   */\n    tag_10:\n        /* \"#utility.yul\":1171:1177   */\n      0x00\n        /* \"#utility.yul\":1220:1222   */\n      0x20\n        /* \"#utility.yul\":1208:1217   */\n      dup3\n        /* \"#utility.yul\":1199:1206   */\n      dup5\n        /* \"#utility.yul\":1195:1218   */\n      sub\n        /* \"#utility.yul\":1191:1223   */\n      slt\n        /* \"#utility.yul\":1188:1307   */\n      iszero\n      tag_62\n      jumpi\n        /* \"#utility.yul\":1226:1305   */\n      tag_63\n      tag_54\n      jump\t// in\n    tag_63:\n        /* \"#utility.yul\":1188:1307   */\n    tag_62:\n        /* \"#utility.yul\":1346:1347   */\n      0x00\n        /* \"#utility.yul\":1371:1424   */\n      tag_64\n        /* \"#utility.yul\":1416:1423   */\n      dup5\n        /* \"#utility.yul\":1407:1413   */\n      dup3\n        /* \"#utility.yul\":1396:1405   */\n      dup6\n        /* \"#utility.yul\":1392:1414   */\n      add\n        /* \"#utility.yul\":1371:1424   */\n      tag_47\n      jump\t// in\n    tag_64:\n        /* \"#utility.yul\":1361:1424   */\n      swap2\n      pop\n        /* \"#utility.yul\":1317:1434   */\n      pop\n        /* \"#utility.yul\":1112:1441   */\n      swap3\n      swap2\n      pop\n      pop\n      jump\t// out\n        /* \"#utility.yul\":1447:1565   */\n    tag_65:\n        /* \"#utility.yul\":1534:1558   */\n      tag_67\n        /* \"#utility.yul\":1552:1557   */\n      dup2\n        /* \"#utility.yul\":1534:1558   */\n      tag_68\n      jump\t// in\n    tag_67:\n        /* \"#utility.yul\":1529:1532   */\n      dup3\n        /* \"#utility.yul\":1522:1559   */\n      mstore\n        /* \"#utility.yul\":1447:1565   */\n      pop\n      pop\n      jump\t// out\n        /* \"#utility.yul\":1571:1793   */\n    tag_17:\n        /* \"#utility.yul\":1664:1668   */\n      0x00\n        /* \"#utility.yul\":1702:1704   */\n      0x20\n        /* \"#utility.yul\":1691:1700   */\n      dup3\n        /* \"#utility.yul\":1687:1705   */\n      add\n        /* \"#utility.yul\":1679:1705   */\n      swap1\n      pop\n        /* \"#utility.yul\":1715:1786   */\n      tag_70\n        /* \"#utility.yul\":1783:1784   */\n      0x00\n        /* \"#utility.yul\":1772:1781   */\n      dup4\n        /* \"#utility.yul\":1768:1785   */\n      add\n        /* \"#utility.yul\":1759:1765   */\n      dup5\n        /* \"#utility.yul\":1715:1786   */\n      tag_65\n      jump\t// in\n    tag_70:\n        /* \"#utility.yul\":1571:1793   */\n      swap3\n      swap2\n      pop\n      pop\n      jump\t// out\n        /* \"#utility.yul\":1880:2185   */\n    tag_36:\n        /* \"#utility.yul\":1920:1923   */\n      0x00\n        /* \"#utility.yul\":1939:1959   */\n      tag_74\n        /* \"#utility.yul\":1957:1958   */\n      dup3\n        /* \"#utility.yul\":1939:1959   */\n      tag_68\n      jump\t// in\n    tag_74:\n        /* \"#utility.yul\":1934:1959   */\n      swap2\n      pop\n        /* \"#utility.yul\":1973:1993   */\n      tag_75\n        /* \"#utility.yul\":1991:1992   */\n      dup4\n        /* \"#utility.yul\":1973:1993   */\n      tag_68\n      jump\t// in\n    tag_75:\n        /* \"#utility.yul\":1968:1993   */\n      swap3\n      pop\n        /* \"#utility.yul\":2127:2128   */\n      dup3\n        /* \"#utility.yul\":2059:2125   */\n      0xffffffffffffffffffffffffffffffffffffffffffffffffffffffffffffffff\n        /* \"#utility.yul\":2055:2129   */\n      sub\n        /* \"#utility.yul\":2052:2053   */\n      dup3\n        /* \"#utility.yul\":2049:2130   */\n      gt\n        /* \"#utility.yul\":2046:2153   */\n      iszero\n      tag_76\n      jumpi\n        /* \"#utility.yul\":2133:2151   */\n      tag_77\n      tag_78\n      jump\t// in\n    tag_77:\n        /* \"#utility.yul\":2046:2153   */\n    tag_76:\n        /* \"#utility.yul\":2177:2178   */\n      dup3\n        /* \"#utility.yul\":2174:2175   */\n      dup3\n        /* \"#utility.yul\":2170:2179   */\n      add\n        /* \"#utility.yul\":2163:2179   */\n      swap1\n      pop\n        /* \"#utility.yul\":1880:2185   */\n      swap3\n      swap2\n      pop\n      pop\n      jump\t// out\n        /* \"#utility.yul\":2191:2382   */\n    tag_31:\n        /* \"#utility.yul\":2231:2235   */\n      0x00\n        /* \"#utility.yul\":2251:2271   */\n      tag_80\n        /* \"#utility.yul\":2269:2270   */\n      dup3\n        /* \"#utility.yul\":2251:2271   */\n      tag_68\n      jump\t// in\n    tag_80:\n        /* \"#utility.yul\":2246:2271   */\n      swap2\n      pop\n        /* \"#utility.yul\":2285:2305   */\n      tag_81\n        /* \"#utility.yul\":2303:2304   */\n      dup4\n        /* \"#utility.yul\":2285:2305   */\n      tag_68\n      jump\t// in\n    tag_81:\n        /* \"#utility.yul\":2280:2305   */\n      swap3\n      pop\n        /* \"#utility.yul\":2324:2325   */\n      dup3\n        /* \"#utility.yul\":2321:2322   */\n      dup3\n        /* \"#utility.yul\":2318:2326   */\n      lt\n        /* \"#utility.yul\":2315:2349   */\n      iszero\n      tag_82\n      jumpi\n        /* \"#utility.yul\":2329:2347   */\n      tag_83\n      tag_78\n      jump\t// in\n    tag_83:\n        /* \"#utility.yul\":2315:2349   */\n    tag_82:\n        /* \"#utility.yul\":2374:2375   */\n      dup3\n        /* \"#utility.yul\":2371:2372   */\n      dup3\n        /* \"#utility.yul\":2367:2376   */\n      sub\n        /* \"#utility.yul\":2359:2376   */\n      swap1\n      pop\n        /* \"#utility.yul\":2191:2382   */\n      swap3\n      swap2\n      pop\n      pop\n      jump\t// out\n        /* \"#utility.yul\":2388:2484   */\n    tag_84:\n        /* \"#utility.yul\":2425:2432   */\n      0x00\n        /* \"#utility.yul\":2454:2478   */\n      tag_86\n        /* \"#utility.yul\":2472:2477   */\n      dup3\n        /* \"#utility.yul\":2454:2478   */\n      tag_87\n      jump\t// in\n    tag_86:\n        /* \"#utility.yul\":2443:2478   */\n      swap1\n      pop\n        /* \"#utility.yul\":2388:2484   */\n      swap2\n      swap1\n      pop\n      jump\t// out\n        /* \"#utility.yul\":2490:2616   */\n    tag_87:\n        /* \"#utility.yul\":2527:2534   */\n      0x00\n        /* \"#utility.yul\":2567:2609   */\n      0xffffffffffffffffffffffffffffffffffffffff\n        /* \"#utility.yul\":2560:2565   */\n      dup3\n        /* \"#utility.yul\":2556:2610   */\n      and\n        /* \"#utility.yul\":2545:2610   */\n      swap1\n      pop\n        /* \"#utility.yul\":2490:2616   */\n      swap2\n      swap1\n      pop\n      jump\t// out\n        /* \"#utility.yul\":2622:2699   */\n    tag_68:\n        /* \"#utility.yul\":2659:2666   */\n      0x00\n        /* \"#utility.yul\":2688:2693   */\n      dup2\n        /* \"#utility.yul\":2677:2693   */\n      swap1\n      pop\n        /* \"#utility.yul\":2622:2699   */\n      swap2\n      swap1\n      pop\n      jump\t// out\n        /* \"#utility.yul\":2705:2885   */\n    tag_78:\n        /* \"#utility.yul\":2753:2830   */\n      0x4e487b7100000000000000000000000000000000000000000000000000000000\n        /* \"#utility.yul\":2750:2751   */\n      0x00\n        /* \"#utility.yul\":2743:2831   */\n      mstore\n        /* \"#utility.yul\":2850:2854   */\n      0x11\n        /* \"#utility.yul\":2847:2848   */\n      0x04\n        /* \"#utility.yul\":2840:2855   */\n      mstore\n        /* \"#utility.yul\":2874:2878   */\n      0x24\n        /* \"#utility.yul\":2871:2872   */\n      0x00\n        /* \"#utility.yul\":2864:2879   */\n      revert\n        /* \"#utility.yul\":3014:3131   */\n    tag_54:\n        /* \"#utility.yul\":3123:3124   */\n      0x00\n        /* \"#utility.yul\":3120:3121   */\n      dup1\n        /* \"#utility.yul\":3113:3125   */\n      revert\n        /* \"#utility.yul\":3137:3259   */\n    tag_46:\n        /* \"#utility.yul\":3210:3234   */\n      tag_95\n        /* \"#utility.yul\":3228:3233   */\n      dup2\n        /* \"#utility.yul\":3210:3234   */\n      tag_84\n      jump\t// in\n    tag_95:\n        /* \"#utility.yul\":3203:3208   */\n      dup2\n        /* \"#utility.yul\":3200:3235   */\n      eq\n        /* \"#utility.yul\":3190:3253   */\n      tag_96\n      jumpi\n        /* \"#utility.yul\":3249:3250   */\n      0x00\n        /* \"#utility.yul\":3246:3247   */\n      dup1\n        /* \"#utility.yul\":3239:3251   */\n      revert\n        /* \"#utility.yul\":3190:3253   */\n    tag_96:\n        /* \"#utility.yul\":3137:3259   */\n      pop\n      jump\t// out\n        /* \"#utility.yul\":3265:3387   */\n    tag_50:\n        /* \"#utility.yul\":3338:3362   */\n      tag_98\n        /* \"#utility.yul\":3356:3361   */\n      dup2\n        /* \"#utility.yul\":3338:3362   */\n      tag_68\n      jump\t// in\n    tag_98:\n        /* \"#utility.yul\":3331:3336   */\n      dup2\n        /* \"#utility.yul\":3328:3363   */\n      eq\n        /* \"#utility.yul\":3318:3381   */\n      tag_99\n      jumpi\n        /* \"#utility.yul\":3377:3378   */\n      0x00\n        /* \"#utility.yul\":3374:3375   */\n      dup1\n        /* \"#utility.yul\":3367:3379   */\n      revert\n        /* \"#utility.yul\":3318:3381   */\n    tag_99:\n        /* \"#utility.yul\":3265:3387   */\n      pop\n      jump\t// out\n\n    auxdata: 0xa26469706673582212207d35e6928337f75917bfc62a669b780b9e2ccf663ff2d1917c514d934100968a64736f6c63430008070033\n}\n",
				"bytecode": {
					"linkReferences": {},
					"object": "608060405234801561001057600080fd5b5060405161072d38038061072d833981810160405281019061003291906100f2565b336000806101000a81548173ffffffffffffffffffffffffffffffffffffffff021916908373ffffffffffffffffffffffffffffffffffffffff16021790555080600160008060009054906101000a900473ffffffffffffffffffffffffffffffffffffffff1673ffffffffffffffffffffffffffffffffffffffff1673ffffffffffffffffffffffffffffffffffffffff1681526020019081526020016000208190555050610145565b6000815190506100ec8161012e565b92915050565b60006020828403121561010857610107610129565b5b6000610116848285016100dd565b91505092915050565b6000819050919050565b600080fd5b6101378161011f565b811461014257600080fd5b50565b6105d9806101546000396000f3fe608060405234801561001057600080fd5b50600436106100575760003560e01c80632e1a7d4d1461005c5780635e5c06e21461007857806387838bf1146100a8578063a9059cbb146100d8578063b6b55f25146100f4575b600080fd5b61007660048036038101906100719190610424565b610110565b005b610092600480360381019061008d91906103b7565b610169565b60405161009f9190610460565b60405180910390f35b6100c260048036038101906100bd91906103b7565b610181565b6040516100cf9190610460565b60405180910390f35b6100f260048036038101906100ed91906103e4565b6101a2565b005b61010e60048036038101906101099190610424565b610334565b005b80600160003373ffffffffffffffffffffffffffffffffffffffff1673ffffffffffffffffffffffffffffffffffffffff168152602001908152602001600020600082825461015f91906104d1565b9250508190555050565b60016020528060005260406000206000915090505481565b60008173ffffffffffffffffffffffffffffffffffffffff16319050919050565b80600160003373ffffffffffffffffffffffffffffffffffffffff1673ffffffffffffffffffffffffffffffffffffffff1681526020019081526020016000205410156101ee57600080fd5b600160008373ffffffffffffffffffffffffffffffffffffffff1673ffffffffffffffffffffffffffffffffffffffff1681526020019081526020016000205481600160008573ffffffffffffffffffffffffffffffffffffffff1673ffffffffffffffffffffffffffffffffffffffff16815260200190815260200160002054610279919061047b565b101561028457600080fd5b80600160003373ffffffffffffffffffffffffffffffffffffffff1673ffffffffffffffffffffffffffffffffffffffff16815260200190815260200160002060008282546102d391906104d1565b9250508190555080600160008473ffffffffffffffffffffffffffffffffffffffff1673ffffffffffffffffffffffffffffffffffffffff1681526020019081526020016000206000828254610329919061047b565b925050819055505050565b80600160003373ffffffffffffffffffffffffffffffffffffffff1673ffffffffffffffffffffffffffffffffffffffff1681526020019081526020016000206000828254610383919061047b565b9250508190555050565b60008135905061039c81610575565b92915050565b6000813590506103b18161058c565b92915050565b6000602082840312156103cd576103cc610570565b5b60006103db8482850161038d565b91505092915050565b600080604083850312156103fb576103fa610570565b5b60006104098582860161038d565b925050602061041a858286016103a2565b9150509250929050565b60006020828403121561043a57610439610570565b5b6000610448848285016103a2565b91505092915050565b61045a81610537565b82525050565b60006020820190506104756000830184610451565b92915050565b600061048682610537565b915061049183610537565b9250827fffffffffffffffffffffffffffffffffffffffffffffffffffffffffffffffff038211156104c6576104c5610541565b5b828201905092915050565b60006104dc82610537565b91506104e783610537565b9250828210156104fa576104f9610541565b5b828203905092915050565b600061051082610517565b9050919050565b600073ffffffffffffffffffffffffffffffffffffffff82169050919050565b6000819050919050565b7f4e487b7100000000000000000000000000000000000000000000000000000000600052601160045260246000fd5b600080fd5b61057e81610505565b811461058957600080fd5b50565b61059581610537565b81146105a057600080fd5b5056fea26469706673582212207d35e6928337f75917bfc62a669b780b9e2ccf663ff2d1917c514d934100968a64736f6c63430008070033",
					"opcodes": "PUSH1 0x80 PUSH1 0x40 MSTORE CALLVALUE DUP1 ISZERO PUSH2 0x10 JUMPI PUSH1 0x0 DUP1 REVERT JUMPDEST POP PUSH1 0x40 MLOAD PUSH2 0x72D CODESIZE SUB DUP1 PUSH2 0x72D DUP4 CODECOPY DUP2 DUP2 ADD PUSH1 0x40 MSTORE DUP2 ADD SWAP1 PUSH2 0x32 SWAP2 SWAP1 PUSH2 0xF2 JUMP JUMPDEST CALLER PUSH1 0x0 DUP1 PUSH2 0x100 EXP DUP2 SLOAD DUP2 PUSH20 0xFFFFFFFFFFFFFFFFFFFFFFFFFFFFFFFFFFFFFFFF MUL NOT AND SWAP1 DUP4 PUSH20 0xFFFFFFFFFFFFFFFFFFFFFFFFFFFFFFFFFFFFFFFF AND MUL OR SWAP1 SSTORE POP DUP1 PUSH1 0x1 PUSH1 0x0 DUP1 PUSH1 0x0 SWAP1 SLOAD SWAP1 PUSH2 0x100 EXP SWAP1 DIV PUSH20 0xFFFFFFFFFFFFFFFFFFFFFFFFFFFFFFFFFFFFFFFF AND PUSH20 0xFFFFFFFFFFFFFFFFFFFFFFFFFFFFFFFFFFFFFFFF AND PUSH20 0xFFFFFFFFFFFFFFFFFFFFFFFFFFFFFFFFFFFFFFFF AND DUP2 MSTORE PUSH1 0x20 ADD SWAP1 DUP2 MSTORE PUSH1 0x20 ADD PUSH1 0x0 KECCAK256 DUP2 SWAP1 SSTORE POP POP PUSH2 0x145 JUMP JUMPDEST PUSH1 0x0 DUP2 MLOAD SWAP1 POP PUSH2 0xEC DUP2 PUSH2 0x12E JUMP JUMPDEST SWAP3 SWAP2 POP POP JUMP JUMPDEST PUSH1 0x0 PUSH1 0x20 DUP3 DUP5 SUB SLT ISZERO PUSH2 0x108 JUMPI PUSH2 0x107 PUSH2 0x129 JUMP JUMPDEST JUMPDEST PUSH1 0x0 PUSH2 0x116 DUP5 DUP3 DUP6 ADD PUSH2 0xDD JUMP JUMPDEST SWAP2 POP POP SWAP3 SWAP2 POP POP JUMP JUMPDEST PUSH1 0x0 DUP2 SWAP1 POP SWAP2 SWAP1 POP JUMP JUMPDEST PUSH1 0x0 DUP1 REVERT JUMPDEST PUSH2 0x137 DUP2 PUSH2 0x11F JUMP JUMPDEST DUP2 EQ PUSH2 0x142 JUMPI PUSH1 0x0 DUP1 REVERT JUMPDEST POP JUMP JUMPDEST PUSH2 0x5D9 DUP1 PUSH2 0x154 PUSH1 0x0 CODECOPY PUSH1 0x0 RETURN INVALID PUSH1 0x80 PUSH1 0x40 MSTORE CALLVALUE DUP1 ISZERO PUSH2 0x10 JUMPI PUSH1 0x0 DUP1 REVERT JUMPDEST POP PUSH1 0x4 CALLDATASIZE LT PUSH2 0x57 JUMPI PUSH1 0x0 CALLDATALOAD PUSH1 0xE0 SHR DUP1 PUSH4 0x2E1A7D4D EQ PUSH2 0x5C JUMPI DUP1 PUSH4 0x5E5C06E2 EQ PUSH2 0x78 JUMPI DUP1 PUSH4 0x87838BF1 EQ PUSH2 0xA8 JUMPI DUP1 PUSH4 0xA9059CBB EQ PUSH2 0xD8 JUMPI DUP1 PUSH4 0xB6B55F25 EQ PUSH2 0xF4 JUMPI JUMPDEST PUSH1 0x0 DUP1 REVERT JUMPDEST PUSH2 0x76 PUSH1 0x4 DUP1 CALLDATASIZE SUB DUP2 ADD SWAP1 PUSH2 0x71 SWAP2 SWAP1 PUSH2 0x424 JUMP JUMPDEST PUSH2 0x110 JUMP JUMPDEST STOP JUMPDEST PUSH2 0x92 PUSH1 0x4 DUP1 CALLDATASIZE SUB DUP2 ADD SWAP1 PUSH2 0x8D SWAP2 SWAP1 PUSH2 0x3B7 JUMP JUMPDEST PUSH2 0x169 JUMP JUMPDEST PUSH1 0x40 MLOAD PUSH2 0x9F SWAP2 SWAP1 PUSH2 0x460 JUMP JUMPDEST PUSH1 0x40 MLOAD DUP1 SWAP2 SUB SWAP1 RETURN JUMPDEST PUSH2 0xC2 PUSH1 0x4 DUP1 CALLDATASIZE SUB DUP2 ADD SWAP1 PUSH2 0xBD SWAP2 SWAP1 PUSH2 0x3B7 JUMP JUMPDEST PUSH2 0x181 JUMP JUMPDEST PUSH1 0x40 MLOAD PUSH2 0xCF SWAP2 SWAP1 PUSH2 0x460 JUMP JUMPDEST PUSH1 0x40 MLOAD DUP1 SWAP2 SUB SWAP1 RETURN JUMPDEST PUSH2 0xF2 PUSH1 0x4 DUP1 CALLDATASIZE SUB DUP2 ADD SWAP1 PUSH2 0xED SWAP2 SWAP1 PUSH2 0x3E4 JUMP JUMPDEST PUSH2 0x1A2 JUMP JUMPDEST STOP JUMPDEST PUSH2 0x10E PUSH1 0x4 DUP1 CALLDATASIZE SUB DUP2 ADD SWAP1 PUSH2 0x109 SWAP2 SWAP1 PUSH2 0x424 JUMP JUMPDEST PUSH2 0x334 JUMP JUMPDEST STOP JUMPDEST DUP1 PUSH1 0x1 PUSH1 0x0 CALLER PUSH20 0xFFFFFFFFFFFFFFFFFFFFFFFFFFFFFFFFFFFFFFFF AND PUSH20 0xFFFFFFFFFFFFFFFFFFFFFFFFFFFFFFFFFFFFFFFF AND DUP2 MSTORE PUSH1 0x20 ADD SWAP1 DUP2 MSTORE PUSH1 0x20 ADD PUSH1 0x0 KECCAK256 PUSH1 0x0 DUP3 DUP3 SLOAD PUSH2 0x15F SWAP2 SWAP1 PUSH2 0x4D1 JUMP JUMPDEST SWAP3 POP POP DUP2 SWAP1 SSTORE POP POP JUMP JUMPDEST PUSH1 0x1 PUSH1 0x20 MSTORE DUP1 PUSH1 0x0 MSTORE PUSH1 0x40 PUSH1 0x0 KECCAK256 PUSH1 0x0 SWAP2 POP SWAP1 POP SLOAD DUP2 JUMP JUMPDEST PUSH1 0x0 DUP2 PUSH20 0xFFFFFFFFFFFFFFFFFFFFFFFFFFFFFFFFFFFFFFFF AND BALANCE SWAP1 POP SWAP2 SWAP1 POP JUMP JUMPDEST DUP1 PUSH1 0x1 PUSH1 0x0 CALLER PUSH20 0xFFFFFFFFFFFFFFFFFFFFFFFFFFFFFFFFFFFFFFFF AND PUSH20 0xFFFFFFFFFFFFFFFFFFFFFFFFFFFFFFFFFFFFFFFF AND DUP2 MSTORE PUSH1 0x20 ADD SWAP1 DUP2 MSTORE PUSH1 0x20 ADD PUSH1 0x0 KECCAK256 SLOAD LT ISZERO PUSH2 0x1EE JUMPI PUSH1 0x0 DUP1 REVERT JUMPDEST PUSH1 0x1 PUSH1 0x0 DUP4 PUSH20 0xFFFFFFFFFFFFFFFFFFFFFFFFFFFFFFFFFFFFFFFF AND PUSH20 0xFFFFFFFFFFFFFFFFFFFFFFFFFFFFFFFFFFFFFFFF AND DUP2 MSTORE PUSH1 0x20 ADD SWAP1 DUP2 MSTORE PUSH1 0x20 ADD PUSH1 0x0 KECCAK256 SLOAD DUP2 PUSH1 0x1 PUSH1 0x0 DUP6 PUSH20 0xFFFFFFFFFFFFFFFFFFFFFFFFFFFFFFFFFFFFFFFF AND PUSH20 0xFFFFFFFFFFFFFFFFFFFFFFFFFFFFFFFFFFFFFFFF AND DUP2 MSTORE PUSH1 0x20 ADD SWAP1 DUP2 MSTORE PUSH1 0x20 ADD PUSH1 0x0 KECCAK256 SLOAD PUSH2 0x279 SWAP2 SWAP1 PUSH2 0x47B JUMP JUMPDEST LT ISZERO PUSH2 0x284 JUMPI PUSH1 0x0 DUP1 REVERT JUMPDEST DUP1 PUSH1 0x1 PUSH1 0x0 CALLER PUSH20 0xFFFFFFFFFFFFFFFFFFFFFFFFFFFFFFFFFFFFFFFF AND PUSH20 0xFFFFFFFFFFFFFFFFFFFFFFFFFFFFFFFFFFFFFFFF AND DUP2 MSTORE PUSH1 0x20 ADD SWAP1 DUP2 MSTORE PUSH1 0x20 ADD PUSH1 0x0 KECCAK256 PUSH1 0x0 DUP3 DUP3 SLOAD PUSH2 0x2D3 SWAP2 SWAP1 PUSH2 0x4D1 JUMP JUMPDEST SWAP3 POP POP DUP2 SWAP1 SSTORE POP DUP1 PUSH1 0x1 PUSH1 0x0 DUP5 PUSH20 0xFFFFFFFFFFFFFFFFFFFFFFFFFFFFFFFFFFFFFFFF AND PUSH20 0xFFFFFFFFFFFFFFFFFFFFFFFFFFFFFFFFFFFFFFFF AND DUP2 MSTORE PUSH1 0x20 ADD SWAP1 DUP2 MSTORE PUSH1 0x20 ADD PUSH1 0x0 KECCAK256 PUSH1 0x0 DUP3 DUP3 SLOAD PUSH2 0x329 SWAP2 SWAP1 PUSH2 0x47B JUMP JUMPDEST SWAP3 POP POP DUP2 SWAP1 SSTORE POP POP POP JUMP JUMPDEST DUP1 PUSH1 0x1 PUSH1 0x0 CALLER PUSH20 0xFFFFFFFFFFFFFFFFFFFFFFFFFFFFFFFFFFFFFFFF AND PUSH20 0xFFFFFFFFFFFFFFFFFFFFFFFFFFFFFFFFFFFFFFFF AND DUP2 MSTORE PUSH1 0x20 ADD SWAP1 DUP2 MSTORE PUSH1 0x20 ADD PUSH1 0x0 KECCAK256 PUSH1 0x0 DUP3 DUP3 SLOAD PUSH2 0x383 SWAP2 SWAP1 PUSH2 0x47B JUMP JUMPDEST SWAP3 POP POP DUP2 SWAP1 SSTORE POP POP JUMP JUMPDEST PUSH1 0x0 DUP2 CALLDATALOAD SWAP1 POP PUSH2 0x39C DUP2 PUSH2 0x575 JUMP JUMPDEST SWAP3 SWAP2 POP POP JUMP JUMPDEST PUSH1 0x0 DUP2 CALLDATALOAD SWAP1 POP PUSH2 0x3B1 DUP2 PUSH2 0x58C JUMP JUMPDEST SWAP3 SWAP2 POP POP JUMP JUMPDEST PUSH1 0x0 PUSH1 0x20 DUP3 DUP5 SUB SLT ISZERO PUSH2 0x3CD JUMPI PUSH2 0x3CC PUSH2 0x570 JUMP JUMPDEST JUMPDEST PUSH1 0x0 PUSH2 0x3DB DUP5 DUP3 DUP6 ADD PUSH2 0x38D JUMP JUMPDEST SWAP2 POP POP SWAP3 SWAP2 POP POP JUMP JUMPDEST PUSH1 0x0 DUP1 PUSH1 0x40 DUP4 DUP6 SUB SLT ISZERO PUSH2 0x3FB JUMPI PUSH2 0x3FA PUSH2 0x570 JUMP JUMPDEST JUMPDEST PUSH1 0x0 PUSH2 0x409 DUP6 DUP3 DUP7 ADD PUSH2 0x38D JUMP JUMPDEST SWAP3 POP POP PUSH1 0x20 PUSH2 0x41A DUP6 DUP3 DUP7 ADD PUSH2 0x3A2 JUMP JUMPDEST SWAP2 POP POP SWAP3 POP SWAP3 SWAP1 POP JUMP JUMPDEST PUSH1 0x0 PUSH1 0x20 DUP3 DUP5 SUB SLT ISZERO PUSH2 0x43A JUMPI PUSH2 0x439 PUSH2 0x570 JUMP JUMPDEST JUMPDEST PUSH1 0x0 PUSH2 0x448 DUP5 DUP3 DUP6 ADD PUSH2 0x3A2 JUMP JUMPDEST SWAP2 POP POP SWAP3 SWAP2 POP POP JUMP JUMPDEST PUSH2 0x45A DUP2 PUSH2 0x537 JUMP JUMPDEST DUP3 MSTORE POP POP JUMP JUMPDEST PUSH1 0x0 PUSH1 0x20 DUP3 ADD SWAP1 POP PUSH2 0x475 PUSH1 0x0 DUP4 ADD DUP5 PUSH2 0x451 JUMP JUMPDEST SWAP3 SWAP2 POP POP JUMP JUMPDEST PUSH1 0x0 PUSH2 0x486 DUP3 PUSH2 0x537 JUMP JUMPDEST SWAP2 POP PUSH2 0x491 DUP4 PUSH2 0x537 JUMP JUMPDEST SWAP3 POP DUP3 PUSH32 0xFFFFFFFFFFFFFFFFFFFFFFFFFFFFFFFFFFFFFFFFFFFFFFFFFFFFFFFFFFFFFFFF SUB DUP3 GT ISZERO PUSH2 0x4C6 JUMPI PUSH2 0x4C5 PUSH2 0x541 JUMP JUMPDEST JUMPDEST DUP3 DUP3 ADD SWAP1 POP SWAP3 SWAP2 POP POP JUMP JUMPDEST PUSH1 0x0 PUSH2 0x4DC DUP3 PUSH2 0x537 JUMP JUMPDEST SWAP2 POP PUSH2 0x4E7 DUP4 PUSH2 0x537 JUMP JUMPDEST SWAP3 POP DUP3 DUP3 LT ISZERO PUSH2 0x4FA JUMPI PUSH2 0x4F9 PUSH2 0x541 JUMP JUMPDEST JUMPDEST DUP3 DUP3 SUB SWAP1 POP SWAP3 SWAP2 POP POP JUMP JUMPDEST PUSH1 0x0 PUSH2 0x510 DUP3 PUSH2 0x517 JUMP JUMPDEST SWAP1 POP SWAP2 SWAP1 POP JUMP JUMPDEST PUSH1 0x0 PUSH20 0xFFFFFFFFFFFFFFFFFFFFFFFFFFFFFFFFFFFFFFFF DUP3 AND SWAP1 POP SWAP2 SWAP1 POP JUMP JUMPDEST PUSH1 0x0 DUP2 SWAP1 POP SWAP2 SWAP1 POP JUMP JUMPDEST PUSH32 0x4E487B7100000000000000000000000000000000000000000000000000000000 PUSH1 0x0 MSTORE PUSH1 0x11 PUSH1 0x4 MSTORE PUSH1 0x24 PUSH1 0x0 REVERT JUMPDEST PUSH1 0x0 DUP1 REVERT JUMPDEST PUSH2 0x57E DUP2 PUSH2 0x505 JUMP JUMPDEST DUP2 EQ PUSH2 0x589 JUMPI PUSH1 0x0 DUP1 REVERT JUMPDEST POP JUMP JUMPDEST PUSH2 0x595 DUP2 PUSH2 0x537 JUMP JUMPDEST DUP2 EQ PUSH2 0x5A0 JUMPI PUSH1 0x0 DUP1 REVERT JUMPDEST POP JUMP INVALID LOG2 PUSH5 0x6970667358 0x22 SLT KECCAK256 PUSH30 0x35E6928337F75917BFC62A669B780B9E2CCF663FF2D1917C514D93410096 DUP11 PUSH5 0x736F6C6343 STOP ADDMOD SMOD STOP CALLER "
				},
				"gasEstimates": {
					"creation": {
						"codeDepositCost": "299400",
						"executionCost": "infinite",
						"totalCost": "infinite"
					},
					"external": {
						"accountBal(address)": "3279",
						"accounts(address)": "2814",
						"deposit(uint256)": "infinite",
						"transfer(address,uint256)": "infinite",
						"withdraw(uint256)": "infinite"
					}
				},
				"methodIdentifiers": {
					"accountBal(address)": "87838bf1",
					"accounts(address)": "5e5c06e2",
					"deposit(uint256)": "b6b55f25",
					"transfer(address,uint256)": "a9059cbb",
					"withdraw(uint256)": "2e1a7d4d"
				}
			},
			"storageLayout": {
				"storage": [
					{
						"astId": 3,
						"contract": "contracts/myLearning/Bank.sol:Bank",
						"label": "owner",
						"offset": 0,
						"slot": "0",
						"type": "t_address"
					},
					{
						"astId": 7,
						"contract": "contracts/myLearning/Bank.sol:Bank",
						"label": "accounts",
						"offset": 0,
						"slot": "1",
						"type": "t_mapping(t_address,t_uint256)"
					}
				],
				"types": {
					"t_address": {
						"encoding": "inplace",
						"label": "address",
						"numberOfBytes": "20"
					},
					"t_mapping(t_address,t_uint256)": {
						"encoding": "mapping",
						"key": "t_address",
						"label": "mapping(address => uint256)",
						"numberOfBytes": "32",
						"value": "t_uint256"
					},
					"t_uint256": {
						"encoding": "inplace",
						"label": "uint256",
						"numberOfBytes": "32"
					}
				}
			},
			"userdoc": {
				"kind": "user",
				"methods": {},
				"version": 1
			}
		}
	}
}